{
  "contractName": "VotingAggregator",
  "abi": [
    {
      "constant": true,
      "inputs": [],
      "name": "name",
      "outputs": [
        {
          "name": "",
          "type": "string"
        }
      ],
      "payable": false,
      "stateMutability": "view",
      "type": "function"
    },
    {
      "constant": true,
      "inputs": [],
      "name": "hasInitialized",
      "outputs": [
        {
          "name": "",
          "type": "bool"
        }
      ],
      "payable": false,
      "stateMutability": "view",
      "type": "function"
    },
    {
      "constant": false,
      "inputs": [
        {
          "name": "",
          "type": "address"
        },
        {
          "name": "",
          "type": "uint256"
        }
      ],
      "name": "approve",
      "outputs": [
        {
          "name": "",
          "type": "bool"
        }
      ],
      "payable": false,
      "stateMutability": "nonpayable",
      "type": "function"
    },
    {
      "constant": false,
      "inputs": [
        {
          "name": "",
          "type": "address"
        },
        {
          "name": "",
          "type": "address"
        },
        {
          "name": "",
          "type": "uint256"
        }
      ],
      "name": "transferFrom",
      "outputs": [
        {
          "name": "",
          "type": "bool"
        }
      ],
      "payable": false,
      "stateMutability": "nonpayable",
      "type": "function"
    },
    {
      "constant": true,
      "inputs": [
        {
          "name": "_script",
          "type": "bytes"
        }
      ],
      "name": "getEVMScriptExecutor",
      "outputs": [
        {
          "name": "",
          "type": "address"
        }
      ],
      "payable": false,
      "stateMutability": "view",
      "type": "function"
    },
    {
      "constant": true,
      "inputs": [],
      "name": "decimals",
      "outputs": [
        {
          "name": "",
          "type": "uint8"
        }
      ],
      "payable": false,
      "stateMutability": "view",
      "type": "function"
    },
    {
      "constant": true,
      "inputs": [],
      "name": "getRecoveryVault",
      "outputs": [
        {
          "name": "",
          "type": "address"
        }
      ],
      "payable": false,
      "stateMutability": "view",
      "type": "function"
    },
    {
      "constant": true,
      "inputs": [],
      "name": "MANAGE_POWER_SOURCE_ROLE",
      "outputs": [
        {
          "name": "",
          "type": "bytes32"
        }
      ],
      "payable": false,
      "stateMutability": "view",
      "type": "function"
    },
    {
      "constant": true,
      "inputs": [],
      "name": "MANAGE_WEIGHTS_ROLE",
      "outputs": [
        {
          "name": "",
          "type": "bytes32"
        }
      ],
      "payable": false,
      "stateMutability": "view",
      "type": "function"
    },
    {
      "constant": true,
      "inputs": [],
      "name": "ADD_POWER_SOURCE_ROLE",
      "outputs": [
        {
          "name": "",
          "type": "bytes32"
        }
      ],
      "payable": false,
      "stateMutability": "view",
      "type": "function"
    },
    {
      "constant": true,
      "inputs": [
        {
          "name": "token",
          "type": "address"
        }
      ],
      "name": "allowRecoverability",
      "outputs": [
        {
          "name": "",
          "type": "bool"
        }
      ],
      "payable": false,
      "stateMutability": "view",
      "type": "function"
    },
    {
      "constant": true,
      "inputs": [],
      "name": "appId",
      "outputs": [
        {
          "name": "",
          "type": "bytes32"
        }
      ],
      "payable": false,
      "stateMutability": "view",
      "type": "function"
    },
    {
      "constant": true,
      "inputs": [],
      "name": "getInitializationBlock",
      "outputs": [
        {
          "name": "",
          "type": "uint256"
        }
      ],
      "payable": false,
      "stateMutability": "view",
      "type": "function"
    },
    {
      "constant": true,
      "inputs": [],
      "name": "symbol",
      "outputs": [
        {
          "name": "",
          "type": "string"
        }
      ],
      "payable": false,
      "stateMutability": "view",
      "type": "function"
    },
    {
      "constant": false,
      "inputs": [
        {
          "name": "_token",
          "type": "address"
        }
      ],
      "name": "transferToVault",
      "outputs": [],
      "payable": false,
      "stateMutability": "nonpayable",
      "type": "function"
    },
    {
      "constant": true,
      "inputs": [
        {
          "name": "",
          "type": "uint256"
        }
      ],
      "name": "powerSources",
      "outputs": [
        {
          "name": "",
          "type": "address"
        }
      ],
      "payable": false,
      "stateMutability": "view",
      "type": "function"
    },
    {
      "constant": true,
      "inputs": [
        {
          "name": "_sender",
          "type": "address"
        },
        {
          "name": "_role",
          "type": "bytes32"
        },
        {
          "name": "_params",
          "type": "uint256[]"
        }
      ],
      "name": "canPerform",
      "outputs": [
        {
          "name": "",
          "type": "bool"
        }
      ],
      "payable": false,
      "stateMutability": "view",
      "type": "function"
    },
    {
      "constant": true,
      "inputs": [],
      "name": "getEVMScriptRegistry",
      "outputs": [
        {
          "name": "",
          "type": "address"
        }
      ],
      "payable": false,
      "stateMutability": "view",
      "type": "function"
    },
    {
      "constant": false,
      "inputs": [
        {
          "name": "",
          "type": "address"
        },
        {
          "name": "",
          "type": "uint256"
        }
      ],
      "name": "transfer",
      "outputs": [
        {
          "name": "",
          "type": "bool"
        }
      ],
      "payable": false,
      "stateMutability": "nonpayable",
      "type": "function"
    },
    {
      "constant": true,
      "inputs": [],
      "name": "kernel",
      "outputs": [
        {
          "name": "",
          "type": "address"
        }
      ],
      "payable": false,
      "stateMutability": "view",
      "type": "function"
    },
    {
      "constant": true,
      "inputs": [
        {
          "name": "",
          "type": "address"
        },
        {
          "name": "",
          "type": "address"
        }
      ],
      "name": "allowance",
      "outputs": [
        {
          "name": "",
          "type": "uint256"
        }
      ],
      "payable": false,
      "stateMutability": "view",
      "type": "function"
    },
    {
      "constant": true,
      "inputs": [],
      "name": "isPetrified",
      "outputs": [
        {
          "name": "",
          "type": "bool"
        }
      ],
      "payable": false,
      "stateMutability": "view",
      "type": "function"
    },
    {
      "anonymous": false,
      "inputs": [
        {
          "indexed": true,
          "name": "sourceAddress",
          "type": "address"
        },
        {
          "indexed": false,
          "name": "sourceType",
          "type": "uint8"
        },
        {
          "indexed": false,
          "name": "weight",
          "type": "uint256"
        }
      ],
      "name": "AddPowerSource",
      "type": "event"
    },
    {
      "anonymous": false,
      "inputs": [
        {
          "indexed": true,
          "name": "sourceAddress",
          "type": "address"
        },
        {
          "indexed": false,
          "name": "newWeight",
          "type": "uint256"
        }
      ],
      "name": "ChangePowerSourceWeight",
      "type": "event"
    },
    {
      "anonymous": false,
      "inputs": [
        {
          "indexed": true,
          "name": "sourceAddress",
          "type": "address"
        }
      ],
      "name": "DisablePowerSource",
      "type": "event"
    },
    {
      "anonymous": false,
      "inputs": [
        {
          "indexed": true,
          "name": "sourceAddress",
          "type": "address"
        }
      ],
      "name": "EnablePowerSource",
      "type": "event"
    },
    {
      "anonymous": false,
      "inputs": [
        {
          "indexed": true,
          "name": "executor",
          "type": "address"
        },
        {
          "indexed": false,
          "name": "script",
          "type": "bytes"
        },
        {
          "indexed": false,
          "name": "input",
          "type": "bytes"
        },
        {
          "indexed": false,
          "name": "returnData",
          "type": "bytes"
        }
      ],
      "name": "ScriptResult",
      "type": "event"
    },
    {
      "anonymous": false,
      "inputs": [
        {
          "indexed": true,
          "name": "vault",
          "type": "address"
        },
        {
          "indexed": true,
          "name": "token",
          "type": "address"
        },
        {
          "indexed": false,
          "name": "amount",
          "type": "uint256"
        }
      ],
      "name": "RecoverToVault",
      "type": "event"
    },
    {
      "anonymous": false,
      "inputs": [
        {
          "indexed": true,
          "name": "from",
          "type": "address"
        },
        {
          "indexed": true,
          "name": "to",
          "type": "address"
        },
        {
          "indexed": false,
          "name": "value",
          "type": "uint256"
        }
      ],
      "name": "Transfer",
      "type": "event"
    },
    {
      "anonymous": false,
      "inputs": [
        {
          "indexed": true,
          "name": "owner",
          "type": "address"
        },
        {
          "indexed": true,
          "name": "spender",
          "type": "address"
        },
        {
          "indexed": false,
          "name": "value",
          "type": "uint256"
        }
      ],
      "name": "Approval",
      "type": "event"
    },
    {
      "constant": false,
      "inputs": [
        {
          "name": "_name",
          "type": "string"
        },
        {
          "name": "_symbol",
          "type": "string"
        },
        {
          "name": "_decimals",
          "type": "uint8"
        }
      ],
      "name": "initialize",
      "outputs": [],
      "payable": false,
      "stateMutability": "nonpayable",
      "type": "function"
    },
    {
      "constant": false,
      "inputs": [
        {
          "name": "_sourceAddr",
          "type": "address"
        },
        {
          "name": "_sourceType",
          "type": "uint8"
        },
        {
          "name": "_weight",
          "type": "uint256"
        }
      ],
      "name": "addPowerSource",
      "outputs": [],
      "payable": false,
      "stateMutability": "nonpayable",
      "type": "function"
    },
    {
      "constant": false,
      "inputs": [
        {
          "name": "_sourceAddr",
          "type": "address"
        },
        {
          "name": "_weight",
          "type": "uint256"
        }
      ],
      "name": "changeSourceWeight",
      "outputs": [],
      "payable": false,
      "stateMutability": "nonpayable",
      "type": "function"
    },
    {
      "constant": false,
      "inputs": [
        {
          "name": "_sourceAddr",
          "type": "address"
        }
      ],
      "name": "disableSource",
      "outputs": [],
      "payable": false,
      "stateMutability": "nonpayable",
      "type": "function"
    },
    {
      "constant": false,
      "inputs": [
        {
          "name": "_sourceAddr",
          "type": "address"
        }
      ],
      "name": "enableSource",
      "outputs": [],
      "payable": false,
      "stateMutability": "nonpayable",
      "type": "function"
    },
    {
      "constant": true,
      "inputs": [
        {
          "name": "_owner",
          "type": "address"
        }
      ],
      "name": "balanceOf",
      "outputs": [
        {
          "name": "",
          "type": "uint256"
        }
      ],
      "payable": false,
      "stateMutability": "view",
      "type": "function"
    },
    {
      "constant": true,
      "inputs": [],
      "name": "totalSupply",
      "outputs": [
        {
          "name": "",
          "type": "uint256"
        }
      ],
      "payable": false,
      "stateMutability": "view",
      "type": "function"
    },
    {
      "constant": true,
      "inputs": [
        {
          "name": "_owner",
          "type": "address"
        },
        {
          "name": "_blockNumber",
          "type": "uint256"
        }
      ],
      "name": "balanceOfAt",
      "outputs": [
        {
          "name": "",
          "type": "uint256"
        }
      ],
      "payable": false,
      "stateMutability": "view",
      "type": "function"
    },
    {
      "constant": true,
      "inputs": [
        {
          "name": "_blockNumber",
          "type": "uint256"
        }
      ],
      "name": "totalSupplyAt",
      "outputs": [
        {
          "name": "",
          "type": "uint256"
        }
      ],
      "payable": false,
      "stateMutability": "view",
      "type": "function"
    },
    {
      "constant": true,
      "inputs": [],
      "name": "isForwarder",
      "outputs": [
        {
          "name": "",
          "type": "bool"
        }
      ],
      "payable": false,
      "stateMutability": "pure",
      "type": "function"
    },
    {
      "constant": false,
      "inputs": [
        {
          "name": "_evmScript",
          "type": "bytes"
        }
      ],
      "name": "forward",
      "outputs": [],
      "payable": false,
      "stateMutability": "nonpayable",
      "type": "function"
    },
    {
      "constant": true,
      "inputs": [
        {
          "name": "_sender",
          "type": "address"
        },
        {
          "name": "",
          "type": "bytes"
        }
      ],
      "name": "canForward",
      "outputs": [
        {
          "name": "",
          "type": "bool"
        }
      ],
      "payable": false,
      "stateMutability": "view",
      "type": "function"
    },
    {
      "constant": true,
      "inputs": [
        {
          "name": "_sourceAddr",
          "type": "address"
        }
      ],
      "name": "getPowerSourceDetails",
      "outputs": [
        {
          "name": "sourceType",
          "type": "uint8"
        },
        {
          "name": "enabled",
          "type": "bool"
        },
        {
          "name": "weight",
          "type": "uint256"
        }
      ],
      "payable": false,
      "stateMutability": "view",
      "type": "function"
    },
    {
      "constant": true,
      "inputs": [],
      "name": "getPowerSourcesLength",
      "outputs": [
        {
          "name": "",
          "type": "uint256"
        }
      ],
      "payable": false,
      "stateMutability": "view",
      "type": "function"
    }
  ],
  "bytecode": "0x6080604052620000176401000000006200001d810204565b6200023b565b6200003064010000000062000125810204565b60408051808201909152601881527f494e49545f414c52454144595f494e495449414c495a45440000000000000000602082015290156200010c576040517f08c379a00000000000000000000000000000000000000000000000000000000081526004018080602001828103825283818151815260200191508051906020019080838360005b83811015620000d0578181015183820152602001620000b6565b50505050905090810190601f168015620000fe5780820380516001836020036101000a031916815260200191505b509250505060405180910390fd5b506200012360001964010000000062000154810204565b565b60006200014f6000805160206200426283398151915264010000000062002fee6200023382021704565b905090565b6200016764010000000062000125810204565b60408051808201909152601881527f494e49545f414c52454144595f494e495449414c495a454400000000000000006020820152901562000206576040517f08c379a000000000000000000000000000000000000000000000000000000000815260040180806020018281038252838181518152602001915080519060200190808383600083811015620000d0578181015183820152602001620000b6565b5062000230600080516020620042628339815191528264010000000062003b9f6200023782021704565b50565b5490565b9055565b614017806200024b6000396000f3006080604052600436106101c15763ffffffff7c010000000000000000000000000000000000000000000000000000000060003504166306fdde0381146101c65780630803fac014610250578063095ea7b3146102795780630f3d5d97146102aa5780631624f6c6146102e357806318160ddd1461031557806323b872dd1461033c57806325861b20146103735780632914b9bd146103d4578063313ce5671461045657806332f0a3b51461048157806335c37a131461049657806340d5dc4d146104c757806343c7b568146104dc5780634b01bab3146104f15780634ee2cd7e1461050657806370a08231146105375780637d5b23a2146105655780637e7db6e11461057a57806380afdea8146105a85780638b3dd749146105bd57806395d89b41146105d2578063981b24d0146105e75780639d4941d8146105ff5780639f42ad861461062d578063a1658fad14610645578063a479e508146106b9578063a9059cbb14610279578063c0774df3146106ce578063d4aae0c414610742578063d948d46814610757578063dd62ed3e146107b0578063de4796ed146107e4578063e27dca5c146107f9578063e42e56b214610827578063fd64eccb14610855575b600080fd5b3480156101d257600080fd5b506101db61086a565b6040805160208082528351818301528351919283929083019185019080838360005b838110156102155781810151838201526020016101fd565b50505050905090810190601f1680156102425780820380516001836020036101000a031916815260200191505b509250505060405180910390f35b34801561025c57600080fd5b506102656108f8565b604080519115158252519081900360200190f35b34801561028557600080fd5b5061026573ffffffffffffffffffffffffffffffffffffffff60043516602435610922565b3480156102b657600080fd5b506102e173ffffffffffffffffffffffffffffffffffffffff6004351660ff602435166044356109ef565b005b3480156102ef57600080fd5b506102e1602460048035828101929082013591813591820191013560ff60443516610f7f565b34801561032157600080fd5b5061032a61107e565b60408051918252519081900360200190f35b34801561034857600080fd5b5061026573ffffffffffffffffffffffffffffffffffffffff60043581169060243516604435610922565b34801561037f57600080fd5b506103a173ffffffffffffffffffffffffffffffffffffffff60043516611096565b604051808460028111156103b157fe5b60ff16815292151560208401525060408083019190915251908190036060019150f35b3480156103e057600080fd5b506040805160206004803580820135601f810184900484028501840190955284845261042d9436949293602493928401919081908401838280828437509497506111989650505050505050565b6040805173ffffffffffffffffffffffffffffffffffffffff9092168252519081900360200190f35b34801561046257600080fd5b5061046b6112a4565b6040805160ff9092168252519081900360200190f35b34801561048d57600080fd5b5061042d6112ad565b3480156104a257600080fd5b506102e173ffffffffffffffffffffffffffffffffffffffff6004351660243561134b565b3480156104d357600080fd5b5061032a6116e1565b3480156104e857600080fd5b5061032a611790565b3480156104fd57600080fd5b5061032a6117b4565b34801561051257600080fd5b5061032a73ffffffffffffffffffffffffffffffffffffffff600435166024356117d8565b34801561054357600080fd5b5061032a73ffffffffffffffffffffffffffffffffffffffff60043516611828565b34801561057157600080fd5b5061032a61183b565b34801561058657600080fd5b5061026573ffffffffffffffffffffffffffffffffffffffff6004351661185f565b3480156105b457600080fd5b5061032a611865565b3480156105c957600080fd5b5061032a611890565b3480156105de57600080fd5b506101db6118bb565b3480156105f357600080fd5b5061032a600435611915565b34801561060b57600080fd5b506102e173ffffffffffffffffffffffffffffffffffffffff60043516611942565b34801561063957600080fd5b5061042d600435611c64565b34801561065157600080fd5b50604080516020600460443581810135838102808601850190965280855261026595833573ffffffffffffffffffffffffffffffffffffffff16956024803596369695606495939492019291829185019084908082843750949750611c999650505050505050565b3480156106c557600080fd5b5061042d611e29565b3480156106da57600080fd5b5060408051602060046024803582810135601f810185900485028601850190965285855261026595833573ffffffffffffffffffffffffffffffffffffffff16953695604494919390910191908190840183828082843750949750611eeb9650505050505050565b34801561074e57600080fd5b5061042d611f0f565b34801561076357600080fd5b506040805160206004803580820135601f81018490048402850184019095528484526102e1943694929360249392840191908190840183828082843750949750611f3a9650505050505050565b3480156107bc57600080fd5b5061032a73ffffffffffffffffffffffffffffffffffffffff6004358116906024351661200e565b3480156107f057600080fd5b50610265612016565b34801561080557600080fd5b506102e173ffffffffffffffffffffffffffffffffffffffff60043516612029565b34801561083357600080fd5b506102e173ffffffffffffffffffffffffffffffffffffffff600435166122da565b34801561086157600080fd5b5061026561258a565b6000805460408051602060026001851615610100026000190190941693909304601f810184900484028201840190925281815292918301828280156108f05780601f106108c5576101008083540402835291602001916108f0565b820191906000526020600020905b8154815290600101906020018083116108d357829003601f168201915b505050505081565b600080610903611890565b9050801580159061091b57508061091861258f565b10155b91505b5090565b604080518082018252600f81527f45524332305f564945575f4f4e4c590000000000000000000000000000000000602080830191825292517f08c379a00000000000000000000000000000000000000000000000000000000081526004810193845282516024820152825160009492839260440191808383895b838110156109b457818101518382015260200161099c565b50505050905090810190601f1680156109e15780820380516001836020036101000a031916815260200191505b509250505060405180910390fd5b60007f10f7c4af0b190fdd7eb73fa36b0e280d48dc6b8d355f89769b4f1a50a61d1929610a1c8584612593565b610a27338383611c99565b60408051808201909152600f81527f4150505f415554485f4641494c454400000000000000000000000000000000006020820152901515610ac4576040517f08c379a0000000000000000000000000000000000000000000000000000000008152600401808060200182810382528381815181526020019150805190602001908083836000838110156109b457818101518382015260200161099c565b506001856002811115610ad357fe5b1480610aea57506002856002811115610ae857fe5b145b60408051808201909152601c81527f56415f504f5745525f534f555243455f545950455f494e56414c4944000000006020820152901515610b87576040517f08c379a0000000000000000000000000000000000000000000000000000000008152600401808060200182810382528381815181526020019150805190602001908083836000838110156109b457818101518382015260200161099c565b5060408051808201909152600e81527f56415f5a45524f5f574549474854000000000000000000000000000000000000602082015260008511610c26576040517f08c379a0000000000000000000000000000000000000000000000000000000008152600401808060200182810382528381815181526020019150805190602001908083836000838110156109b457818101518382015260200161099c565b50610c3186866125b5565b60408051808201909152601781527f56415f504f5745525f534f555243455f494e56414c49440000000000000000006020820152901515610cce576040517f08c379a0000000000000000000000000000000000000000000000000000000008152600401808060200182810382528381815181526020019150805190602001908083836000838110156109b457818101518382015260200161099c565b50610cd886612874565b60408051808201909152601d81527f56415f504f5745525f534f555243455f414c52454144595f414444454400000060208201529015610d74576040517f08c379a0000000000000000000000000000000000000000000000000000000008152600401808060200182810382528381815181526020019150805190602001908083836000838110156109b457818101518382015260200161099c565b5060045460408051808201909152601981527f56415f544f4f5f4d414e595f504f5745525f534f555243455300000000000000602082015290601411610e16576040517f08c379a0000000000000000000000000000000000000000000000000000000008152600401808060200182810382528381815181526020019150805190602001908083836000838110156109b457818101518382015260200161099c565b506004805460018082019092557f8a35acfbc15ff81a39ae7d344fd709f28e8600b4aa8c65c6b64bfe7fe36bd19b0180547fffffffffffffffffffffffff00000000000000000000000000000000000000001673ffffffffffffffffffffffffffffffffffffffff891690811790915560009081526003602052604090208054909450869185917fffffffffffffffffffffffffffffffffffffffffffffffffffffffffffffff001690836002811115610ecc57fe5b0217905550610eee610edc6128b3565b6001858101919063ffffffff6128c516565b610f13610ef96128b3565b610f0286612b24565b60028601919063ffffffff6128c516565b8573ffffffffffffffffffffffffffffffffffffffff167fbe6945fc933e18e86e095cac3b02abe3378f544f38c8aba2606eaebd1cacac2e868660405180836002811115610f5d57fe5b60ff1681526020018281526020019250505060405180910390a2505050505050565b610f87611890565b60408051808201909152601881527f494e49545f414c52454144595f494e495449414c495a4544000000000000000060208201529015611023576040517f08c379a0000000000000000000000000000000000000000000000000000000008152600401808060200182810382528381815181526020019150805190602001908083836000838110156109b457818101518382015260200161099c565b5061102c612be4565b61103860008686613f3f565b5061104560018484613f3f565b50600280547fffffffffffffffffffffffffffffffffffffffffffffffffffffffffffffff001660ff9290921691909117905550505050565b600061109061108b61258f565b611915565b90505b90565b600080600080846110a681612874565b60408051808201909152601281527f56415f4e4f5f504f5745525f534f5552434500000000000000000000000000006020820152901515611143576040517f08c379a0000000000000000000000000000000000000000000000000000000008152600401808060200182810382528381815181526020019150805190602001908083836000838110156109b457818101518382015260200161099c565b5073ffffffffffffffffffffffffffffffffffffffff86166000908152600360205260409020805460ff1695509150600161117f818401612cc3565b14935061118e82600201612cc3565b9496939550505050565b60006111a2611e29565b73ffffffffffffffffffffffffffffffffffffffff166304bf2a7f836040518263ffffffff167c01000000000000000000000000000000000000000000000000000000000281526004018080602001828103825283818151815260200191508051906020019080838360005b8381101561122657818101518382015260200161120e565b50505050905090810190601f1680156112535780820380516001836020036101000a031916815260200191505b5092505050602060405180830381600087803b15801561127257600080fd5b505af1158015611286573d6000803e3d6000fd5b505050506040513d602081101561129c57600080fd5b505192915050565b60025460ff1681565b60006112b7611f0f565b73ffffffffffffffffffffffffffffffffffffffff166332f0a3b56040518163ffffffff167c0100000000000000000000000000000000000000000000000000000000028152600401602060405180830381600087803b15801561131a57600080fd5b505af115801561132e573d6000803e3d6000fd5b505050506040513d602081101561134457600080fd5b5051905090565b73ffffffffffffffffffffffffffffffffffffffff821660009081526003602052604081207fa36fcade8375289791865312a33263fdc82d07e097c13524c9d6436c0de396ff906113a99084906113a490600201612cc3565b612d26565b6113b4338383611c99565b60408051808201909152600f81527f4150505f415554485f4641494c454400000000000000000000000000000000006020820152901515611451576040517f08c379a0000000000000000000000000000000000000000000000000000000008152600401808060200182810382528381815181526020019150805190602001908083836000838110156109b457818101518382015260200161099c565b508461145c81612874565b60408051808201909152601281527f56415f4e4f5f504f5745525f534f55524345000000000000000000000000000060208201529015156114f9576040517f08c379a0000000000000000000000000000000000000000000000000000000008152600401808060200182810382528381815181526020019150805190602001908083836000838110156109b457818101518382015260200161099c565b5060408051808201909152600e81527f56415f5a45524f5f574549474854000000000000000000000000000000000000602082015260008611611598576040517f08c379a0000000000000000000000000000000000000000000000000000000008152600401808060200182810382528381815181526020019150805190602001908083836000838110156109b457818101518382015260200161099c565b5073ffffffffffffffffffffffffffffffffffffffff861660009081526003602052604090206002019350846115cd85612cc3565b60408051808201909152600e81527f56415f53414d455f574549474854000000000000000000000000000000000000602082015291141561166a576040517f08c379a0000000000000000000000000000000000000000000000000000000008152600401808060200182810382528381815181526020019150805190602001908083836000838110156109b457818101518382015260200161099c565b5061168d6116766128b3565b61167f87612b24565b86919063ffffffff6128c516565b60408051868152905173ffffffffffffffffffffffffffffffffffffffff8816917f40949e8276e798a2b3612cd8c13025d5a36daa58ae141c449b0c290b365a8f1a919081900360200190a2505050505050565b60006116eb6108f8565b60408051808201909152601481527f494e49545f4e4f545f494e495449414c495a45440000000000000000000000006020820152901515611788576040517f08c379a0000000000000000000000000000000000000000000000000000000008152600401808060200182810382528381815181526020019150805190602001908083836000838110156109b457818101518382015260200161099c565b505060045490565b7f79ac9d2706bbe6bcdb60a65ba8145a498f6d506aaa455baa7675dff5779cb99f81565b7fa36fcade8375289791865312a33263fdc82d07e097c13524c9d6436c0de396ff81565b6040805173ffffffffffffffffffffffffffffffffffffffff84166020820152808201839052815180820383018152606090910190915260009061181f9083908390612d81565b90505b92915050565b60006118228261183661258f565b6117d8565b7f10f7c4af0b190fdd7eb73fa36b0e280d48dc6b8d355f89769b4f1a50a61d192981565b50600190565b60006110907fd625496217aa6a3453eecb9c3489dc5a53e6c67b444329ea2b2cbc9ff547639b612fee565b60006110907febb05b386a8d34882b8711d156f463690983dc47815980fb82aeeff1aa43579e612fee565b60018054604080516020600284861615610100026000190190941693909304601f810184900484028201840190925281815292918301828280156108f05780601f106108c5576101008083540402835291602001916108f0565b60006118228260018460405160200180828152602001915050604051602081830303815290604052612d81565b60008060006119508461185f565b60408051808201909152601281527f5245434f5645525f444953414c4c4f574544000000000000000000000000000060208201529015156119ed576040517f08c379a0000000000000000000000000000000000000000000000000000000008152600401808060200182810382528381815181526020019150805190602001908083836000838110156109b457818101518382015260200161099c565b506119f66112ad565b9250611a0183612ff6565b60408051808201909152601a81527f5245434f5645525f5641554c545f4e4f545f434f4e54524143540000000000006020820152901515611a9e576040517f08c379a0000000000000000000000000000000000000000000000000000000008152600401808060200182810382528381815181526020019150805190602001908083836000838110156109b457818101518382015260200161099c565b5073ffffffffffffffffffffffffffffffffffffffff84161515611b09576040513031925073ffffffffffffffffffffffffffffffffffffffff84169083156108fc029084906000818181858888f19350505050158015611b03573d6000803e3d6000fd5b50611bf9565b5082611b3173ffffffffffffffffffffffffffffffffffffffff82163063ffffffff61302916565b9150611b5a73ffffffffffffffffffffffffffffffffffffffff8216848463ffffffff61316216565b60408051808201909152601d81527f5245434f5645525f544f4b454e5f5452414e534645525f4641494c45440000006020820152901515611bf7576040517f08c379a0000000000000000000000000000000000000000000000000000000008152600401808060200182810382528381815181526020019150805190602001908083836000838110156109b457818101518382015260200161099c565b505b8373ffffffffffffffffffffffffffffffffffffffff168373ffffffffffffffffffffffffffffffffffffffff167f596caf56044b55fb8c4ca640089bbc2b63cae3e978b851f5745cbb7c5b288e02846040518082815260200191505060405180910390a350505050565b6004805482908110611c7257fe5b60009182526020909120015473ffffffffffffffffffffffffffffffffffffffff16905081565b600080611ca46108f8565b1515611cb35760009150611e21565b611cbb611f0f565b905073ffffffffffffffffffffffffffffffffffffffff81161515611ce35760009150611e21565b8073ffffffffffffffffffffffffffffffffffffffff1663fdef9106863087611d0b886131fa565b6040517c010000000000000000000000000000000000000000000000000000000063ffffffff871602815273ffffffffffffffffffffffffffffffffffffffff808616600483019081529085166024830152604482018490526080606483019081528351608484015283519192909160a490910190602085019080838360005b83811015611da3578181015183820152602001611d8b565b50505050905090810190601f168015611dd05780820380516001836020036101000a031916815260200191505b5095505050505050602060405180830381600087803b158015611df257600080fd5b505af1158015611e06573d6000803e3d6000fd5b505050506040513d6020811015611e1c57600080fd5b505191505b509392505050565b600080611e34611f0f565b604080517fbe00bbd80000000000000000000000000000000000000000000000000000000081527fd6f028ca0e8edb4a8c9757ca4fdccab25fa1e0317da1188108f7d2dee14902fb60048201527fddbcfd564f642ab5627cf68b9b7d374fb4f8a36e941a75d89c87998cef03bd616024820152905173ffffffffffffffffffffffffffffffffffffffff929092169163be00bbd8916044808201926020929091908290030181600087803b15801561127257600080fd5b6000611ef56108f8565b801561181f57506000611f0784611828565b119392505050565b60006110907f4172f0f7d2289153072b0a6ca36959e0cbe2efc3afe50fc81636caa96338137b612fee565b6060611f463383611eeb565b60408051808201909152601281527f56415f43414e5f4e4f545f464f525741524400000000000000000000000000006020820152901515611fe3576040517f08c379a0000000000000000000000000000000000000000000000000000000008152600401808060200182810382528381815181526020019150805190602001908083836000838110156109b457818101518382015260200161099c565b505060408051600080825260208201908152818301909252906120099083908390613204565b505050565b600092915050565b6000600019612023611890565b14905090565b60007f79ac9d2706bbe6bcdb60a65ba8145a498f6d506aaa455baa7675dff5779cb99f612055826138da565b612060338383611c99565b60408051808201909152600f81527f4150505f415554485f4641494c4544000000000000000000000000000000000060208201529015156120fd576040517f08c379a0000000000000000000000000000000000000000000000000000000008152600401808060200182810382528381815181526020019150805190602001908083836000838110156109b457818101518382015260200161099c565b508361210881612874565b60408051808201909152601281527f56415f4e4f5f504f5745525f534f55524345000000000000000000000000000060208201529015156121a5576040517f08c379a0000000000000000000000000000000000000000000000000000000008152600401808060200182810382528381815181526020019150805190602001908083836000838110156109b457818101518382015260200161099c565b5073ffffffffffffffffffffffffffffffffffffffff85166000908152600360205260409020600190810194506121db85612cc3565b60408051808201909152601581527f56415f534f555243455f4e4f545f454e41424c4544000000000000000000000060208201529114612277576040517f08c379a0000000000000000000000000000000000000000000000000000000008152600401808060200182810382528381815181526020019150805190602001908083836000838110156109b457818101518382015260200161099c565b506122926122836128b3565b8590600063ffffffff6128c516565b60405173ffffffffffffffffffffffffffffffffffffffff8616907f90cf884dfbed115ddda1b4d953b8f7fafda56fa7481f1735ef56abe99960fd1490600090a25050505050565b6000816122e681612874565b60408051808201909152601281527f56415f4e4f5f504f5745525f534f5552434500000000000000000000000000006020820152901515612383576040517f08c379a0000000000000000000000000000000000000000000000000000000008152600401808060200182810382528381815181526020019150805190602001908083836000838110156109b457818101518382015260200161099c565b507f79ac9d2706bbe6bcdb60a65ba8145a498f6d506aaa455baa7675dff5779cb99f6123af60016138da565b6123ba338383611c99565b60408051808201909152600f81527f4150505f415554485f4641494c454400000000000000000000000000000000006020820152901515612457576040517f08c379a0000000000000000000000000000000000000000000000000000000008152600401808060200182810382528381815181526020019150805190602001908083836000838110156109b457818101518382015260200161099c565b5073ffffffffffffffffffffffffffffffffffffffff85166000908152600360205260408120600101945061248b85612cc3565b60408051808201909152601681527f56415f534f555243455f4e4f545f44495341424c45440000000000000000000060208201529114612527576040517f08c379a0000000000000000000000000000000000000000000000000000000008152600401808060200182810382528381815181526020019150805190602001908083836000838110156109b457818101518382015260200161099c565b506125426125336128b3565b8590600163ffffffff6128c516565b60405173ffffffffffffffffffffffffffffffffffffffff8616907f8c8ae6787c71cd00a0a566d6efb885db0d86d0eb4742600f86a7d929bfd984b090600090a25050505050565b600190565b4390565b606061181f8373ffffffffffffffffffffffffffffffffffffffff1683612d26565b600060606000606060006125c887612ff6565b15156125d7576000945061286a565b6125e260008761391b565b306125eb61258f565b604051602001808373ffffffffffffffffffffffffffffffffffffffff1673ffffffffffffffffffffffffffffffffffffffff1681526020018281526020019250505060405160208183030381529060405260405160200180837bffffffffffffffffffffffffffffffffffffffffffffffffffffffff19167bffffffffffffffffffffffffffffffffffffffffffffffffffffffff1916815260040182805190602001908083835b602083106126d157805182527fffffffffffffffffffffffffffffffffffffffffffffffffffffffffffffffe09092019160209182019101612694565b6001836020036101000a038019825116818451168082178552505050505050905001925050506040516020818303038152906040529350612731848873ffffffffffffffffffffffffffffffffffffffff16613ac590919063ffffffff16565b50925061273f60018761391b565b61274761258f565b6040516020018082815260200191505060405160208183030381529060405260405160200180837bffffffffffffffffffffffffffffffffffffffffffffffffffffffff19167bffffffffffffffffffffffffffffffffffffffffffffffffffffffff1916815260040182805190602001908083835b602083106127fa57805182527fffffffffffffffffffffffffffffffffffffffffffffffffffffffffffffffe090920191602091820191016127bd565b6001836020036101000a03801982511681845116808217855250505050505090500192505050604051602081830303815290604052915061285a828873ffffffffffffffffffffffffffffffffffffffff16613ac590919063ffffffff16565b5090508280156128675750805b94505b5050505092915050565b60008073ffffffffffffffffffffffffffffffffffffffff831660009081526003602052604090205460ff1660028111156128ab57fe5b141592915050565b60006110906128c061258f565b613af6565b825460008082151561296a576040805180820190915267ffffffffffffffff808716825277ffffffffffffffffffffffffffffffffffffffffffffffff80871660208085019182528a54600181018c5560008c815291909120945194018054915190921668010000000000000000029383167fffffffffffffffffffffffffffffffffffffffffffffffff000000000000000090911617909116919091179055612b1c565b85548690600019850190811061297c57fe5b6000918252602090912001805490925067ffffffffffffffff90811691508516811015612a3c576040805180820190915267ffffffffffffffff808716825277ffffffffffffffffffffffffffffffffffffffffffffffff80871660208085019182528a54600181018c5560008c815291909120945194018054915190921668010000000000000000029383167fffffffffffffffffffffffffffffffffffffffffffffffff000000000000000090911617909116919091179055612b1c565b808567ffffffffffffffff161415612a8857815467ffffffffffffffff166801000000000000000077ffffffffffffffffffffffffffffffffffffffffffffffff861602178255612b1c565b604080518082018252601a81527f434845434b504f494e545f504153545f434845434b504f494e54000000000000602080830191825292517f08c379a0000000000000000000000000000000000000000000000000000000008152600481019384528251602482015282519293928392604490920191908083836000838110156109b457818101518382015260200161099c565b505050505050565b60408051808201909152601681527f55494e543139325f4e554d4245525f544f4f5f42494700000000000000000000602082015260009077ffffffffffffffffffffffffffffffffffffffffffffffff831115612bdd576040517f08c379a0000000000000000000000000000000000000000000000000000000008152600401808060200182810382528381815181526020019150805190602001908083836000838110156109b457818101518382015260200161099c565b5090919050565b612bec611890565b60408051808201909152601881527f494e49545f414c52454144595f494e495449414c495a4544000000000000000060208201529015612c88576040517f08c379a0000000000000000000000000000000000000000000000000000000008152600401808060200182810382528381815181526020019150805190602001908083836000838110156109b457818101518382015260200161099c565b50612cc1612c9461258f565b7febb05b386a8d34882b8711d156f463690983dc47815980fb82aeeff1aa43579e9063ffffffff613b9f16565b565b805460009081811115612d1b57825483906000198301908110612ce257fe5b60009182526020909120015468010000000000000000900477ffffffffffffffffffffffffffffffffffffffffffffffff169150612d20565b600091505b50919050565b604080516002808252606080830184529260208301908038833901905050905082816000815181101515612d5657fe5b602090810290910101528051829082906001908110612d7157fe5b6020908102909101015292915050565b60008060008060008060606000806000612d9a8d613af6565b985060009750600096505b600454871015612fdd576004805488908110612dbd57fe5b600091825260208083209091015473ffffffffffffffffffffffffffffffffffffffff168083526003909152604090912090965094506001612e078682018b63ffffffff613ba316565b1415612fd2578454612e1d908d9060ff1661391b565b6040517fffffffff00000000000000000000000000000000000000000000000000000000821660208083019182528e518f93602401918401908083835b60208310612e9757805182527fffffffffffffffffffffffffffffffffffffffffffffffffffffffffffffffe09092019160209182019101612e5a565b6001836020036101000a038019825116818451168082178552505050505050905001925050506040516020818303038152906040529350612ef7848773ffffffffffffffffffffffffffffffffffffffff16613ac590919063ffffffff16565b60408051808201909152601581527f56415f534f555243455f43414c4c5f4641494c4544000000000000000000000060208201529194509250831515612f99576040517f08c379a0000000000000000000000000000000000000000000000000000000008152600401808060200182810382528381815181526020019150805190602001908083836000838110156109b457818101518382015260200161099c565b50612fad600286018a63ffffffff613ba316565b9050612fcf612fc2828463ffffffff613baf16565b899063ffffffff613c7d16565b97505b600190960195612da5565b50959b9a5050505050505050505050565b5490565b5490565b60008073ffffffffffffffffffffffffffffffffffffffff8316151561301f5760009150612d20565b50506000903b1190565b6040805173ffffffffffffffffffffffffffffffffffffffff83166024808301919091528251808303909101815260449091019091526020810180517bffffffffffffffffffffffffffffffffffffffffffffffffffffffff167f70a082310000000000000000000000000000000000000000000000000000000017905260009081806130b68684613ac5565b60408051808201909152601c81527f534146455f4552435f32305f42414c414e43455f52455645525445440000000060208201529193509150821515613158576040517f08c379a0000000000000000000000000000000000000000000000000000000008152600401808060200182810382528381815181526020019150805190602001908083836000838110156109b457818101518382015260200161099c565b5095945050505050565b6040805173ffffffffffffffffffffffffffffffffffffffff8416602482015260448082018490528251808303909101815260649091019091526020810180517bffffffffffffffffffffffffffffffffffffffffffffffffffffffff167fa9059cbb000000000000000000000000000000000000000000000000000000001790526000906131f18582613d22565b95945050505050565b8051602002815290565b60606000806060806132146108f8565b60408051808201909152601481527f494e49545f4e4f545f494e495449414c495a454400000000000000000000000060208201529015156132b1576040517f08c379a0000000000000000000000000000000000000000000000000000000008152600401808060200182810382528381815181526020019150805190602001908083836000838110156109b457818101518382015260200161099c565b506000806132bd611f0f565b91506132c7611865565b90506132d28a611198565b60408051808201909152601b81527f45564d52554e5f4558454355544f525f554e415641494c41424c450000000000602082015290965073ffffffffffffffffffffffffffffffffffffffff87161515613388576040517f08c379a0000000000000000000000000000000000000000000000000000000008152600401808060200182810382528381815181526020019150805190602001908083836000838110156109b457818101518382015260200161099c565b506040516060602482019081528b5160848301528b517f279cea3500000000000000000000000000000000000000000000000000000000975087928d928d928d9282916044820191606481019160a490910190602089019080838360005b838110156133fe5781810151838201526020016133e6565b50505050905090810190601f16801561342b5780820380516001836020036101000a031916815260200191505b50848103835286518152865160209182019188019080838360005b8381101561345e578181015183820152602001613446565b50505050905090810190601f16801561348b5780820380516001836020036101000a031916815260200191505b508481038252855181528551602091820191808801910280838360005b838110156134c05781810151838201526020016134a8565b505050509050019650505050505050604051602081830303815290604052907bffffffffffffffffffffffffffffffffffffffffffffffffffffffff19166020820180517bffffffffffffffffffffffffffffffffffffffffffffffffffffffff83818316178352505050509350600080855160208701895af460405193508080156135c557603f3d1180156135635760203d03806020883e86016040526135bf565b7f08c379a000000000000000000000000000000000000000000000000000000000865260206004870152601e60248701527f45564d52554e5f4558454355544f525f494e56414c49445f52455455524e00006044870152606486fd5b506135ce565b3d6000863e3d85fd5b50508573ffffffffffffffffffffffffffffffffffffffff167f5229a5dba83a54ae8cb5b51bdd6de9474cacbe9dd332f5185f3a4f4f2e3f4ad98b8b8660405180806020018060200180602001848103845287818151815260200191508051906020019080838360005b83811015613650578181015183820152602001613638565b50505050905090810190601f16801561367d5780820380516001836020036101000a031916815260200191505b50848103835286518152865160209182019188019080838360005b838110156136b0578181015183820152602001613698565b50505050905090810190601f1680156136dd5780820380516001836020036101000a031916815260200191505b50848103825285518152855160209182019187019080838360005b838110156137105781810151838201526020016136f8565b50505050905090810190601f16801561373d5780820380516001836020036101000a031916815260200191505b50965050505050505060405180910390a28296508173ffffffffffffffffffffffffffffffffffffffff16613770611f0f565b73ffffffffffffffffffffffffffffffffffffffff16146040805190810160405280601f81526020017f45564d52554e5f50524f5445435445445f53544154455f4d4f44494649454400815250901515613826576040517f08c379a0000000000000000000000000000000000000000000000000000000008152600401808060200182810382528381815181526020019150805190602001908083836000838110156109b457818101518382015260200161099c565b5080613830611865565b60408051808201909152601f81527f45564d52554e5f50524f5445435445445f53544154455f4d4f44494649454400602082015291146138cc576040517f08c379a0000000000000000000000000000000000000000000000000000000008152600401808060200182810382528381815181526020019150805190602001908083836000838110156109b457818101518382015260200161099c565b505050505050509392505050565b604080516001808252818301909252606091602080830190803883390190505090508181600081518110151561390c57fe5b60209081029091010152919050565b6000600182600281111561392b57fe5b14156139a757600083600181111561393f57fe5b141561396c57507f4ee2cd7e00000000000000000000000000000000000000000000000000000000611822565b600183600181111561397a57fe5b14156139a757507f981b24d000000000000000000000000000000000000000000000000000000000611822565b60028260028111156139b557fe5b1415613a315760008360018111156139c957fe5b14156139f657507fede3842100000000000000000000000000000000000000000000000000000000611822565b6001836001811115613a0457fe5b1415613a3157507fc9c5323200000000000000000000000000000000000000000000000000000000611822565b604080518082018252601b81527f56415f494e56414c49445f43414c4c5f4f525f53454c4543544f520000000000602080830191825292517f08c379a0000000000000000000000000000000000000000000000000000000008152600481019384528251602482015282519293928392604490920191908083836000838110156109b457818101518382015260200161099c565b6000806000806040516020818751602089018a5afa92506000831115613aea57805191505b50909590945092505050565b60408051808201909152601581527f55494e5436345f4e554d4245525f544f4f5f4249470000000000000000000000602082015260009067ffffffffffffffff831115612bdd576040517f08c379a0000000000000000000000000000000000000000000000000000000008152600401808060200182810382528381815181526020019150805190602001908083836000838110156109b457818101518382015260200161099c565b9055565b600061181f8383613d70565b600080831515613bc25760009150613c76565b50828202828482811515613bd257fe5b60408051808201909152601181527f4d4154485f4d554c5f4f564552464c4f5700000000000000000000000000000060208201529291900414613c71576040517f08c379a0000000000000000000000000000000000000000000000000000000008152600401808060200182810382528381815181526020019150805190602001908083836000838110156109b457818101518382015260200161099c565b508091505b5092915050565b60408051808201909152601181527f4d4154485f4144445f4f564552464c4f5700000000000000000000000000000060208201526000908383019084821015613c71576040517f08c379a0000000000000000000000000000000000000000000000000000000008152600401808060200182810382528381815181526020019150805190602001908083836000838110156109b457818101518382015260200161099c565b6000806040516020818551602087016000895af16000811115613d66573d8015613d535760208114613d5c57613d64565b60019350613d64565b600183511493505b505b5090949350505050565b815460009081808080808080871515613d8c5760009850613f31565b8a54600019890197508b9088908110613da157fe5b6000918252602090912001805490965067ffffffffffffffff908116908b1610613df457855468010000000000000000900477ffffffffffffffffffffffffffffffffffffffffffffffff169850613f31565b8760011480613e2a57508a548b906000908110613e0d57fe5b60009182526020909120015467ffffffffffffffff908116908b16105b15613e385760009850613f31565b600094506001870393505b84841115613eee578a5460028686016001010493508b9084908110613e6457fe5b6000918252602090912001805490925067ffffffffffffffff90811691508a16811015613e9357829450613ee9565b8067ffffffffffffffff168a67ffffffffffffffff161015613eba57600183039350613ee9565b815468010000000000000000900477ffffffffffffffffffffffffffffffffffffffffffffffff169850613f31565b613e43565b8a548b9086908110613efc57fe5b60009182526020909120015468010000000000000000900477ffffffffffffffffffffffffffffffffffffffffffffffff1698505b505050505050505092915050565b828054600181600116156101000203166002900490600052602060002090601f016020900481019282601f10613f9e578280017fffffffffffffffffffffffffffffffffffffffffffffffffffffffffffffff00823516178555613fcb565b82800160010185558215613fcb579182015b82811115613fcb578235825591602001919060010190613fb0565b5061091e926110939250905b8082111561091e5760008155600101613fd75600a165627a7a72305820826a32dd1f9df3c5ae78035d2f6de4e328a0ccb7ab8d287103c7654822058eb00029ebb05b386a8d34882b8711d156f463690983dc47815980fb82aeeff1aa43579e",
  "source": "/*\n * SPDX-License-Identitifer:    GPL-3.0-or-later\n */\n\npragma solidity 0.4.24;\n\nimport \"@aragon/os/contracts/apps/AragonApp.sol\";\nimport \"@aragon/os/contracts/common/IForwarder.sol\";\nimport \"@aragon/os/contracts/common/IsContract.sol\";\nimport \"@aragon/os/contracts/lib/math/SafeMath.sol\";\nimport \"@aragon/os/contracts/lib/token/ERC20.sol\";\n\nimport \"@aragonone/voting-connectors-contract-utils/contracts/Checkpointing.sol\";\nimport \"@aragonone/voting-connectors-contract-utils/contracts/CheckpointingHelpers.sol\";\nimport \"@aragonone/voting-connectors-contract-utils/contracts/ERC20ViewOnly.sol\";\nimport \"@aragonone/voting-connectors-contract-utils/contracts/StaticInvoke.sol\";\nimport \"@aragonone/voting-connectors-contract-utils/contracts/interfaces/IERC20WithCheckpointing.sol\";\n\nimport \"./interfaces/IERC900History.sol\";\n\n/**\n * @title VotingAggregator\n * @notice Voting power aggregator across many sources that provides a \"view-only\" checkpointed\n *         ERC20 implementation.\n */\ncontract VotingAggregator is IERC20WithCheckpointing, IForwarder, IsContract, ERC20ViewOnly, AragonApp {\n    using SafeMath for uint256;\n    using StaticInvoke for address;\n    using Checkpointing for Checkpointing.History;\n    using CheckpointingHelpers for uint256;\n\n    /* Hardcoded constants to save gas\n    bytes32 public constant ADD_POWER_SOURCE_ROLE = keccak256(\"ADD_POWER_SOURCE_ROLE\");\n    bytes32 public constant MANAGE_POWER_SOURCE_ROLE = keccak256(\"MANAGE_POWER_SOURCE_ROLE\");\n    bytes32 public constant MANAGE_WEIGHTS_ROLE = keccak256(\"MANAGE_WEIGHTS_ROLE\");\n    */\n    bytes32 public constant ADD_POWER_SOURCE_ROLE = 0x10f7c4af0b190fdd7eb73fa36b0e280d48dc6b8d355f89769b4f1a50a61d1929;\n    bytes32 public constant MANAGE_POWER_SOURCE_ROLE = 0x79ac9d2706bbe6bcdb60a65ba8145a498f6d506aaa455baa7675dff5779cb99f;\n    bytes32 public constant MANAGE_WEIGHTS_ROLE = 0xa36fcade8375289791865312a33263fdc82d07e097c13524c9d6436c0de396ff;\n\n    // Arbitrary number, but having anything close to this number would most likely be unwieldy.\n    // Note the primary protection this provides is to ensure that one cannot continue adding\n    // sources to break gas limits even with all sources disabled.\n    uint256 internal constant MAX_SOURCES = 20;\n    uint192 internal constant SOURCE_ENABLED_VALUE = 1;\n    uint192 internal constant SOURCE_DISABLED_VALUE = 0;\n\n    string private constant ERROR_NO_POWER_SOURCE = \"VA_NO_POWER_SOURCE\";\n    string private constant ERROR_POWER_SOURCE_TYPE_INVALID = \"VA_POWER_SOURCE_TYPE_INVALID\";\n    string private constant ERROR_POWER_SOURCE_INVALID = \"VA_POWER_SOURCE_INVALID\";\n    string private constant ERROR_POWER_SOURCE_ALREADY_ADDED = \"VA_POWER_SOURCE_ALREADY_ADDED\";\n    string private constant ERROR_TOO_MANY_POWER_SOURCES = \"VA_TOO_MANY_POWER_SOURCES\";\n    string private constant ERROR_ZERO_WEIGHT = \"VA_ZERO_WEIGHT\";\n    string private constant ERROR_SAME_WEIGHT = \"VA_SAME_WEIGHT\";\n    string private constant ERROR_SOURCE_NOT_ENABLED = \"VA_SOURCE_NOT_ENABLED\";\n    string private constant ERROR_SOURCE_NOT_DISABLED = \"VA_SOURCE_NOT_DISABLED\";\n    string private constant ERROR_CAN_NOT_FORWARD = \"VA_CAN_NOT_FORWARD\";\n    string private constant ERROR_SOURCE_CALL_FAILED = \"VA_SOURCE_CALL_FAILED\";\n    string private constant ERROR_INVALID_CALL_OR_SELECTOR = \"VA_INVALID_CALL_OR_SELECTOR\";\n\n    enum PowerSourceType {\n        Invalid,\n        ERC20WithCheckpointing,\n        ERC900\n    }\n\n    enum CallType {\n        BalanceOfAt,\n        TotalSupplyAt\n    }\n\n    struct PowerSource {\n        PowerSourceType sourceType;\n        Checkpointing.History enabledHistory;\n        Checkpointing.History weightHistory;\n    }\n\n    string public name;\n    string public symbol;\n    uint8 public decimals;\n\n    mapping (address => PowerSource) internal powerSourceDetails;\n    address[] public powerSources;\n\n    event AddPowerSource(address indexed sourceAddress, PowerSourceType sourceType, uint256 weight);\n    event ChangePowerSourceWeight(address indexed sourceAddress, uint256 newWeight);\n    event DisablePowerSource(address indexed sourceAddress);\n    event EnablePowerSource(address indexed sourceAddress);\n\n    modifier sourceExists(address _sourceAddr) {\n        require(_powerSourceExists(_sourceAddr), ERROR_NO_POWER_SOURCE);\n        _;\n    }\n\n    /**\n     * @notice Create a new voting power aggregator\n     * @param _name The aggregator's display name\n     * @param _symbol The aggregator's display symbol\n     * @param _decimals The aggregator's display decimal units\n     */\n    function initialize(string _name, string _symbol, uint8 _decimals) external onlyInit {\n        initialized();\n\n        name = _name;\n        symbol = _symbol;\n        decimals = _decimals;\n    }\n\n    /**\n     * @notice Add a new power source (`_sourceAddr`) with `_weight` weight\n     * @param _sourceAddr Address of the power source\n     * @param _sourceType Interface type of the power source\n     * @param _weight Weight to assign to the source\n     */\n    function addPowerSource(address _sourceAddr, PowerSourceType _sourceType, uint256 _weight)\n        external\n        authP(ADD_POWER_SOURCE_ROLE, arr(_sourceAddr, _weight))\n    {\n        // Sanity check arguments\n        require(\n            _sourceType == PowerSourceType.ERC20WithCheckpointing || _sourceType == PowerSourceType.ERC900,\n            ERROR_POWER_SOURCE_TYPE_INVALID\n        );\n        require(_weight > 0, ERROR_ZERO_WEIGHT);\n        require(_sanityCheckSource(_sourceAddr, _sourceType), ERROR_POWER_SOURCE_INVALID);\n\n        // Ensure internal consistency\n        require(!_powerSourceExists(_sourceAddr), ERROR_POWER_SOURCE_ALREADY_ADDED);\n        require(powerSources.length < MAX_SOURCES, ERROR_TOO_MANY_POWER_SOURCES);\n\n        // Add source\n        powerSources.push(_sourceAddr);\n\n        PowerSource storage source = powerSourceDetails[_sourceAddr];\n        source.sourceType = _sourceType;\n\n        // Start enabled and weight history\n        source.enabledHistory.addCheckpoint(getBlockNumber64(), SOURCE_ENABLED_VALUE);\n        source.weightHistory.addCheckpoint(getBlockNumber64(), _weight.toUint192Value());\n\n        emit AddPowerSource(_sourceAddr, _sourceType, _weight);\n    }\n\n    /**\n     * @notice Change weight of power source at `_sourceAddr` to `_weight`\n     * @param _sourceAddr Power source's address\n     * @param _weight New weight to assign\n     */\n    function changeSourceWeight(address _sourceAddr, uint256 _weight)\n        external\n        authP(MANAGE_WEIGHTS_ROLE, arr(_weight, powerSourceDetails[_sourceAddr].weightHistory.latestValue()))\n        sourceExists(_sourceAddr)\n    {\n        require(_weight > 0, ERROR_ZERO_WEIGHT);\n\n        Checkpointing.History storage weightHistory = powerSourceDetails[_sourceAddr].weightHistory;\n        require(weightHistory.latestValue() != _weight, ERROR_SAME_WEIGHT);\n\n        weightHistory.addCheckpoint(getBlockNumber64(), _weight.toUint192Value());\n\n        emit ChangePowerSourceWeight(_sourceAddr, _weight);\n    }\n\n    /**\n     * @notice Disable power source at `_sourceAddr`\n     * @param _sourceAddr Power source's address\n     */\n    function disableSource(address _sourceAddr)\n        external\n        authP(MANAGE_POWER_SOURCE_ROLE, arr(uint256(0)))\n        sourceExists(_sourceAddr)\n    {\n        Checkpointing.History storage enabledHistory = powerSourceDetails[_sourceAddr].enabledHistory;\n        require(\n            enabledHistory.latestValue() == uint256(SOURCE_ENABLED_VALUE),\n            ERROR_SOURCE_NOT_ENABLED\n        );\n\n        enabledHistory.addCheckpoint(getBlockNumber64(), SOURCE_DISABLED_VALUE);\n\n        emit DisablePowerSource(_sourceAddr);\n    }\n\n    /**\n     * @notice Enable power source at `_sourceAddr`\n     * @param _sourceAddr Power source's address\n     */\n    function enableSource(address _sourceAddr)\n        external\n        sourceExists(_sourceAddr)\n        authP(MANAGE_POWER_SOURCE_ROLE, arr(uint256(1)))\n    {\n        Checkpointing.History storage enabledHistory = powerSourceDetails[_sourceAddr].enabledHistory;\n        require(\n            enabledHistory.latestValue() == uint256(SOURCE_DISABLED_VALUE),\n            ERROR_SOURCE_NOT_DISABLED\n        );\n\n        enabledHistory.addCheckpoint(getBlockNumber64(), SOURCE_ENABLED_VALUE);\n\n        emit EnablePowerSource(_sourceAddr);\n    }\n\n    // ERC20 fns - note that this token is a non-transferrable \"view-only\" implementation.\n    // Users should only be changing balances by changing their balances in the underlying tokens.\n    // These functions do **NOT** revert if the app is uninitialized to stay compatible with normal ERC20s.\n\n    function balanceOf(address _owner) public view returns (uint256) {\n        return balanceOfAt(_owner, getBlockNumber());\n    }\n\n    function totalSupply() public view returns (uint256) {\n        return totalSupplyAt(getBlockNumber());\n    }\n\n    // Checkpointed fns\n    // These functions do **NOT** revert if the app is uninitialized to stay compatible with normal ERC20s.\n\n    function balanceOfAt(address _owner, uint256 _blockNumber) public view returns (uint256) {\n        return _aggregateAt(_blockNumber, CallType.BalanceOfAt, abi.encode(_owner, _blockNumber));\n    }\n\n    function totalSupplyAt(uint256 _blockNumber) public view returns (uint256) {\n        return _aggregateAt(_blockNumber, CallType.TotalSupplyAt, abi.encode(_blockNumber));\n    }\n\n    // Forwarding fns\n\n    /**\n    * @notice Tells whether the VotingAggregator app is a forwarder or not\n    * @dev IForwarder interface conformance\n    * @return Always true\n    */\n    function isForwarder() public pure returns (bool) {\n        return true;\n    }\n\n    /**\n     * @notice Execute desired action if you have voting power\n     * @dev IForwarder interface conformance\n     * @param _evmScript Script being executed\n     */\n    function forward(bytes _evmScript) public {\n        require(canForward(msg.sender, _evmScript), ERROR_CAN_NOT_FORWARD);\n        bytes memory input = new bytes(0);\n\n        // No blacklist needed as this contract should not hold any tokens from its sources\n        runScript(_evmScript, input, new address[](0));\n    }\n\n    /**\n    * @notice Tells whether `_sender` can forward actions or not\n    * @dev IForwarder interface conformance\n    * @param _sender Address of the account intending to forward an action\n    * @return True if the given address can forward actions, false otherwise\n    */\n    function canForward(address _sender, bytes) public view returns (bool) {\n        return hasInitialized() && balanceOf(_sender) > 0;\n    }\n\n    // Getter fns\n\n    /**\n     * @dev Return information about a power source\n     * @param _sourceAddr Power source's address\n     * @return Power source type\n     * @return Whether power source is enabled\n     * @return Power source weight\n     */\n    function getPowerSourceDetails(address _sourceAddr)\n        public\n        view\n        sourceExists(_sourceAddr)\n        returns (\n            PowerSourceType sourceType,\n            bool enabled,\n            uint256 weight\n        )\n    {\n        PowerSource storage source = powerSourceDetails[_sourceAddr];\n\n        sourceType = source.sourceType;\n        enabled = source.enabledHistory.latestValue() == uint256(SOURCE_ENABLED_VALUE);\n        weight = source.weightHistory.latestValue();\n    }\n\n    /**\n     * @dev Return number of added power sources\n     * @return Number of added power sources\n     */\n    function getPowerSourcesLength() public view isInitialized returns (uint256) {\n        return powerSources.length;\n    }\n\n    // Internal fns\n\n    function _aggregateAt(uint256 _blockNumber, CallType _callType, bytes memory _paramdata) internal view returns (uint256) {\n        uint64 _blockNumberUint64 = _blockNumber.toUint64Time();\n\n        uint256 aggregate = 0;\n        for (uint256 i = 0; i < powerSources.length; i++) {\n            address sourceAddr = powerSources[i];\n            PowerSource storage source = powerSourceDetails[sourceAddr];\n\n            if (source.enabledHistory.getValueAt(_blockNumberUint64) == uint256(SOURCE_ENABLED_VALUE)) {\n                bytes memory invokeData = abi.encodePacked(_selectorFor(_callType, source.sourceType), _paramdata);\n                (bool success, uint256 value) = sourceAddr.staticInvoke(invokeData);\n                require(success, ERROR_SOURCE_CALL_FAILED);\n\n                uint256 weight = source.weightHistory.getValueAt(_blockNumberUint64);\n                aggregate = aggregate.add(weight.mul(value));\n            }\n        }\n\n        return aggregate;\n    }\n\n    function _powerSourceExists(address _sourceAddr) internal view returns (bool) {\n        // All attached power sources must have a valid source type\n        return powerSourceDetails[_sourceAddr].sourceType != PowerSourceType.Invalid;\n    }\n\n    function _selectorFor(CallType _callType, PowerSourceType _sourceType) internal pure returns (bytes4) {\n        if (_sourceType == PowerSourceType.ERC20WithCheckpointing) {\n            if (_callType == CallType.BalanceOfAt) {\n                return IERC20WithCheckpointing(0).balanceOfAt.selector;\n            }\n            if (_callType == CallType.TotalSupplyAt) {\n                return IERC20WithCheckpointing(0).totalSupplyAt.selector;\n            }\n        }\n\n        if (_sourceType == PowerSourceType.ERC900) {\n            if (_callType == CallType.BalanceOfAt) {\n                return IERC900History(0).totalStakedForAt.selector;\n            }\n            if (_callType == CallType.TotalSupplyAt) {\n                return IERC900History(0).totalStakedAt.selector;\n            }\n        }\n\n        revert(ERROR_INVALID_CALL_OR_SELECTOR);\n    }\n\n    // Private functions\n    function _sanityCheckSource(address _sourceAddr, PowerSourceType _sourceType) private view returns (bool) {\n        if (!isContract(_sourceAddr)) {\n            return false;\n        }\n\n        // Sanity check that the source and its declared type work for at least the current block\n        bytes memory balanceOfCalldata = abi.encodePacked(\n            _selectorFor(CallType.BalanceOfAt, _sourceType),\n            abi.encode(this, getBlockNumber())\n        );\n        (bool balanceOfSuccess,) = _sourceAddr.staticInvoke(balanceOfCalldata);\n\n        bytes memory totalSupplyCalldata = abi.encodePacked(\n            _selectorFor(CallType.TotalSupplyAt, _sourceType),\n            abi.encode(getBlockNumber())\n        );\n        (bool totalSupplySuccess,) = _sourceAddr.staticInvoke(totalSupplyCalldata);\n\n        return balanceOfSuccess && totalSupplySuccess;\n    }\n}\n",
  "sourcePath": "/home/bingen/workspace/voting-connectors/apps/voting-aggregator/contracts/VotingAggregator.sol",
  "compiler": {
    "name": "solc",
    "version": "0.4.24+commit.e67f0147.Emscripten.clang"
  },
  "schemaVersion": "3.0.19",
  "updatedAt": "2020-09-12T07:24:59.700Z",
  "devdoc": {
    "methods": {
      "addPowerSource(address,uint8,uint256)": {
        "params": {
          "_sourceAddr": "Address of the power source",
          "_sourceType": "Interface type of the power source",
          "_weight": "Weight to assign to the source"
        }
      },
      "allowRecoverability(address)": {
        "details": "By default deriving from AragonApp makes it recoverable",
        "params": {
          "token": "Token address that would be recovered"
        },
        "return": "bool whether the app allows the recovery"
      },
      "canForward(address,bytes)": {
        "details": "IForwarder interface conformance",
        "params": {
          "_sender": "Address of the account intending to forward an action"
        },
        "return": "True if the given address can forward actions, false otherwise"
      },
      "canPerform(address,bytes32,uint256[])": {
        "details": "Check whether an action can be performed by a sender for a particular role on this app",
        "params": {
          "_params": "Permission params for the role",
          "_role": "Role on this app",
          "_sender": "Sender of the call"
        },
        "return": "Boolean indicating whether the sender has the permissions to perform the action.        Always returns false if the app hasn't been initialized yet."
      },
      "changeSourceWeight(address,uint256)": {
        "params": {
          "_sourceAddr": "Power source's address",
          "_weight": "New weight to assign"
        }
      },
      "disableSource(address)": {
        "params": {
          "_sourceAddr": "Power source's address"
        }
      },
      "enableSource(address)": {
        "params": {
          "_sourceAddr": "Power source's address"
        }
      },
      "forward(bytes)": {
        "details": "IForwarder interface conformance",
        "params": {
          "_evmScript": "Script being executed"
        }
      },
      "getInitializationBlock()": {
        "return": "Block number in which the contract was initialized"
      },
      "getPowerSourceDetails(address)": {
        "details": "Return information about a power source",
        "params": {
          "_sourceAddr": "Power source's address"
        },
        "return": "Power source typeWhether power source is enabledPower source weight"
      },
      "getPowerSourcesLength()": {
        "details": "Return number of added power sources",
        "return": "Number of added power sources"
      },
      "getRecoveryVault()": {
        "details": "Get the recovery vault for the app",
        "return": "Recovery vault address for the app"
      },
      "hasInitialized()": {
        "return": "Whether the contract has been initialized by the time of the current block"
      },
      "initialize(string,string,uint8)": {
        "params": {
          "_decimals": "The aggregator's display decimal units",
          "_name": "The aggregator's display name",
          "_symbol": "The aggregator's display symbol"
        }
      },
      "isForwarder()": {
        "details": "IForwarder interface conformance",
        "return": "Always true"
      },
      "transferToVault(address)": {
        "params": {
          "_token": "Token balance to be sent to recovery vault."
        }
      }
    },
    "title": "VotingAggregator"
  },
  "userdoc": {
    "methods": {
      "addPowerSource(address,uint8,uint256)": {
        "notice": "Add a new power source (`_sourceAddr`) with `_weight` weight"
      },
      "canForward(address,bytes)": {
        "notice": "Tells whether `_sender` can forward actions or not"
      },
      "changeSourceWeight(address,uint256)": {
        "notice": "Change weight of power source at `_sourceAddr` to `_weight`"
      },
      "disableSource(address)": {
        "notice": "Disable power source at `_sourceAddr`"
      },
      "enableSource(address)": {
        "notice": "Enable power source at `_sourceAddr`"
      },
      "forward(bytes)": {
        "notice": "Execute desired action if you have voting power"
      },
      "initialize(string,string,uint8)": {
        "notice": "Create a new voting power aggregator"
      },
      "isForwarder()": {
        "notice": "Tells whether the VotingAggregator app is a forwarder or not"
      },
      "transferToVault(address)": {
        "notice": "Send funds to recovery Vault. This contract should never receive funds,        but in case it does, this function allows one to recover them."
      }
    }
  }
}