{
  "contractName": "AragonCourt",
  "abi": [
    {
      "constant": true,
      "inputs": [],
      "name": "getCurrentTermId",
      "outputs": [
        {
          "name": "",
          "type": "uint64"
        }
      ],
      "payable": false,
      "stateMutability": "view",
      "type": "function"
    },
    {
      "constant": true,
      "inputs": [],
      "name": "getVoting",
      "outputs": [
        {
          "name": "",
          "type": "address"
        }
      ],
      "payable": false,
      "stateMutability": "view",
      "type": "function"
    },
    {
      "constant": true,
      "inputs": [],
      "name": "getTermDuration",
      "outputs": [
        {
          "name": "",
          "type": "uint64"
        }
      ],
      "payable": false,
      "stateMutability": "view",
      "type": "function"
    },
    {
      "constant": false,
      "inputs": [
        {
          "name": "_ids",
          "type": "bytes32[]"
        },
        {
          "name": "_addresses",
          "type": "address[]"
        }
      ],
      "name": "setModules",
      "outputs": [],
      "payable": false,
      "stateMutability": "nonpayable",
      "type": "function"
    },
    {
      "constant": true,
      "inputs": [
        {
          "name": "_holder",
          "type": "address"
        }
      ],
      "name": "areWithdrawalsAllowedFor",
      "outputs": [
        {
          "name": "",
          "type": "bool"
        }
      ],
      "payable": false,
      "stateMutability": "view",
      "type": "function"
    },
    {
      "constant": true,
      "inputs": [],
      "name": "getTreasury",
      "outputs": [
        {
          "name": "",
          "type": "address"
        }
      ],
      "payable": false,
      "stateMutability": "view",
      "type": "function"
    },
    {
      "constant": true,
      "inputs": [],
      "name": "getSubscriptions",
      "outputs": [
        {
          "name": "",
          "type": "address"
        }
      ],
      "payable": false,
      "stateMutability": "view",
      "type": "function"
    },
    {
      "constant": true,
      "inputs": [],
      "name": "getFundsGovernor",
      "outputs": [
        {
          "name": "",
          "type": "address"
        }
      ],
      "payable": false,
      "stateMutability": "view",
      "type": "function"
    },
    {
      "constant": false,
      "inputs": [],
      "name": "ensureCurrentTerm",
      "outputs": [
        {
          "name": "",
          "type": "uint64"
        }
      ],
      "payable": false,
      "stateMutability": "nonpayable",
      "type": "function"
    },
    {
      "constant": true,
      "inputs": [],
      "name": "getModulesGovernor",
      "outputs": [
        {
          "name": "",
          "type": "address"
        }
      ],
      "payable": false,
      "stateMutability": "view",
      "type": "function"
    },
    {
      "constant": true,
      "inputs": [],
      "name": "getNeededTermTransitions",
      "outputs": [
        {
          "name": "",
          "type": "uint64"
        }
      ],
      "payable": false,
      "stateMutability": "view",
      "type": "function"
    },
    {
      "constant": false,
      "inputs": [
        {
          "name": "_id",
          "type": "bytes32"
        },
        {
          "name": "_addr",
          "type": "address"
        }
      ],
      "name": "setModule",
      "outputs": [],
      "payable": false,
      "stateMutability": "nonpayable",
      "type": "function"
    },
    {
      "constant": true,
      "inputs": [
        {
          "name": "_termId",
          "type": "uint64"
        }
      ],
      "name": "getTermRandomness",
      "outputs": [
        {
          "name": "",
          "type": "bytes32"
        }
      ],
      "payable": false,
      "stateMutability": "view",
      "type": "function"
    },
    {
      "constant": true,
      "inputs": [
        {
          "name": "_termId",
          "type": "uint64"
        }
      ],
      "name": "getDraftConfig",
      "outputs": [
        {
          "name": "feeToken",
          "type": "address"
        },
        {
          "name": "draftFee",
          "type": "uint256"
        },
        {
          "name": "penaltyPct",
          "type": "uint16"
        }
      ],
      "payable": false,
      "stateMutability": "view",
      "type": "function"
    },
    {
      "constant": true,
      "inputs": [],
      "name": "getConfigChangeTermId",
      "outputs": [
        {
          "name": "",
          "type": "uint64"
        }
      ],
      "payable": false,
      "stateMutability": "view",
      "type": "function"
    },
    {
      "constant": false,
      "inputs": [],
      "name": "ensureCurrentTermRandomness",
      "outputs": [
        {
          "name": "",
          "type": "bytes32"
        }
      ],
      "payable": false,
      "stateMutability": "nonpayable",
      "type": "function"
    },
    {
      "constant": false,
      "inputs": [
        {
          "name": "_allowed",
          "type": "bool"
        }
      ],
      "name": "setAutomaticWithdrawals",
      "outputs": [],
      "payable": false,
      "stateMutability": "nonpayable",
      "type": "function"
    },
    {
      "constant": true,
      "inputs": [
        {
          "name": "_id",
          "type": "bytes32"
        }
      ],
      "name": "getModule",
      "outputs": [
        {
          "name": "",
          "type": "address"
        }
      ],
      "payable": false,
      "stateMutability": "view",
      "type": "function"
    },
    {
      "constant": false,
      "inputs": [],
      "name": "ejectModulesGovernor",
      "outputs": [],
      "payable": false,
      "stateMutability": "nonpayable",
      "type": "function"
    },
    {
      "constant": false,
      "inputs": [
        {
          "name": "_newFundsGovernor",
          "type": "address"
        }
      ],
      "name": "changeFundsGovernor",
      "outputs": [],
      "payable": false,
      "stateMutability": "nonpayable",
      "type": "function"
    },
    {
      "constant": true,
      "inputs": [],
      "name": "getJurorsRegistry",
      "outputs": [
        {
          "name": "",
          "type": "address"
        }
      ],
      "payable": false,
      "stateMutability": "view",
      "type": "function"
    },
    {
      "constant": true,
      "inputs": [
        {
          "name": "_termId",
          "type": "uint64"
        }
      ],
      "name": "getMinActiveBalance",
      "outputs": [
        {
          "name": "",
          "type": "uint256"
        }
      ],
      "payable": false,
      "stateMutability": "view",
      "type": "function"
    },
    {
      "constant": true,
      "inputs": [],
      "name": "getConfigGovernor",
      "outputs": [
        {
          "name": "",
          "type": "address"
        }
      ],
      "payable": false,
      "stateMutability": "view",
      "type": "function"
    },
    {
      "constant": false,
      "inputs": [
        {
          "name": "_maxRequestedTransitions",
          "type": "uint64"
        }
      ],
      "name": "heartbeat",
      "outputs": [
        {
          "name": "",
          "type": "uint64"
        }
      ],
      "payable": false,
      "stateMutability": "nonpayable",
      "type": "function"
    },
    {
      "constant": false,
      "inputs": [
        {
          "name": "_fromTermId",
          "type": "uint64"
        },
        {
          "name": "_feeToken",
          "type": "address"
        },
        {
          "name": "_fees",
          "type": "uint256[3]"
        },
        {
          "name": "_roundStateDurations",
          "type": "uint64[5]"
        },
        {
          "name": "_pcts",
          "type": "uint16[2]"
        },
        {
          "name": "_roundParams",
          "type": "uint64[4]"
        },
        {
          "name": "_appealCollateralParams",
          "type": "uint256[2]"
        },
        {
          "name": "_minActiveBalance",
          "type": "uint256"
        }
      ],
      "name": "setConfig",
      "outputs": [],
      "payable": false,
      "stateMutability": "nonpayable",
      "type": "function"
    },
    {
      "constant": false,
      "inputs": [],
      "name": "ejectFundsGovernor",
      "outputs": [],
      "payable": false,
      "stateMutability": "nonpayable",
      "type": "function"
    },
    {
      "constant": false,
      "inputs": [
        {
          "name": "_newModulesGovernor",
          "type": "address"
        }
      ],
      "name": "changeModulesGovernor",
      "outputs": [],
      "payable": false,
      "stateMutability": "nonpayable",
      "type": "function"
    },
    {
      "constant": false,
      "inputs": [
        {
          "name": "_newConfigGovernor",
          "type": "address"
        }
      ],
      "name": "changeConfigGovernor",
      "outputs": [],
      "payable": false,
      "stateMutability": "nonpayable",
      "type": "function"
    },
    {
      "constant": true,
      "inputs": [],
      "name": "getDisputeManager",
      "outputs": [
        {
          "name": "",
          "type": "address"
        }
      ],
      "payable": false,
      "stateMutability": "view",
      "type": "function"
    },
    {
      "constant": true,
      "inputs": [
        {
          "name": "_termId",
          "type": "uint64"
        }
      ],
      "name": "getConfig",
      "outputs": [
        {
          "name": "feeToken",
          "type": "address"
        },
        {
          "name": "fees",
          "type": "uint256[3]"
        },
        {
          "name": "roundStateDurations",
          "type": "uint64[5]"
        },
        {
          "name": "pcts",
          "type": "uint16[2]"
        },
        {
          "name": "roundParams",
          "type": "uint64[4]"
        },
        {
          "name": "appealCollateralParams",
          "type": "uint256[2]"
        },
        {
          "name": "minActiveBalance",
          "type": "uint256"
        }
      ],
      "payable": false,
      "stateMutability": "view",
      "type": "function"
    },
    {
      "constant": false,
      "inputs": [
        {
          "name": "_newFirstTermStartTime",
          "type": "uint64"
        }
      ],
      "name": "delayStartTime",
      "outputs": [],
      "payable": false,
      "stateMutability": "nonpayable",
      "type": "function"
    },
    {
      "constant": true,
      "inputs": [
        {
          "name": "_termId",
          "type": "uint64"
        }
      ],
      "name": "getTerm",
      "outputs": [
        {
          "name": "startTime",
          "type": "uint64"
        },
        {
          "name": "randomnessBN",
          "type": "uint64"
        },
        {
          "name": "randomness",
          "type": "bytes32"
        }
      ],
      "payable": false,
      "stateMutability": "view",
      "type": "function"
    },
    {
      "constant": true,
      "inputs": [],
      "name": "getLastEnsuredTermId",
      "outputs": [
        {
          "name": "",
          "type": "uint64"
        }
      ],
      "payable": false,
      "stateMutability": "view",
      "type": "function"
    },
    {
      "inputs": [
        {
          "name": "_termParams",
          "type": "uint64[2]"
        },
        {
          "name": "_governors",
          "type": "address[3]"
        },
        {
          "name": "_feeToken",
          "type": "address"
        },
        {
          "name": "_fees",
          "type": "uint256[3]"
        },
        {
          "name": "_roundStateDurations",
          "type": "uint64[5]"
        },
        {
          "name": "_pcts",
          "type": "uint16[2]"
        },
        {
          "name": "_roundParams",
          "type": "uint64[4]"
        },
        {
          "name": "_appealCollateralParams",
          "type": "uint256[2]"
        },
        {
          "name": "_minActiveBalance",
          "type": "uint256"
        }
      ],
      "payable": false,
      "stateMutability": "nonpayable",
      "type": "constructor"
    },
    {
      "anonymous": false,
      "inputs": [
        {
          "indexed": false,
          "name": "id",
          "type": "bytes32"
        },
        {
          "indexed": false,
          "name": "addr",
          "type": "address"
        }
      ],
      "name": "ModuleSet",
      "type": "event"
    },
    {
      "anonymous": false,
      "inputs": [
        {
          "indexed": false,
          "name": "previousGovernor",
          "type": "address"
        },
        {
          "indexed": false,
          "name": "currentGovernor",
          "type": "address"
        }
      ],
      "name": "FundsGovernorChanged",
      "type": "event"
    },
    {
      "anonymous": false,
      "inputs": [
        {
          "indexed": false,
          "name": "previousGovernor",
          "type": "address"
        },
        {
          "indexed": false,
          "name": "currentGovernor",
          "type": "address"
        }
      ],
      "name": "ConfigGovernorChanged",
      "type": "event"
    },
    {
      "anonymous": false,
      "inputs": [
        {
          "indexed": false,
          "name": "previousGovernor",
          "type": "address"
        },
        {
          "indexed": false,
          "name": "currentGovernor",
          "type": "address"
        }
      ],
      "name": "ModulesGovernorChanged",
      "type": "event"
    },
    {
      "anonymous": false,
      "inputs": [
        {
          "indexed": false,
          "name": "fromTermId",
          "type": "uint64"
        },
        {
          "indexed": false,
          "name": "courtConfigId",
          "type": "uint64"
        }
      ],
      "name": "NewConfig",
      "type": "event"
    },
    {
      "anonymous": false,
      "inputs": [
        {
          "indexed": true,
          "name": "holder",
          "type": "address"
        },
        {
          "indexed": false,
          "name": "allowed",
          "type": "bool"
        }
      ],
      "name": "AutomaticWithdrawalsAllowedChanged",
      "type": "event"
    },
    {
      "anonymous": false,
      "inputs": [
        {
          "indexed": false,
          "name": "previousTermId",
          "type": "uint64"
        },
        {
          "indexed": false,
          "name": "currentTermId",
          "type": "uint64"
        }
      ],
      "name": "Heartbeat",
      "type": "event"
    },
    {
      "anonymous": false,
      "inputs": [
        {
          "indexed": false,
          "name": "previousStartTime",
          "type": "uint64"
        },
        {
          "indexed": false,
          "name": "currentStartTime",
          "type": "uint64"
        }
      ],
      "name": "StartTimeDelayed",
      "type": "event"
    },
    {
      "constant": false,
      "inputs": [
        {
          "name": "_possibleRulings",
          "type": "uint256"
        },
        {
          "name": "_metadata",
          "type": "bytes"
        }
      ],
      "name": "createDispute",
      "outputs": [
        {
          "name": "",
          "type": "uint256"
        }
      ],
      "payable": false,
      "stateMutability": "nonpayable",
      "type": "function"
    },
    {
      "constant": false,
      "inputs": [
        {
          "name": "_disputeId",
          "type": "uint256"
        }
      ],
      "name": "closeEvidencePeriod",
      "outputs": [],
      "payable": false,
      "stateMutability": "nonpayable",
      "type": "function"
    },
    {
      "constant": false,
      "inputs": [
        {
          "name": "_disputeId",
          "type": "uint256"
        }
      ],
      "name": "executeRuling",
      "outputs": [],
      "payable": false,
      "stateMutability": "nonpayable",
      "type": "function"
    },
    {
      "constant": true,
      "inputs": [],
      "name": "getDisputeFees",
      "outputs": [
        {
          "name": "recipient",
          "type": "address"
        },
        {
          "name": "feeToken",
          "type": "address"
        },
        {
          "name": "feeAmount",
          "type": "uint256"
        }
      ],
      "payable": false,
      "stateMutability": "view",
      "type": "function"
    },
    {
      "constant": true,
      "inputs": [
        {
          "name": "_subscriber",
          "type": "address"
        }
      ],
      "name": "getSubscriptionFees",
      "outputs": [
        {
          "name": "recipient",
          "type": "address"
        },
        {
          "name": "feeToken",
          "type": "address"
        },
        {
          "name": "feeAmount",
          "type": "uint256"
        }
      ],
      "payable": false,
      "stateMutability": "view",
      "type": "function"
    }
  ],
  "bytecode": "0x60806040523480156200001157600080fd5b506040516102e08062004cbd83398101806040526102e08110156200003557600080fd5b5060a08101516102c082015160408301919060c08401906101208501906101c0860190610200870190610280880190888888888888888888868686868686868f60008181602002015190506000826001602002015190506301e133806001600160401b0316826001600160401b0316106040518060400160405280601a81526020017f434c4b5f5445524d5f4455524154494f4e5f544f4f5f4c4f4e470000000000008152509062000182576040517f08c379a00000000000000000000000000000000000000000000000000000000081526004018080602001828103825283818151815260200191508051906020019080838360005b83811015620001465781810151838201526020016200012c565b50505050905090810190601f168015620001745780820380516001836020036101000a031916815260200191505b509250505060405180910390fd5b5081620001946200040e60201b60201c565b016001600160401b0316816001600160401b031610156040518060400160405280601d81526020017f434c4b5f4241445f46495253545f5445524d5f53544152545f54494d450000008152509062000249576040517f08c379a0000000000000000000000000000000000000000000000000000000008152602060048201818152835160248401528351909283926044909101919085019080838360008315620001465781810151838201526020016200012c565b506301e13380600202620002626200040e60201b60201c565b016001600160401b0316816001600160401b031611156040518060400160405280601d81526020017f434c4b5f4241445f46495253545f5445524d5f53544152545f54494d450000008152509062000317576040517f08c379a0000000000000000000000000000000000000000000000000000000008152602060048201818152835160248401528351909283926044909101919085019080838360008315620001465781810151838201526020016200012c565b50600080546001600160401b038085166001600160401b0319928316178355918052600160208190527fa6eef7e35abe7026729641147f7915573c7e97b47efa546f5f6e3230263bcb4980549590940390921693169290921790559050620003816003826200122d565b506200039c600080898989898989896200043b60201b60201c565b50505050505050620003c688600060038110620003b557fe5b60200201516200102b60201b60201c565b620003de88600160200201516200109560201b60201c565b620003f68860026020020151620010ff60201b60201c565b50505050505050505050505050505050505062001300565b600062000435620004246200116960201b60201c565b6200116d60201b620035e01760201c565b90505b90565b6001600160401b0389161580620004635750886001600160401b0316886001600160401b0316115b6040518060400160405280601181526020017f434f4e465f544f4f5f4f4c445f5445524d0000000000000000000000000000008152509062000502576040517f08c379a0000000000000000000000000000000000000000000000000000000008152602060048201818152835160248401528351909283926044909101919085019080838360008315620001465781810151838201526020016200012c565b50815115801590620005175750602082015115155b6040518060400160405280601b81526020017f434f4e465f5a45524f5f434f4c4c41544552414c5f464143544f52000000000081525090620005b6576040517f08c379a0000000000000000000000000000000000000000000000000000000008152602060048201818152835160248401528351909283926044909101919085019080838360008315620001465781810151838201526020016200012c565b50620005d58460005b60200201516200121e60201b620035cd1760201c565b6040518060400160405280601881526020017f434f4e465f494e56414c49445f50454e414c54595f50435400000000000000008152509062000674576040517f08c379a0000000000000000000000000000000000000000000000000000000008152602060048201818152835160248401528351909283926044909101919085019080838360008315620001465781810151838201526020016200012c565b5062000682846001620005bf565b6040518060400160405280602081526020017f434f4e465f494e56414c49445f46494e414c5f524f554e445f5245445f5043548152509062000721576040517f08c379a0000000000000000000000000000000000000000000000000000000008152602060048201818152835160248401528351909283926044909101919085019080838360008315620001465781810151838201526020016200012c565b50825160408051808201909152601e81527f434f4e465f4241445f494e495449414c5f4a55524f52535f4e554d42455200006020820152906001600160401b0316620007ca576040517f08c379a0000000000000000000000000000000000000000000000000000000008152602060048201818152835160248401528351909283926044909101919085019080838360008315620001465781810151838201526020016200012c565b50600083600160200201516001600160401b0316116040518060400160405280601b81526020017f434f4e465f4241445f41505045414c5f535445505f464143544f520000000000815250906200087e576040517f08c379a0000000000000000000000000000000000000000000000000000000008152602060048201818152835160248401528351909283926044909101919085019080838360008315620001465781810151838201526020016200012c565b5060408301516001600160401b031660008115801590620008a05750600a8211155b9050806040518060400160405280601e81526020017f434f4e465f494e56414c49445f4d41585f41505045414c5f524f554e445300008152509062000942576040517f08c379a0000000000000000000000000000000000000000000000000000000008152602060048201818152835160248401528351909283926044909101919085019080838360008315620001465781810151838201526020016200012c565b5060005b600581101562000a3f5760008882600581106200095f57fe5b60200201516001600160401b03161180156200099657506121de8882600581106200098657fe5b60200201516001600160401b0316105b6040518060400160405280601f81526020017f434f4e465f4c415247455f524f554e445f50484153455f4455524154494f4e008152509062000a35576040517f08c379a0000000000000000000000000000000000000000000000000000000008152602060048201818152835160248401528351909283926044909101919085019080838360008315620001465781810151838201526020016200012c565b5060010162000946565b5060408051808201909152601c81527f434f4e465f5a45524f5f4d494e5f4143544956455f42414c414e43450000000060208201528362000add576040517f08c379a0000000000000000000000000000000000000000000000000000000008152602060048201818152835160248401528351909283926044909101919085019080838360008315620001465781810151838201526020016200012c565b506002546001600160401b03808d169116111562000b16576002546001600160401b031660009081526004602052604081205562000b2c565b600380549062000b2a90600183016200122d565b505b600380546000198101916000916001600160401b03841690811062000b4d57fe5b90600052602060002090600b020190506040518060a001604052808c6001600160a01b031681526020018960016002811062000b8557fe5b602002015161ffff1681526020018b60006003811062000ba157fe5b602002015181526020018b60016003811062000bb957fe5b602002015181526020018b60026003811062000bd157fe5b60209081029190910151909152815183549183015161ffff167401000000000000000000000000000000000000000002600160a01b61ffff02196001600160a01b039092166001600160a01b03199093169290921716178255604080820151600184015560608201516002840155608090910151600383015580516101808101909152808a600060200201516001600160401b031681526020018a60016005811062000c7957fe5b60200201516001600160401b031681526020018a60026005811062000c9a57fe5b60200201516001600160401b031681526020018a60036005811062000cbb57fe5b60200201516001600160401b031681526020018a60046005811062000cdc57fe5b60200201516001600160401b031681526020018960006002811062000cfd57fe5b602002015161ffff1681526020018860006004811062000d1957fe5b60200201516001600160401b031681526020018860016004811062000d3a57fe5b60200201516001600160401b031681526020018860036004811062000d5b57fe5b60200201516001600160401b031681526020018581526020018760006002811062000d8257fe5b602002015181526020018760016002811062000d9a57fe5b60200201518152508160040160008201518160000160006101000a8154816001600160401b0302191690836001600160401b0316021790555060208201518160000160086101000a8154816001600160401b0302191690836001600160401b0316021790555060408201518160000160106101000a8154816001600160401b0302191690836001600160401b0316021790555060608201518160000160186101000a8154816001600160401b0302191690836001600160401b0316021790555060808201518160010160006101000a8154816001600160401b0302191690836001600160401b0316021790555060a08201518160010160086101000a81548161ffff021916908361ffff16021790555060c082015181600101600a6101000a8154816001600160401b0302191690836001600160401b0316021790555060e08201518160010160126101000a8154816001600160401b0302191690836001600160401b031602179055506101008201518160020160006101000a8154816001600160401b0302191690836001600160401b031602179055506101208201518160030155610140820151816004015561016082015181600501559050508481600a0181905550816001600160401b0316600460008e6001600160401b03166001600160401b03168152602001908152602001600020819055508b600260006101000a8154816001600160401b0302191690836001600160401b031602179055507ff991c74e88b00b8de409caf790045f133e9a8283d3b989db88e2b2d93612c3a78c8360405180836001600160401b03166001600160401b03168152602001826001600160401b03166001600160401b031681526020019250505060405180910390a150505050505050505050505050565b600654604080516001600160a01b039283168152918316602083015280517f2e8176039aca48fb2df80d8a3f0c25cf4f12ba7ba15aabe562bd39f71967954f9281900390910190a1600680546001600160a01b0319166001600160a01b0392909216919091179055565b600754604080516001600160a01b039283168152918316602083015280517fad1fe49159fc13ce805cb23e72eb6724c008509c8095b9499752efea5747af3e9281900390910190a1600780546001600160a01b0319166001600160a01b0392909216919091179055565b600854604080516001600160a01b039283168152918316602083015280517faf8bba87fb343f5755495c80323f32cd6bbfaebd666ff5abac709bc1f76f2f179281900390910190a1600880546001600160a01b0319166001600160a01b0392909216919091179055565b4290565b60408051808201909152601581527f55494e5436345f4e554d4245525f544f4f5f424947000000000000000000000060208201526000906001600160401b0383111562001217576040517f08c379a0000000000000000000000000000000000000000000000000000000008152602060048201818152835160248401528351909283926044909101919085019080838360008315620001465781810151838201526020016200012c565b5090919050565b61271061ffff82161115919050565b8154818355818111156200125c57600b0281600b0283600052602060002091820191016200125c919062001261565b505050565b6200043891905b80821115620012fc5780546001600160b01b03191681556000600182018190556002820181905560038201819055600482018190556005820180547fffffffffffff00000000000000000000000000000000000000000000000000001690556006820180546001600160401b0319169055600782018190556008820181905560098201819055600a820155600b0162001268565b5090565b6139ad80620013106000396000f3fe608060405234801561001057600080fd5b50600436106102925760003560e01c806385acd64111610160578063c13517e1116100d8578063e008cb621161008c578063e3f2311e11610071578063e3f2311e1461088c578063f137b44e146108b2578063f7fe57891461090457610292565b8063e008cb621461073f578063e36057b71461086557610292565b8063d7a84693116100bd578063d7a84693146106eb578063d9296df214610711578063db9bee461461073757610292565b8063c13517e11461066c578063cf0a5af3146106e357610292565b8063953e46a01161012f57806397023f811161011457806397023f81146105e35780639bf6fa57146105eb578063a949e9821461061257610292565b8063953e46a0146105b457806395f3c2da146105bc57610292565b806385acd6411461054c5780638bb04875146105695780638c8bd218146105865780638de10e871461058e57610292565b8063408a26401161020e5780636991fdb8116101c25780637d1f24c9116101a75780637d1f24c9146105085780637e9adccf146105105780637fb011d61461052d57610292565b80636991fdb8146104ce5780637b751b9e146104d657610292565b8063541cd468116101f3578063541cd4681461041657806361f3be6a14610442578063696670051461047b57610292565b8063408a26401461040657806350c365801461040e57610292565b806327fe748c116102655780633b47a9ac1161024a5780633b47a9ac146103ee5780633c28e88b146103f65780633f33bf86146103fe57610292565b806327fe748c146103ac5780633b19e84a146103e657610292565b806308135a93146102975780631986d376146102bc57806322f8f6f3146102e057806324bdf713146102e8575b600080fd5b61029f61090c565b6040805167ffffffffffffffff9092168252519081900360200190f35b6102c461091c565b604080516001600160a01b039092168252519081900360200190f35b61029f610947565b6103aa600480360360408110156102fe57600080fd5b81019060208101813564010000000081111561031957600080fd5b82018360208201111561032b57600080fd5b8035906020019184602083028401116401000000008311171561034d57600080fd5b91939092909160208101903564010000000081111561036b57600080fd5b82018360208201111561037d57600080fd5b8035906020019184602083028401116401000000008311171561039f57600080fd5b509092509050610957565b005b6103d2600480360360208110156103c257600080fd5b50356001600160a01b0316610afd565b604080519115158252519081900360200190f35b6102c4610b1f565b6102c4610b4a565b6102c4610b54565b61029f610b63565b6102c4610b6d565b61029f610b7c565b6103aa6004803603604081101561042c57600080fd5b50803590602001356001600160a01b0316610b86565b6104696004803603602081101561045857600080fd5b503567ffffffffffffffff16610c26565b60408051918252519081900360200190f35b6104a26004803603602081101561049157600080fd5b503567ffffffffffffffff16610cdc565b604080516001600160a01b039094168452602084019290925261ffff1682820152519081900360600190f35b61029f610d04565b6104de610d14565b604080516001600160a01b0394851681529290931660208301528183015290519081900360600190f35b610469610d9e565b6103aa6004803603602081101561052657600080fd5b5035610e7b565b6103aa6004803603602081101561054357600080fd5b50351515610f05565b6102c46004803603602081101561056257600080fd5b5035610f79565b6103aa6004803603602081101561057f57600080fd5b5035610f8a565b6103aa6110a0565b6103aa600480360360208110156105a457600080fd5b50356001600160a01b031661113e565b6102c4611269565b610469600480360360208110156105d257600080fd5b503567ffffffffffffffff16611294565b6102c46112ab565b61029f6004803603602081101561060157600080fd5b503567ffffffffffffffff166112ba565b6103aa600480360361026081101561062957600080fd5b5067ffffffffffffffff813516906001600160a01b0360208201351690604081019060a081019061014081019061018081019061020081019061024001356112c5565b6104696004803603604081101561068257600080fd5b813591908101906040810160208201356401000000008111156106a457600080fd5b8201836020820111156106b657600080fd5b803590602001918460018302840111640100000000831117156106d857600080fd5b509092509050611433565b6103aa61174c565b6103aa6004803603602081101561070157600080fd5b50356001600160a01b03166117e8565b6103aa6004803603602081101561072757600080fd5b50356001600160a01b0316611910565b6102c4611a38565b6107666004803603602081101561075557600080fd5b503567ffffffffffffffff16611a42565b6040516001600160a01b03881681526020810187606080838360005b8381101561079a578181015183820152602001610782565b5050505090500186600560200280838360005b838110156107c55781810151838201526020016107ad565b5050505090500185600260200280838360005b838110156107f05781810151838201526020016107d8565b5050505090500184600460200280838360005b8381101561081b578181015183820152602001610803565b5050505090500183600260200280838360005b8381101561084657818101518382015260200161082e565b5050505090500182815260200197505050505050505060405180910390f35b6103aa6004803603602081101561087b57600080fd5b503567ffffffffffffffff16611a9b565b6104de600480360360208110156108a257600080fd5b50356001600160a01b0316611b36565b6108d9600480360360208110156108c857600080fd5b503567ffffffffffffffff16611bde565b6040805167ffffffffffffffff94851681529290931660208301528183015290519081900360600190f35b61029f611c18565b6000610916611c22565b90505b90565b60006109167f7cbb12e82a6d63ff16fe43977f43e3e2b247ecd4e62c0e340da8800a48c67346611c4e565b60005467ffffffffffffffff1690565b60085460408051808201909152601781527f4354525f53454e4445525f4e4f545f474f5645524e4f520000000000000000006020820152906001600160a01b03163314610a2557604051600160e51b62461bcd0281526004018080602001828103825283818151815260200191508051906020019080838360005b838110156109ea5781810151838201526020016109d2565b50505050905090810190601f168015610a175780820380516001836020036101000a031916815260200191505b509250505060405180910390fd5b5060408051808201909152601e81527f4354525f494e56414c49445f494d504c535f494e5055545f4c454e47544800006020820152838214610aab57604051600160e51b62461bcd0281526020600482018181528351602484015283519092839260449091019190850190808383600083156109ea5781810151838201526020016109d2565b5060005b83811015610af657610aee858583818110610ac657fe5b90506020020135848484818110610ad957fe5b905060200201356001600160a01b0316611c69565b600101610aaf565b5050505050565b6001600160a01b03811660009081526005602052604090205460ff165b919050565b60006109167f06aa03964db1f7257357ef09714a5f0ca3633723df419e97015e0c7a3e83edb7611c4e565b6000610916611d6d565b6006546001600160a01b031690565b6000610916611d98565b6008546001600160a01b031690565b6000610916611e76565b60085460408051808201909152601781527f4354525f53454e4445525f4e4f545f474f5645524e4f520000000000000000006020820152906001600160a01b03163314610c1757604051600160e51b62461bcd0281526020600482018181528351602484015283519092839260449091019190850190808383600083156109ea5781810151838201526020016109d2565b50610c228282611c69565b5050565b6000805460408051808201909152601781527f434c4b5f5445524d5f444f45535f4e4f545f45584953540000000000000000006020820152839167ffffffffffffffff6801000000000000000090910481169083161115610ccb57604051600160e51b62461bcd0281526020600482018181528351602484015283519092839260449091019190850190808383600083156109ea5781810151838201526020016109d2565b50610cd583611ef1565b9392505050565b600080600080610cea611fd5565b9050610cf68582611ff1565b935093509350509193909250565b60025467ffffffffffffffff1690565b6000806000610d21612036565b92506000839050806001600160a01b0316637b751b9e6040518163ffffffff1660e01b8152600401604080518083038186803b158015610d6057600080fd5b505afa158015610d74573d6000803e3d6000fd5b505050506040513d6040811015610d8a57600080fd5b508051602090910151949590949350915050565b6000805468010000000000000000900467ffffffffffffffff168082526001602081905260408320908101548015610dda579250610919915050565b6000610de584611ef1565b60408051808201909152601f81527f434c4b5f5445524d5f52414e444f4d4e4553535f554e415641494c41424c4500602082015290915081610e6b57604051600160e51b62461bcd0281526020600482018181528351602484015283519092839260449091019190850190808383600083156109ea5781810151838201526020016109d2565b5060019092018290555091505090565b336000610e86612036565b9050806001600160a01b031663c39c83d183856040518363ffffffff1660e01b815260040180836001600160a01b03166001600160a01b0316815260200182815260200192505050600060405180830381600087803b158015610ee857600080fd5b505af1158015610efc573d6000803e3d6000fd5b50505050505050565b3360008181526005602090815260409182902080547fffffffffffffffffffffffffffffffffffffffffffffffffffffffffffffff0016851515908117909155825190815291517f189949428c2e58715ea2f0be0d702bc14e73743bdbb58814a595c19e1285c5be9281900390910190a250565b6000610f8482611c4e565b92915050565b6000610f94612036565b9050600080826001600160a01b031663bd881e53856040518263ffffffff1660e01b8152600401808281526020019150506040805180830381600087803b158015610fde57600080fd5b505af1158015610ff2573d6000803e3d6000fd5b505050506040513d604081101561100857600080fd5b508051602090910151604080517f311a6c560000000000000000000000000000000000000000000000000000000081526004810188905260ff8316602482015290519294509092506001600160a01b0384169163311a6c569160448082019260009290919082900301818387803b15801561108257600080fd5b505af1158015611096573d6000803e3d6000fd5b5050505050505050565b60085460408051808201909152601781527f4354525f53454e4445525f4e4f545f474f5645524e4f520000000000000000006020820152906001600160a01b0316331461113157604051600160e51b62461bcd0281526020600482018181528351602484015283519092839260449091019190850190808383600083156109ea5781810151838201526020016109d2565b5061113c6000612061565b565b60065460408051808201909152601781527f4354525f53454e4445525f4e4f545f474f5645524e4f520000000000000000006020820152906001600160a01b031633146111cf57604051600160e51b62461bcd0281526020600482018181528351602484015283519092839260449091019190850190808383600083156109ea5781810151838201526020016109d2565b5060408051808201909152601c81527f4354525f494e56414c49445f474f5645524e4f525f414444524553530000000060208201526001600160a01b03821661125c57604051600160e51b62461bcd0281526020600482018181528351602484015283519092839260449091019190850190808383600083156109ea5781810151838201526020016109d2565b50611266816120d8565b50565b60006109167f3b21d36b36308c830e6c4053fb40a3b6d79dde78947fbf6b0accd30720ab5370611c4e565b60008061129f611fd5565b9050610cd5838261214f565b6007546001600160a01b031690565b6000610f8482612168565b60075460408051808201909152601781527f4354525f53454e4445525f4e4f545f474f5645524e4f520000000000000000006020820152906001600160a01b0316331461135657604051600160e51b62461bcd0281526020600482018181528351602484015283519092839260449091019190850190808383600083156109ea5781810151838201526020016109d2565b506000611361611d98565b9050611428818a8a8a6003806020026040519081016040528092919082600360200280828437600092019190915250506040805160a081810190925291508c9060059083908390808284376000920191909152505060408051808201825291508c9060029083908390808284376000920191909152505060408051608081810190925291508c9060049083908390808284376000920191909152505060408051808201825291508c9060029083908390808284376000920191909152508c91506123a59050565b505050505050505050565b604080517f01ffc9a70000000000000000000000000000000000000000000000000000000081527f88f3ee690000000000000000000000000000000000000000000000000000000060048201529051600091339182916301ffc9a7916024808301926020929190829003018186803b1580156114ae57600080fd5b505afa1580156114c2573d6000803e3d6000fd5b505050506040513d60208110156114d857600080fd5b505160408051808201909152601881527f41435f53454e4445525f4e4f545f41524249545241424c45000000000000000060208201529061155d57604051600160e51b62461bcd0281526020600482018181528351602484015283519092839260449091019190850190808383600083156109ea5781810151838201526020016109d2565b506000611568611d6d565b9050806001600160a01b031663fd8e3934836040518263ffffffff1660e01b815260040180826001600160a01b03166001600160a01b0316815260200191505060206040518083038186803b1580156115c057600080fd5b505afa1580156115d4573d6000803e3d6000fd5b505050506040513d60208110156115ea57600080fd5b505160408051808201909152601881527f41435f535542534352495054494f4e5f4e4f545f50414944000000000000000060208201529061166f57604051600160e51b62461bcd0281526020600482018181528351602484015283519092839260449091019190850190808383600083156109ea5781810151838201526020016109d2565b50600061167a612036565b9050806001600160a01b0316631d2fa1fb846116958a612eef565b60405163ffffffff841660e01b81526001600160a01b0383166004820190815260ff83166024830152606060448301908152606483018c90528c928c929190608401848480828437600081840152601f19601f82011690508083019250505095505050505050602060405180830381600087803b15801561171557600080fd5b505af1158015611729573d6000803e3d6000fd5b505050506040513d602081101561173f57600080fd5b5051979650505050505050565b60065460408051808201909152601781527f4354525f53454e4445525f4e4f545f474f5645524e4f520000000000000000006020820152906001600160a01b031633146117dd57604051600160e51b62461bcd0281526020600482018181528351602484015283519092839260449091019190850190808383600083156109ea5781810151838201526020016109d2565b5061113c60006120d8565b60085460408051808201909152601781527f4354525f53454e4445525f4e4f545f474f5645524e4f520000000000000000006020820152906001600160a01b0316331461187957604051600160e51b62461bcd0281526020600482018181528351602484015283519092839260449091019190850190808383600083156109ea5781810151838201526020016109d2565b5060408051808201909152601c81527f4354525f494e56414c49445f474f5645524e4f525f414444524553530000000060208201526001600160a01b03821661190657604051600160e51b62461bcd0281526020600482018181528351602484015283519092839260449091019190850190808383600083156109ea5781810151838201526020016109d2565b5061126681612061565b60075460408051808201909152601781527f4354525f53454e4445525f4e4f545f474f5645524e4f520000000000000000006020820152906001600160a01b031633146119a157604051600160e51b62461bcd0281526020600482018181528351602484015283519092839260449091019190850190808383600083156109ea5781810151838201526020016109d2565b5060408051808201909152601c81527f4354525f494e56414c49445f474f5645524e4f525f414444524553530000000060208201526001600160a01b038216611a2e57604051600160e51b62461bcd0281526020600482018181528351602484015283519092839260449091019190850190808383600083156109ea5781810151838201526020016109d2565b5061126681612f80565b6000610916612036565b6000611a4c613823565b611a54613841565b611a5c61385f565b611a6461387d565b611a6c61385f565b600080611a77611fd5565b9050611a838982612ff7565b959f949e50929c50909a509850965090945092505050565b60075460408051808201909152601781527f4354525f53454e4445525f4e4f545f474f5645524e4f520000000000000000006020820152906001600160a01b03163314611b2c57604051600160e51b62461bcd0281526020600482018181528351602484015283519092839260449091019190850190808383600083156109ea5781810151838201526020016109d2565b50611266816132c7565b6000806000611b43611d6d565b92506000839050806001600160a01b0316630a771c25866040518263ffffffff1660e01b815260040180826001600160a01b03166001600160a01b0316815260200191505060606040518083038186803b158015611ba057600080fd5b505afa158015611bb4573d6000803e3d6000fd5b505050506040513d6060811015611bca57600080fd5b508051602090910151949690955092505050565b67ffffffffffffffff9081166000908152600160208190526040909120805491015481831693680100000000000000009092049092169190565b6000610916611fd5565b6000610916611c2f611e76565b60005468010000000000000000900467ffffffffffffffff16906134b1565b6000908152600960205260409020546001600160a01b031690565b611c7281613553565b6040518060400160405280601f81526020017f4354525f494d504c454d454e544154494f4e5f4e4f545f434f4e54524143540081525090611cf757604051600160e51b62461bcd0281526020600482018181528351602484015283519092839260449091019190850190808383600083156109ea5781810151838201526020016109d2565b50600082815260096020908152604091829020805473ffffffffffffffffffffffffffffffffffffffff19166001600160a01b03851690811790915582518581529182015281517f0669329f751b07de4aa82f60514a409d0dfaef266e791a4a65a95b07b1c4c324929181900390910190a15050565b60006109167f2bfa3327fe52344390da94c32a346eeb1b65a8b583e4335a419b9471e88c1365611c4e565b600080611da3611e76565b60408051808201909152601881527f434c4b5f544f4f5f4d414e595f5452414e534954494f4e5300000000000000006020820152909150600167ffffffffffffffff83161115611e3757604051600160e51b62461bcd0281526020600482018181528351602484015283519092839260449091019190850190808383600083156109ea5781810151838201526020016109d2565b5067ffffffffffffffff8116611e6757505060005468010000000000000000900467ffffffffffffffff16610919565b611e7081612168565b91505090565b6000805467ffffffffffffffff6801000000000000000090910481168252600160205260408220541680611ea8613572565b67ffffffffffffffff161015611ec2576000915050610919565b60005467ffffffffffffffff1681611ed8613572565b0367ffffffffffffffff1681611eea57fe5b0491505090565b67ffffffffffffffff808216600090815260016020526040812080549192909168010000000000000000900416611f26613584565b67ffffffffffffffff16116040518060400160405280601b81526020017f434c4b5f5445524d5f52414e444f4d4e4553535f4e4f545f594554000000000081525090611fb657604051600160e51b62461bcd0281526020600482018181528351602484015283519092839260449091019190850190808383600083156109ea5781810151838201526020016109d2565b505468010000000000000000900467ffffffffffffffff164092915050565b60005468010000000000000000900467ffffffffffffffff1690565b6000806000806120018686613591565b805460028201546005909201546001600160a01b039091169891975068010000000000000000900461ffff1695509350505050565b60006109167f14a6c70f0f6d449c014c7bbc9e68e31e79e8474fb03b7194df83109a2d888ae6611c4e565b600854604080516001600160a01b039283168152918316602083015280517faf8bba87fb343f5755495c80323f32cd6bbfaebd666ff5abac709bc1f76f2f179281900390910190a16008805473ffffffffffffffffffffffffffffffffffffffff19166001600160a01b0392909216919091179055565b600654604080516001600160a01b039283168152918316602083015280517f2e8176039aca48fb2df80d8a3f0c25cf4f12ba7ba15aabe562bd39f71967954f9281900390910190a16006805473ffffffffffffffffffffffffffffffffffffffff19166001600160a01b0392909216919091179055565b60008061215c8484613591565b600a0154949350505050565b600080612173611e76565b905060008167ffffffffffffffff168467ffffffffffffffff1610612198578161219a565b835b67ffffffffffffffff169050600081116040518060400160405280601c81526020017f434c4b5f494e56414c49445f5452414e534954494f4e5f5445524d53000000008152509061222f57604051600160e51b62461bcd0281526020600482018181528351602484015283519092839260449091019190850190808383600083156109ea5781810151838201526020016109d2565b50600061223a613584565b60005490915068010000000000000000900467ffffffffffffffff168060015b8481116123165767ffffffffffffffff80831660009081526001602081905260408083209590910192831682529020909290612295846135c4565b60005482546122b79167ffffffffffffffff918216911663ffffffff6134b116565b815467ffffffffffffffff191667ffffffffffffffff918216177fffffffffffffffffffffffffffffffff0000000000000000ffffffffffffffff1668010000000000000000600189810193909316021790915591909101905061225a565b506000805467ffffffffffffffff8084166801000000000000000081027fffffffffffffffffffffffffffffffff0000000000000000ffffffffffffffff90931692909217909255604080519285168352602083019190915280517fb8818b6d0c27e4fc7cf75de16ac2543426d3c0bcc520931d24e5a7dde4adca119281900390910190a19695505050505050565b67ffffffffffffffff891615806123cf57508867ffffffffffffffff168867ffffffffffffffff16115b6040518060400160405280601181526020017f434f4e465f544f4f5f4f4c445f5445524d0000000000000000000000000000008152509061245457604051600160e51b62461bcd0281526020600482018181528351602484015283519092839260449091019190850190808383600083156109ea5781810151838201526020016109d2565b508151158015906124685750602082015115155b6040518060400160405280601b81526020017f434f4e465f5a45524f5f434f4c4c41544552414c5f464143544f520000000000815250906124ed57604051600160e51b62461bcd0281526020600482018181528351602484015283519092839260449091019190850190808383600083156109ea5781810151838201526020016109d2565b506124ff8460005b60200201516135cd565b6040518060400160405280601881526020017f434f4e465f494e56414c49445f50454e414c54595f50435400000000000000008152509061258457604051600160e51b62461bcd0281526020600482018181528351602484015283519092839260449091019190850190808383600083156109ea5781810151838201526020016109d2565b506125908460016124f5565b6040518060400160405280602081526020017f434f4e465f494e56414c49445f46494e414c5f524f554e445f5245445f5043548152509061261557604051600160e51b62461bcd0281526020600482018181528351602484015283519092839260449091019190850190808383600083156109ea5781810151838201526020016109d2565b50825160408051808201909152601e81527f434f4e465f4241445f494e495449414c5f4a55524f52535f4e554d424552000060208201529067ffffffffffffffff166126a557604051600160e51b62461bcd0281526020600482018181528351602484015283519092839260449091019190850190808383600083156109ea5781810151838201526020016109d2565b506000836001602002015167ffffffffffffffff16116040518060400160405280601b81526020017f434f4e465f4241445f41505045414c5f535445505f464143544f5200000000008152509061274057604051600160e51b62461bcd0281526020600482018181528351602484015283519092839260449091019190850190808383600083156109ea5781810151838201526020016109d2565b50604083015167ffffffffffffffff16600081158015906127625750600a8211155b9050806040518060400160405280601e81526020017f434f4e465f494e56414c49445f4d41585f41505045414c5f524f554e44530000815250906127ea57604051600160e51b62461bcd0281526020600482018181528351602484015283519092839260449091019190850190808383600083156109ea5781810151838201526020016109d2565b5060005b60058110156128ca57600088826005811061280557fe5b602002015167ffffffffffffffff1611801561283c57506121de88826005811061282b57fe5b602002015167ffffffffffffffff16105b6040518060400160405280601f81526020017f434f4e465f4c415247455f524f554e445f50484153455f4455524154494f4e00815250906128c157604051600160e51b62461bcd0281526020600482018181528351602484015283519092839260449091019190850190808383600083156109ea5781810151838201526020016109d2565b506001016127ee565b5060408051808201909152601c81527f434f4e465f5a45524f5f4d494e5f4143544956455f42414c414e43450000000060208201528361294e57604051600160e51b62461bcd0281526020600482018181528351602484015283519092839260449091019190850190808383600083156109ea5781810151838201526020016109d2565b5060025467ffffffffffffffff808d16911611156129875760025467ffffffffffffffff1660009081526004602052604081205561299b565b6003805490612999906001830161389b565b505b600380547fffffffffffffffffffffffffffffffffffffffffffffffffffffffffffffffff81019160009167ffffffffffffffff84169081106129da57fe5b90600052602060002090600b020190506040518060a001604052808c6001600160a01b0316815260200189600160028110612a1157fe5b602002015161ffff1681526020018b600060038110612a2c57fe5b602002015181526020018b600160038110612a4357fe5b602002015181526020018b600260038110612a5a57fe5b60209081029190910151909152815183549183015161ffff1674010000000000000000000000000000000000000000027fffffffffffffffffffff0000ffffffffffffffffffffffffffffffffffffffff6001600160a01b0390921673ffffffffffffffffffffffffffffffffffffffff199093169290921716178255604080820151600184015560608201516002840155608090910151600383015580516101808101909152808a6000602002015167ffffffffffffffff1681526020018a600160058110612b2657fe5b602002015167ffffffffffffffff1681526020018a600260058110612b4757fe5b602002015167ffffffffffffffff1681526020018a600360058110612b6857fe5b602002015167ffffffffffffffff1681526020018a600460058110612b8957fe5b602002015167ffffffffffffffff16815260200189600060028110612baa57fe5b602002015161ffff16815260200188600060048110612bc557fe5b602002015167ffffffffffffffff16815260200188600160048110612be657fe5b602002015167ffffffffffffffff16815260200188600360048110612c0757fe5b602002015167ffffffffffffffff16815260200185815260200187600060028110612c2e57fe5b6020020151815260200187600160028110612c4557fe5b60200201518152508160040160008201518160000160006101000a81548167ffffffffffffffff021916908367ffffffffffffffff16021790555060208201518160000160086101000a81548167ffffffffffffffff021916908367ffffffffffffffff16021790555060408201518160000160106101000a81548167ffffffffffffffff021916908367ffffffffffffffff16021790555060608201518160000160186101000a81548167ffffffffffffffff021916908367ffffffffffffffff16021790555060808201518160010160006101000a81548167ffffffffffffffff021916908367ffffffffffffffff16021790555060a08201518160010160086101000a81548161ffff021916908361ffff16021790555060c082015181600101600a6101000a81548167ffffffffffffffff021916908367ffffffffffffffff16021790555060e08201518160010160126101000a81548167ffffffffffffffff021916908367ffffffffffffffff1602179055506101008201518160020160006101000a81548167ffffffffffffffff021916908367ffffffffffffffff1602179055506101208201518160030155610140820151816004015561016082015181600501559050508481600a01819055508167ffffffffffffffff16600460008e67ffffffffffffffff1667ffffffffffffffff168152602001908152602001600020819055508b600260006101000a81548167ffffffffffffffff021916908367ffffffffffffffff1602179055507ff991c74e88b00b8de409caf790045f133e9a8283d3b989db88e2b2d93612c3a78c83604051808367ffffffffffffffff1667ffffffffffffffff1681526020018267ffffffffffffffff1667ffffffffffffffff1681526020019250505060405180910390a150505050505050505050505050565b60408051808201909152601481527f55494e54385f4e554d4245525f544f4f5f424947000000000000000000000000602082015260009060ff831115612f7957604051600160e51b62461bcd0281526020600482018181528351602484015283519092839260449091019190850190808383600083156109ea5781810151838201526020016109d2565b5090919050565b600754604080516001600160a01b039283168152918316602083015280517fad1fe49159fc13ce805cb23e72eb6724c008509c8095b9499752efea5747af3e9281900390910190a16007805473ffffffffffffffffffffffffffffffffffffffff19166001600160a01b0392909216919091179055565b6000613001613823565b613009613841565b61301161385f565b61301961387d565b61302161385f565b60008061302e8a8a613591565b905060008160000190508060000160009054906101000a90046001600160a01b03169850604051806060016040528082600101548152602001826002015481526020018260030154815250975060008260040190506040518060a001604052808260000160009054906101000a900467ffffffffffffffff1667ffffffffffffffff1667ffffffffffffffff1681526020018260000160089054906101000a900467ffffffffffffffff1667ffffffffffffffff1667ffffffffffffffff1681526020018260000160109054906101000a900467ffffffffffffffff1667ffffffffffffffff1667ffffffffffffffff1681526020018260000160189054906101000a900467ffffffffffffffff1667ffffffffffffffff1667ffffffffffffffff1681526020018260010160009054906101000a900467ffffffffffffffff1667ffffffffffffffff1667ffffffffffffffff16815250975060405180604001604052808260010160089054906101000a900461ffff1661ffff1661ffff1681526020018360000160149054906101000a900461ffff1661ffff1661ffff168152509650604051806080016040528082600101600a9054906101000a900467ffffffffffffffff1667ffffffffffffffff1667ffffffffffffffff1681526020018260010160129054906101000a900467ffffffffffffffff1667ffffffffffffffff1667ffffffffffffffff168152602001826003015467ffffffffffffffff1667ffffffffffffffff1681526020018260020160009054906101000a900467ffffffffffffffff1667ffffffffffffffff1667ffffffffffffffff1681525095506040518060400160405280826004015481526020018260050154815250945082600a0154935050505092959891949750929550565b6132cf611c22565b60408051808201909152601e81527f434c4b5f43414e4e4f545f44454c41595f535441525445445f434f555254000060208201529067ffffffffffffffff161561335d57604051600160e51b62461bcd0281526020600482018181528351602484015283519092839260449091019190850190808383600083156109ea5781810151838201526020016109d2565b506000808052600160205280547fa6eef7e35abe7026729641147f7915573c7e97b47efa546f5f6e3230263bcb4980549092916133ad9167ffffffffffffffff908116911663ffffffff6134b116565b90508067ffffffffffffffff168367ffffffffffffffff16116040518060400160405280602081526020017f434c4b5f43414e4e4f545f44454c41595f504153545f53544152545f54494d458152509061344b57604051600160e51b62461bcd0281526020600482018181528351602484015283519092839260449091019190850190808383600083156109ea5781810151838201526020016109d2565b50600054825467ffffffffffffffff191667ffffffffffffffff91821685038216178355604080518383168152918516602083015280517f9b735da8a0762c6e913df06587b4fa81f87b8075e2a2afdeae6afde9456fd8799281900390910190a1505050565b60408051808201909152601381527f4d41544836345f4144445f4f564552464c4f570000000000000000000000000060208201526000908383019067ffffffffffffffff808616908316101561354b57604051600160e51b62461bcd0281526020600482018181528351602484015283519092839260449091019190850190808383600083156109ea5781810151838201526020016109d2565b509392505050565b60006001600160a01b03821661356b57506000610b1a565b503b151590565b600061091661357f6135dc565b6135e0565b600061091661357f613671565b60008061359e8484613675565b9050600381815481106135ad57fe5b90600052602060002090600b020191505092915050565b6112668161370a565b61271061ffff82161115919050565b4290565b60408051808201909152601581527f55494e5436345f4e554d4245525f544f4f5f4249470000000000000000000000602082015260009067ffffffffffffffff831115612f7957604051600160e51b62461bcd0281526020600482018181528351602484015283519092839260449091019190850190808383600083156109ea5781810151838201526020016109d2565b4390565b60008167ffffffffffffffff168367ffffffffffffffff16116136b2575067ffffffffffffffff8216600090815260046020526040902054610f84565b60025467ffffffffffffffff90811690841681116136ea5767ffffffffffffffff166000908152600460205260409020549050610f84565b505067ffffffffffffffff16600090815260046020526040902054919050565b67ffffffffffffffff811660009081526004602052604090205480610c2257600060048161374967ffffffffffffffff8616600163ffffffff61377d16565b67ffffffffffffffff9081168252602080830193909352604091820160009081205491871681526004909352912055505050565b60008267ffffffffffffffff168267ffffffffffffffff1611156040518060400160405280601481526020017f4d41544836345f5355425f554e444552464c4f570000000000000000000000008152509061381c57604051600160e51b62461bcd0281526020600482018181528351602484015283519092839260449091019190850190808383600083156109ea5781810151838201526020016109d2565b5050900390565b60405180606001604052806003906020820280388339509192915050565b6040518060a001604052806005906020820280388339509192915050565b60405180604001604052806002906020820280388339509192915050565b60405180608001604052806004906020820280388339509192915050565b8154818355818111156138c757600b0281600b0283600052602060002091820191016138c791906138cc565b505050565b61091991905b8082111561397d5780547fffffffffffffffffffff000000000000000000000000000000000000000000001681556000600182018190556002820181905560038201819055600482018190556005820180547fffffffffffff000000000000000000000000000000000000000000000000000016905560068201805467ffffffffffffffff19169055600782018190556008820181905560098201819055600a820155600b016138d2565b509056fea165627a7a72305820e2d4166bf76ae015859385844bc784a498d413720f4c4bc6967453590ecd4a410029",
  "source": "pragma solidity ^0.5.8;\n\nimport \"../lib/os/Uint256Helpers.sol\";\n\nimport \"./controller/Controller.sol\";\nimport \"../arbitration/IArbitrator.sol\";\nimport \"../arbitration/IArbitrable.sol\";\nimport \"../disputes/IDisputeManager.sol\";\nimport \"../subscriptions/ISubscriptions.sol\";\n\n\ncontract AragonCourt is Controller, IArbitrator {\n    using Uint256Helpers for uint256;\n\n    string private constant ERROR_SUBSCRIPTION_NOT_PAID = \"AC_SUBSCRIPTION_NOT_PAID\";\n    string private constant ERROR_SENDER_NOT_ARBITRABLE = \"AC_SENDER_NOT_ARBITRABLE\";\n\n    // Arbitrable interface ID based on ERC-165\n    bytes4 private constant ARBITRABLE_INTERFACE_ID = bytes4(0x88f3ee69);\n\n    /**\n    * @dev Constructor function\n    * @param _termParams Array containing:\n    *        0. _termDuration Duration in seconds per term\n    *        1. _firstTermStartTime Timestamp in seconds when the court will open (to give time for juror on-boarding)\n    * @param _governors Array containing:\n    *        0. _fundsGovernor Address of the funds governor\n    *        1. _configGovernor Address of the config governor\n    *        2. _modulesGovernor Address of the modules governor\n    * @param _feeToken Address of the token contract that is used to pay for fees\n    * @param _fees Array containing:\n    *        0. jurorFee Amount of fee tokens that is paid per juror per dispute\n    *        1. draftFee Amount of fee tokens per juror to cover the drafting cost\n    *        2. settleFee Amount of fee tokens per juror to cover round settlement cost\n    * @param _roundStateDurations Array containing the durations in terms of the different phases of a dispute:\n    *        0. evidenceTerms Max submitting evidence period duration in terms\n    *        1. commitTerms Commit period duration in terms\n    *        2. revealTerms Reveal period duration in terms\n    *        3. appealTerms Appeal period duration in terms\n    *        4. appealConfirmationTerms Appeal confirmation period duration in terms\n    * @param _pcts Array containing:\n    *        0. penaltyPct Permyriad of min active tokens balance to be locked to each drafted jurors ( - 1/10,000)\n    *        1. finalRoundReduction Permyriad of fee reduction for the last appeal round ( - 1/10,000)\n    * @param _roundParams Array containing params for rounds:\n    *        0. firstRoundJurorsNumber Number of jurors to be drafted for the first round of disputes\n    *        1. appealStepFactor Increasing factor for the number of jurors of each round of a dispute\n    *        2. maxRegularAppealRounds Number of regular appeal rounds before the final round is triggered\n    *        3. finalRoundLockTerms Number of terms that a coherent juror in a final round is disallowed to withdraw (to prevent 51% attacks)\n    * @param _appealCollateralParams Array containing params for appeal collateral:\n    *        1. appealCollateralFactor Permyriad multiple of dispute fees required to appeal a preliminary ruling\n    *        2. appealConfirmCollateralFactor Permyriad multiple of dispute fees required to confirm appeal\n    * @param _minActiveBalance Minimum amount of juror tokens that can be activated\n    */\n    constructor(\n        uint64[2] memory _termParams,\n        address[3] memory _governors,\n        ERC20 _feeToken,\n        uint256[3] memory _fees,\n        uint64[5] memory _roundStateDurations,\n        uint16[2] memory _pcts,\n        uint64[4] memory _roundParams,\n        uint256[2] memory _appealCollateralParams,\n        uint256 _minActiveBalance\n    )\n        public\n        Controller(\n            _termParams,\n            _governors,\n            _feeToken,\n            _fees,\n            _roundStateDurations,\n            _pcts,\n            _roundParams,\n            _appealCollateralParams,\n            _minActiveBalance\n        )\n    {\n        // solium-disable-previous-line no-empty-blocks\n    }\n\n    /**\n    * @notice Create a dispute with `_possibleRulings` possible rulings\n    * @param _possibleRulings Number of possible rulings allowed for the drafted jurors to vote on the dispute\n    * @param _metadata Optional metadata that can be used to provide additional information on the dispute to be created\n    * @return Dispute identification number\n    */\n    function createDispute(uint256 _possibleRulings, bytes calldata _metadata) external returns (uint256) {\n        IArbitrable subject = IArbitrable(msg.sender);\n        require(subject.supportsInterface(ARBITRABLE_INTERFACE_ID), ERROR_SENDER_NOT_ARBITRABLE);\n\n        ISubscriptions subscriptions = ISubscriptions(_getSubscriptions());\n        require(subscriptions.isUpToDate(address(subject)), ERROR_SUBSCRIPTION_NOT_PAID);\n\n        IDisputeManager disputeManager = IDisputeManager(_getDisputeManager());\n        return disputeManager.createDispute(subject, _possibleRulings.toUint8(), _metadata);\n    }\n\n    /**\n    * @notice Close the evidence period of dispute #`_disputeId`\n    * @param _disputeId Identification number of the dispute to close its evidence submitting period\n    */\n    function closeEvidencePeriod(uint256 _disputeId) external {\n        IArbitrable subject = IArbitrable(msg.sender);\n        IDisputeManager disputeManager = IDisputeManager(_getDisputeManager());\n        disputeManager.closeEvidencePeriod(subject, _disputeId);\n    }\n\n    /**\n    * @notice Execute the Arbitrable associated to dispute #`_disputeId` based on its final ruling\n    * @param _disputeId Identification number of the dispute to be executed\n    */\n    function executeRuling(uint256 _disputeId) external {\n        IDisputeManager disputeManager = IDisputeManager(_getDisputeManager());\n        (IArbitrable subject, uint8 ruling) = disputeManager.computeRuling(_disputeId);\n        subject.rule(_disputeId, uint256(ruling));\n    }\n\n    /**\n    * @dev Tell the dispute fees information to create a dispute\n    * @return recipient Address where the corresponding dispute fees must be transferred to\n    * @return feeToken ERC20 token used for the fees\n    * @return feeAmount Total amount of fees that must be allowed to the recipient\n    */\n    function getDisputeFees() external view returns (address recipient, ERC20 feeToken, uint256 feeAmount) {\n        recipient = _getDisputeManager();\n        IDisputeManager disputeManager = IDisputeManager(recipient);\n        (feeToken, feeAmount) = disputeManager.getDisputeFees();\n    }\n\n    /**\n    * @dev Tell the subscription fees information for a subscriber to be up-to-date\n    * @param _subscriber Address of the account paying the subscription fees for\n    * @return recipient Address where the corresponding subscriptions fees must be transferred to\n    * @return feeToken ERC20 token used for the subscription fees\n    * @return feeAmount Total amount of fees that must be allowed to the recipient\n    */\n    function getSubscriptionFees(address _subscriber) external view returns (address recipient, ERC20 feeToken, uint256 feeAmount) {\n        recipient = _getSubscriptions();\n        ISubscriptions subscriptions = ISubscriptions(recipient);\n        (feeToken, feeAmount,) = subscriptions.getOwedFeesDetails(_subscriber);\n    }\n}\n",
  "sourcePath": "/Users/facu/Documents/work/aragon/dev/aragon-court/contracts/court/AragonCourt.sol",
  "compiler": {
    "name": "solc",
    "version": "0.5.8+commit.23d335f2.Emscripten.clang"
  },
  "schemaVersion": "3.0.17",
  "updatedAt": "2020-03-17T13:23:57.770Z",
  "devdoc": {
    "methods": {
      "areWithdrawalsAllowedFor(address)": {
        "details": "Tell whether a certain holder accepts automatic withdrawals of tokens or not",
        "params": {
          "_holder": "Address of the token holder querying if withdrawals are allowed for"
        },
        "return": "True if the given holder accepts automatic withdrawals of their tokens, false otherwise"
      },
      "changeConfigGovernor(address)": {
        "params": {
          "_newConfigGovernor": "Address of the new config governor to be set"
        }
      },
      "changeFundsGovernor(address)": {
        "params": {
          "_newFundsGovernor": "Address of the new funds governor to be set"
        }
      },
      "changeModulesGovernor(address)": {
        "params": {
          "_newModulesGovernor": "Address of the new governor to be set"
        }
      },
      "closeEvidencePeriod(uint256)": {
        "params": {
          "_disputeId": "Identification number of the dispute to close its evidence submitting period"
        }
      },
      "constructor": {
        "details": "Constructor function",
        "params": {
          "_appealCollateralParams": "Array containing params for appeal collateral:       1. appealCollateralFactor Permyriad multiple of dispute fees required to appeal a preliminary ruling       2. appealConfirmCollateralFactor Permyriad multiple of dispute fees required to confirm appeal",
          "_feeToken": "Address of the token contract that is used to pay for fees",
          "_fees": "Array containing:       0. jurorFee Amount of fee tokens that is paid per juror per dispute       1. draftFee Amount of fee tokens per juror to cover the drafting cost       2. settleFee Amount of fee tokens per juror to cover round settlement cost",
          "_governors": "Array containing:       0. _fundsGovernor Address of the funds governor       1. _configGovernor Address of the config governor       2. _modulesGovernor Address of the modules governor",
          "_minActiveBalance": "Minimum amount of juror tokens that can be activated",
          "_pcts": "Array containing:       0. penaltyPct Permyriad of min active tokens balance to be locked to each drafted jurors ( - 1/10,000)       1. finalRoundReduction Permyriad of fee reduction for the last appeal round ( - 1/10,000)",
          "_roundParams": "Array containing params for rounds:       0. firstRoundJurorsNumber Number of jurors to be drafted for the first round of disputes       1. appealStepFactor Increasing factor for the number of jurors of each round of a dispute       2. maxRegularAppealRounds Number of regular appeal rounds before the final round is triggered       3. finalRoundLockTerms Number of terms that a coherent juror in a final round is disallowed to withdraw (to prevent 51% attacks)",
          "_roundStateDurations": "Array containing the durations in terms of the different phases of a dispute:       0. evidenceTerms Max submitting evidence period duration in terms       1. commitTerms Commit period duration in terms       2. revealTerms Reveal period duration in terms       3. appealTerms Appeal period duration in terms       4. appealConfirmationTerms Appeal confirmation period duration in terms",
          "_termParams": "Array containing:       0. _termDuration Duration in seconds per term       1. _firstTermStartTime Timestamp in seconds when the court will open (to give time for juror on-boarding)"
        }
      },
      "createDispute(uint256,bytes)": {
        "params": {
          "_metadata": "Optional metadata that can be used to provide additional information on the dispute to be created",
          "_possibleRulings": "Number of possible rulings allowed for the drafted jurors to vote on the dispute"
        },
        "return": "Dispute identification number"
      },
      "delayStartTime(uint64)": {
        "params": {
          "_newFirstTermStartTime": "New timestamp in seconds when the court will open"
        }
      },
      "ejectFundsGovernor()": {
        "details": "This action cannot be rolled back, once the funds governor has been unset, funds cannot be recovered from recoverable modules anymore"
      },
      "ejectModulesGovernor()": {
        "details": "This action cannot be rolled back, once the modules governor has been unset, system modules cannot be changed anymore"
      },
      "ensureCurrentTerm()": {
        "return": "Identification number of the current term"
      },
      "ensureCurrentTermRandomness()": {
        "return": "Randomness of the current term"
      },
      "executeRuling(uint256)": {
        "params": {
          "_disputeId": "Identification number of the dispute to be executed"
        }
      },
      "getConfig(uint64)": {
        "details": "Tell the full Court configuration parameters at a certain term",
        "params": {
          "_termId": "Identification number of the term querying the Court config of"
        },
        "return": "token Address of the token used to pay for feesfees Array containing:        0. jurorFee Amount of fee tokens that is paid per juror per dispute        1. draftFee Amount of fee tokens per juror to cover the drafting cost        2. settleFee Amount of fee tokens per juror to cover round settlement costroundStateDurations Array containing the durations in terms of the different phases of a dispute:        0. evidenceTerms Max submitting evidence period duration in terms        1. commitTerms Commit period duration in terms        2. revealTerms Reveal period duration in terms        3. appealTerms Appeal period duration in terms        4. appealConfirmationTerms Appeal confirmation period duration in termspcts Array containing:        0. penaltyPct Permyriad of min active tokens balance to be locked for each drafted juror ( - 1/10,000)        1. finalRoundReduction Permyriad of fee reduction for the last appeal round ( - 1/10,000)roundParams Array containing params for rounds:        0. firstRoundJurorsNumber Number of jurors to be drafted for the first round of disputes        1. appealStepFactor Increasing factor for the number of jurors of each round of a dispute        2. maxRegularAppealRounds Number of regular appeal rounds before the final round is triggered        3. finalRoundLockTerms Number of terms that a coherent juror in a final round is disallowed to withdraw (to prevent 51% attacks)appealCollateralParams Array containing params for appeal collateral:        0. appealCollateralFactor Multiple of dispute fees required to appeal a preliminary ruling        1. appealConfirmCollateralFactor Multiple of dispute fees required to confirm appeal"
      },
      "getConfigChangeTermId()": {
        "details": "Tell the term identification number of the next scheduled config change",
        "return": "Term identification number of the next scheduled config change"
      },
      "getConfigGovernor()": {
        "details": "Tell the address of the config governor",
        "return": "Address of the config governor"
      },
      "getCurrentTermId()": {
        "details": "Tell the current term identification number. Note that there may be pending term transitions.",
        "return": "Identification number of the current term"
      },
      "getDisputeFees()": {
        "details": "Tell the dispute fees information to create a dispute",
        "return": "recipient Address where the corresponding dispute fees must be transferred tofeeToken ERC20 token used for the feesfeeAmount Total amount of fees that must be allowed to the recipient"
      },
      "getDisputeManager()": {
        "details": "Tell the address of the DisputeManager module",
        "return": "Address of the DisputeManager module"
      },
      "getDraftConfig(uint64)": {
        "details": "Tell the draft config at a certain term",
        "params": {
          "_termId": "Identification number of the term querying the draft config of"
        },
        "return": "feeToken Address of the token used to pay for feesdraftFee Amount of fee tokens per juror to cover the drafting costpenaltyPct Permyriad of min active tokens balance to be locked for each drafted juror ( - 1/10,000)"
      },
      "getFundsGovernor()": {
        "details": "Tell the address of the funds governor",
        "return": "Address of the funds governor"
      },
      "getJurorsRegistry()": {
        "details": "Tell the address of the JurorsRegistry module",
        "return": "Address of the JurorsRegistry module"
      },
      "getLastEnsuredTermId()": {
        "details": "Tell the last ensured term identification number",
        "return": "Identification number of the last ensured term"
      },
      "getMinActiveBalance(uint64)": {
        "details": "Tell the min active balance config at a certain term",
        "params": {
          "_termId": "Identification number of the term querying the min active balance config of"
        },
        "return": "Minimum amount of tokens jurors have to activate to participate in the Court"
      },
      "getModule(bytes32)": {
        "details": "Tell address of a module based on a given ID",
        "params": {
          "_id": "ID of the module being queried"
        },
        "return": "Address of the requested module"
      },
      "getModulesGovernor()": {
        "details": "Tell the address of the modules governor",
        "return": "Address of the modules governor"
      },
      "getNeededTermTransitions()": {
        "details": "Tell the number of terms the Court should transition to be up-to-date",
        "return": "Number of terms the Court should transition to be up-to-date"
      },
      "getSubscriptionFees(address)": {
        "details": "Tell the subscription fees information for a subscriber to be up-to-date",
        "params": {
          "_subscriber": "Address of the account paying the subscription fees for"
        },
        "return": "recipient Address where the corresponding subscriptions fees must be transferred tofeeToken ERC20 token used for the subscription feesfeeAmount Total amount of fees that must be allowed to the recipient"
      },
      "getSubscriptions()": {
        "details": "Tell the address of the Subscriptions module",
        "return": "Address of the Subscriptions module"
      },
      "getTerm(uint64)": {
        "details": "Tell the information related to a term based on its ID. Note that if the term has not been reached, the     information returned won't be computed yet. This function allows querying future terms that were not computed yet.",
        "params": {
          "_termId": "ID of the term being queried"
        },
        "return": "startTime Term start timerandomnessBN Block number used for randomness in the requested termrandomness Randomness computed for the requested term"
      },
      "getTermDuration()": {
        "details": "Tell the term duration of the Court",
        "return": "Duration in seconds of the Court term"
      },
      "getTermRandomness(uint64)": {
        "details": "Tell the randomness of a term even if it wasn't computed yet",
        "params": {
          "_termId": "Identification number of the term being queried"
        },
        "return": "Randomness of the requested term"
      },
      "getTreasury()": {
        "details": "Tell the address of the Treasury module",
        "return": "Address of the Treasury module"
      },
      "getVoting()": {
        "details": "Tell the address of the Voting module",
        "return": "Address of the Voting module"
      },
      "heartbeat(uint64)": {
        "params": {
          "_maxRequestedTransitions": "Max number of term transitions allowed by the sender"
        },
        "return": "Identification number of the term ID after executing the heartbeat transitions"
      },
      "setAutomaticWithdrawals(bool)": {
        "params": {
          "_allowed": "Whether or not the automatic withdrawals are allowed by the sender"
        }
      },
      "setConfig(uint64,address,uint256[3],uint64[5],uint16[2],uint64[4],uint256[2],uint256)": {
        "params": {
          "_appealCollateralParams": "Array containing params for appeal collateral:       1. appealCollateralFactor Permyriad multiple of dispute fees required to appeal a preliminary ruling       2. appealConfirmCollateralFactor Permyriad multiple of dispute fees required to confirm appeal",
          "_feeToken": "Address of the token contract that is used to pay for fees",
          "_fees": "Array containing:       0. jurorFee Amount of fee tokens that is paid per juror per dispute       1. draftFee Amount of fee tokens per juror to cover the drafting cost       2. settleFee Amount of fee tokens per juror to cover round settlement cost",
          "_fromTermId": "Identification number of the term in which the config will be effective at",
          "_minActiveBalance": "Minimum amount of juror tokens that can be activated",
          "_pcts": "Array containing:       0. penaltyPct Permyriad of min active tokens balance to be locked to each drafted jurors ( - 1/10,000)       1. finalRoundReduction Permyriad of fee reduction for the last appeal round ( - 1/10,000)",
          "_roundParams": "Array containing params for rounds:       0. firstRoundJurorsNumber Number of jurors to be drafted for the first round of disputes       1. appealStepFactor Increasing factor for the number of jurors of each round of a dispute       2. maxRegularAppealRounds Number of regular appeal rounds before the final round is triggered       3. finalRoundLockTerms Number of terms that a coherent juror in a final round is disallowed to withdraw (to prevent 51% attacks)",
          "_roundStateDurations": "Array containing the durations in terms of the different phases of a dispute:       0. evidenceTerms Max submitting evidence period duration in terms       1. commitTerms Commit period duration in terms       2. revealTerms Reveal period duration in terms       3. appealTerms Appeal period duration in terms       4. appealConfirmationTerms Appeal confirmation period duration in terms"
        }
      },
      "setModule(bytes32,address)": {
        "params": {
          "_addr": "Address of the module to be set",
          "_id": "ID of the module to be set"
        }
      },
      "setModules(bytes32[],address[])": {
        "params": {
          "_addresses": "List of addressed of each the module to be set",
          "_ids": "List of ids of each module to be set"
        }
      }
    }
  },
  "userdoc": {
    "methods": {
      "changeConfigGovernor(address)": {
        "notice": "Change config governor address to `_newConfigGovernor`"
      },
      "changeFundsGovernor(address)": {
        "notice": "Change funds governor address to `_newFundsGovernor`"
      },
      "changeModulesGovernor(address)": {
        "notice": "Change modules governor address to `_newModulesGovernor`"
      },
      "closeEvidencePeriod(uint256)": {
        "notice": "Close the evidence period of dispute #`_disputeId`"
      },
      "createDispute(uint256,bytes)": {
        "notice": "Create a dispute with `_possibleRulings` possible rulings"
      },
      "delayStartTime(uint64)": {
        "notice": "Delay the Court start time to `_newFirstTermStartTime`"
      },
      "ejectFundsGovernor()": {
        "notice": "Remove the funds governor. Set the funds governor to the zero address."
      },
      "ejectModulesGovernor()": {
        "notice": "Remove the modules governor. Set the modules governor to the zero address."
      },
      "ensureCurrentTerm()": {
        "notice": "Ensure that the current term of the Court is up-to-date. If the Court is outdated by more than `MAX_AUTO_TERM_TRANSITIONS_ALLOWED`        terms, the heartbeat function must be called manually instead."
      },
      "ensureCurrentTermRandomness()": {
        "notice": "Ensure that a certain term has its randomness set. As we allow to draft disputes requested for previous terms, if there     were mined more than 256 blocks for the current term, the blockhash of its randomness BN is no longer available, given     round will be able to be drafted in the following term."
      },
      "executeRuling(uint256)": {
        "notice": "Execute the Arbitrable associated to dispute #`_disputeId` based on its final ruling"
      },
      "heartbeat(uint64)": {
        "notice": "Transition up to `_maxRequestedTransitions` terms"
      },
      "setAutomaticWithdrawals(bool)": {
        "notice": "Set the automatic withdrawals config for the sender to `_allowed`"
      },
      "setConfig(uint64,address,uint256[3],uint64[5],uint16[2],uint64[4],uint256[2],uint256)": {
        "notice": "Change Court configuration params"
      },
      "setModule(bytes32,address)": {
        "notice": "Set module `_id` to `_addr`"
      },
      "setModules(bytes32[],address[])": {
        "notice": "Set many modules at once"
      }
    }
  }
}