{
  "contractName": "CourtSubscriptions",
  "abi": [
    {
      "constant": false,
      "inputs": [
        {
          "name": "_token",
          "type": "address"
        },
        {
          "name": "_to",
          "type": "address"
        }
      ],
      "name": "recoverFunds",
      "outputs": [],
      "payable": false,
      "stateMutability": "nonpayable",
      "type": "function"
    },
    {
      "constant": true,
      "inputs": [],
      "name": "currentFeeAmount",
      "outputs": [
        {
          "name": "",
          "type": "uint256"
        }
      ],
      "payable": false,
      "stateMutability": "view",
      "type": "function"
    },
    {
      "constant": true,
      "inputs": [],
      "name": "resumePrePaidPeriods",
      "outputs": [
        {
          "name": "",
          "type": "uint256"
        }
      ],
      "payable": false,
      "stateMutability": "view",
      "type": "function"
    },
    {
      "constant": true,
      "inputs": [],
      "name": "getController",
      "outputs": [
        {
          "name": "",
          "type": "address"
        }
      ],
      "payable": false,
      "stateMutability": "view",
      "type": "function"
    },
    {
      "constant": true,
      "inputs": [],
      "name": "prePaymentPeriods",
      "outputs": [
        {
          "name": "",
          "type": "uint256"
        }
      ],
      "payable": false,
      "stateMutability": "view",
      "type": "function"
    },
    {
      "constant": true,
      "inputs": [],
      "name": "latePaymentPenaltyPct",
      "outputs": [
        {
          "name": "",
          "type": "uint16"
        }
      ],
      "payable": false,
      "stateMutability": "view",
      "type": "function"
    },
    {
      "constant": true,
      "inputs": [],
      "name": "accumulatedGovernorFees",
      "outputs": [
        {
          "name": "",
          "type": "uint256"
        }
      ],
      "payable": false,
      "stateMutability": "view",
      "type": "function"
    },
    {
      "constant": true,
      "inputs": [],
      "name": "currentFeeToken",
      "outputs": [
        {
          "name": "",
          "type": "address"
        }
      ],
      "payable": false,
      "stateMutability": "view",
      "type": "function"
    },
    {
      "constant": true,
      "inputs": [],
      "name": "periodDuration",
      "outputs": [
        {
          "name": "",
          "type": "uint64"
        }
      ],
      "payable": false,
      "stateMutability": "view",
      "type": "function"
    },
    {
      "constant": true,
      "inputs": [],
      "name": "governorSharePct",
      "outputs": [
        {
          "name": "",
          "type": "uint16"
        }
      ],
      "payable": false,
      "stateMutability": "view",
      "type": "function"
    },
    {
      "inputs": [
        {
          "name": "_controller",
          "type": "address"
        },
        {
          "name": "_periodDuration",
          "type": "uint64"
        },
        {
          "name": "_feeToken",
          "type": "address"
        },
        {
          "name": "_feeAmount",
          "type": "uint256"
        },
        {
          "name": "_prePaymentPeriods",
          "type": "uint256"
        },
        {
          "name": "_resumePrePaidPeriods",
          "type": "uint256"
        },
        {
          "name": "_latePaymentPenaltyPct",
          "type": "uint16"
        },
        {
          "name": "_governorSharePct",
          "type": "uint16"
        }
      ],
      "payable": false,
      "stateMutability": "nonpayable",
      "type": "constructor"
    },
    {
      "anonymous": false,
      "inputs": [
        {
          "indexed": true,
          "name": "subscriber",
          "type": "address"
        },
        {
          "indexed": false,
          "name": "periods",
          "type": "uint256"
        },
        {
          "indexed": false,
          "name": "newLastPeriodId",
          "type": "uint256"
        },
        {
          "indexed": false,
          "name": "collectedFees",
          "type": "uint256"
        },
        {
          "indexed": false,
          "name": "governorFee",
          "type": "uint256"
        }
      ],
      "name": "FeesPaid",
      "type": "event"
    },
    {
      "anonymous": false,
      "inputs": [
        {
          "indexed": true,
          "name": "payer",
          "type": "address"
        },
        {
          "indexed": false,
          "name": "amount",
          "type": "uint256"
        }
      ],
      "name": "FeesDonated",
      "type": "event"
    },
    {
      "anonymous": false,
      "inputs": [
        {
          "indexed": true,
          "name": "juror",
          "type": "address"
        },
        {
          "indexed": true,
          "name": "periodId",
          "type": "uint256"
        },
        {
          "indexed": false,
          "name": "jurorShare",
          "type": "uint256"
        }
      ],
      "name": "FeesClaimed",
      "type": "event"
    },
    {
      "anonymous": false,
      "inputs": [
        {
          "indexed": false,
          "name": "amount",
          "type": "uint256"
        }
      ],
      "name": "GovernorFeesTransferred",
      "type": "event"
    },
    {
      "anonymous": false,
      "inputs": [
        {
          "indexed": false,
          "name": "previousFeeToken",
          "type": "address"
        },
        {
          "indexed": false,
          "name": "currentFeeToken",
          "type": "address"
        }
      ],
      "name": "FeeTokenChanged",
      "type": "event"
    },
    {
      "anonymous": false,
      "inputs": [
        {
          "indexed": false,
          "name": "previousFeeAmount",
          "type": "uint256"
        },
        {
          "indexed": false,
          "name": "currentFeeAmount",
          "type": "uint256"
        }
      ],
      "name": "FeeAmountChanged",
      "type": "event"
    },
    {
      "anonymous": false,
      "inputs": [
        {
          "indexed": false,
          "name": "previousPrePaymentPeriods",
          "type": "uint256"
        },
        {
          "indexed": false,
          "name": "currentPrePaymentPeriods",
          "type": "uint256"
        }
      ],
      "name": "PrePaymentPeriodsChanged",
      "type": "event"
    },
    {
      "anonymous": false,
      "inputs": [
        {
          "indexed": false,
          "name": "previousGovernorSharePct",
          "type": "uint16"
        },
        {
          "indexed": false,
          "name": "currentGovernorSharePct",
          "type": "uint16"
        }
      ],
      "name": "GovernorSharePctChanged",
      "type": "event"
    },
    {
      "anonymous": false,
      "inputs": [
        {
          "indexed": false,
          "name": "previousLatePaymentPenaltyPct",
          "type": "uint16"
        },
        {
          "indexed": false,
          "name": "currentLatePaymentPenaltyPct",
          "type": "uint16"
        }
      ],
      "name": "LatePaymentPenaltyPctChanged",
      "type": "event"
    },
    {
      "anonymous": false,
      "inputs": [
        {
          "indexed": false,
          "name": "previousResumePrePaidPeriods",
          "type": "uint256"
        },
        {
          "indexed": false,
          "name": "currentResumePrePaidPeriods",
          "type": "uint256"
        }
      ],
      "name": "ResumePenaltiesChanged",
      "type": "event"
    },
    {
      "anonymous": false,
      "inputs": [
        {
          "indexed": false,
          "name": "token",
          "type": "address"
        },
        {
          "indexed": false,
          "name": "recipient",
          "type": "address"
        },
        {
          "indexed": false,
          "name": "balance",
          "type": "uint256"
        }
      ],
      "name": "RecoverFunds",
      "type": "event"
    },
    {
      "constant": false,
      "inputs": [
        {
          "name": "_to",
          "type": "address"
        },
        {
          "name": "_periods",
          "type": "uint256"
        }
      ],
      "name": "payFees",
      "outputs": [],
      "payable": false,
      "stateMutability": "nonpayable",
      "type": "function"
    },
    {
      "constant": false,
      "inputs": [
        {
          "name": "_periods",
          "type": "uint256"
        }
      ],
      "name": "resume",
      "outputs": [],
      "payable": false,
      "stateMutability": "nonpayable",
      "type": "function"
    },
    {
      "constant": false,
      "inputs": [
        {
          "name": "_amount",
          "type": "uint256"
        }
      ],
      "name": "donate",
      "outputs": [],
      "payable": false,
      "stateMutability": "nonpayable",
      "type": "function"
    },
    {
      "constant": false,
      "inputs": [
        {
          "name": "_periodId",
          "type": "uint256"
        }
      ],
      "name": "claimFees",
      "outputs": [],
      "payable": false,
      "stateMutability": "nonpayable",
      "type": "function"
    },
    {
      "constant": false,
      "inputs": [],
      "name": "pause",
      "outputs": [],
      "payable": false,
      "stateMutability": "nonpayable",
      "type": "function"
    },
    {
      "constant": false,
      "inputs": [],
      "name": "transferFeesToGovernor",
      "outputs": [],
      "payable": false,
      "stateMutability": "nonpayable",
      "type": "function"
    },
    {
      "constant": false,
      "inputs": [
        {
          "name": "_periodId",
          "type": "uint256"
        }
      ],
      "name": "ensurePeriodBalanceDetails",
      "outputs": [
        {
          "name": "periodBalanceCheckpoint",
          "type": "uint64"
        },
        {
          "name": "totalActiveBalance",
          "type": "uint256"
        }
      ],
      "payable": false,
      "stateMutability": "nonpayable",
      "type": "function"
    },
    {
      "constant": false,
      "inputs": [
        {
          "name": "_feeAmount",
          "type": "uint256"
        }
      ],
      "name": "setFeeAmount",
      "outputs": [],
      "payable": false,
      "stateMutability": "nonpayable",
      "type": "function"
    },
    {
      "constant": false,
      "inputs": [
        {
          "name": "_feeToken",
          "type": "address"
        },
        {
          "name": "_feeAmount",
          "type": "uint256"
        }
      ],
      "name": "setFeeToken",
      "outputs": [],
      "payable": false,
      "stateMutability": "nonpayable",
      "type": "function"
    },
    {
      "constant": false,
      "inputs": [
        {
          "name": "_prePaymentPeriods",
          "type": "uint256"
        }
      ],
      "name": "setPrePaymentPeriods",
      "outputs": [],
      "payable": false,
      "stateMutability": "nonpayable",
      "type": "function"
    },
    {
      "constant": false,
      "inputs": [
        {
          "name": "_latePaymentPenaltyPct",
          "type": "uint16"
        }
      ],
      "name": "setLatePaymentPenaltyPct",
      "outputs": [],
      "payable": false,
      "stateMutability": "nonpayable",
      "type": "function"
    },
    {
      "constant": false,
      "inputs": [
        {
          "name": "_governorSharePct",
          "type": "uint16"
        }
      ],
      "name": "setGovernorSharePct",
      "outputs": [],
      "payable": false,
      "stateMutability": "nonpayable",
      "type": "function"
    },
    {
      "constant": false,
      "inputs": [
        {
          "name": "_resumePrePaidPeriods",
          "type": "uint256"
        }
      ],
      "name": "setResumePrePaidPeriods",
      "outputs": [],
      "payable": false,
      "stateMutability": "nonpayable",
      "type": "function"
    },
    {
      "constant": true,
      "inputs": [
        {
          "name": "_subscriber",
          "type": "address"
        }
      ],
      "name": "isUpToDate",
      "outputs": [
        {
          "name": "",
          "type": "bool"
        }
      ],
      "payable": false,
      "stateMutability": "view",
      "type": "function"
    },
    {
      "constant": true,
      "inputs": [],
      "name": "getCurrentPeriodId",
      "outputs": [
        {
          "name": "",
          "type": "uint256"
        }
      ],
      "payable": false,
      "stateMutability": "view",
      "type": "function"
    },
    {
      "constant": true,
      "inputs": [],
      "name": "getCurrentPeriod",
      "outputs": [
        {
          "name": "feeToken",
          "type": "address"
        },
        {
          "name": "feeAmount",
          "type": "uint256"
        },
        {
          "name": "balanceCheckpoint",
          "type": "uint64"
        },
        {
          "name": "totalActiveBalance",
          "type": "uint256"
        },
        {
          "name": "collectedFees",
          "type": "uint256"
        }
      ],
      "payable": false,
      "stateMutability": "view",
      "type": "function"
    },
    {
      "constant": true,
      "inputs": [
        {
          "name": "_periodId",
          "type": "uint256"
        }
      ],
      "name": "getPeriodBalanceDetails",
      "outputs": [
        {
          "name": "periodBalanceCheckpoint",
          "type": "uint64"
        },
        {
          "name": "totalActiveBalance",
          "type": "uint256"
        }
      ],
      "payable": false,
      "stateMutability": "view",
      "type": "function"
    },
    {
      "constant": true,
      "inputs": [
        {
          "name": "_subscriber",
          "type": "address"
        }
      ],
      "name": "getSubscriber",
      "outputs": [
        {
          "name": "subscribed",
          "type": "bool"
        },
        {
          "name": "paused",
          "type": "bool"
        },
        {
          "name": "lastPaymentPeriodId",
          "type": "uint64"
        },
        {
          "name": "previousDelayedPeriods",
          "type": "uint64"
        }
      ],
      "payable": false,
      "stateMutability": "view",
      "type": "function"
    },
    {
      "constant": true,
      "inputs": [
        {
          "name": "_subscriber",
          "type": "address"
        }
      ],
      "name": "getDelayedPeriods",
      "outputs": [
        {
          "name": "",
          "type": "uint256"
        }
      ],
      "payable": false,
      "stateMutability": "view",
      "type": "function"
    },
    {
      "constant": true,
      "inputs": [
        {
          "name": "_subscriber",
          "type": "address"
        },
        {
          "name": "_periods",
          "type": "uint256"
        }
      ],
      "name": "getPayFeesDetails",
      "outputs": [
        {
          "name": "feeToken",
          "type": "address"
        },
        {
          "name": "amountToPay",
          "type": "uint256"
        },
        {
          "name": "newLastPeriodId",
          "type": "uint256"
        }
      ],
      "payable": false,
      "stateMutability": "view",
      "type": "function"
    },
    {
      "constant": true,
      "inputs": [
        {
          "name": "_subscriber",
          "type": "address"
        }
      ],
      "name": "getOwedFeesDetails",
      "outputs": [
        {
          "name": "feeToken",
          "type": "address"
        },
        {
          "name": "amountToPay",
          "type": "uint256"
        },
        {
          "name": "newLastPeriodId",
          "type": "uint256"
        }
      ],
      "payable": false,
      "stateMutability": "view",
      "type": "function"
    },
    {
      "constant": true,
      "inputs": [
        {
          "name": "_juror",
          "type": "address"
        },
        {
          "name": "_periodId",
          "type": "uint256"
        }
      ],
      "name": "getJurorShare",
      "outputs": [
        {
          "name": "feeToken",
          "type": "address"
        },
        {
          "name": "jurorShare",
          "type": "uint256"
        }
      ],
      "payable": false,
      "stateMutability": "view",
      "type": "function"
    },
    {
      "constant": true,
      "inputs": [
        {
          "name": "_juror",
          "type": "address"
        },
        {
          "name": "_periodId",
          "type": "uint256"
        }
      ],
      "name": "hasJurorClaimed",
      "outputs": [
        {
          "name": "",
          "type": "bool"
        }
      ],
      "payable": false,
      "stateMutability": "view",
      "type": "function"
    }
  ],
  "bytecode": "0x60806040523480156200001157600080fd5b506040516101008062003d0883398101806040526101008110156200003557600080fd5b50805160208083015160408401516060850151608086015160a087015160c088015160e090980151969794969395929491939092889081906200007e908290620002ce811b901c565b6040518060400160405280601b81526020017f4354445f434f4e54524f4c4c45525f4e4f545f434f4e54524143540000000000815250906200015b576040517f08c379a00000000000000000000000000000000000000000000000000000000081526004018080602001828103825283818151815260200191508051906020019080838360005b838110156200011f57818101518382015260200162000105565b50505050905090810190601f1680156200014d5780820380516001836020036101000a031916815260200191505b509250505060405180910390fd5b50600080546001600160a01b0319166001600160a01b03929092169190911790555060408051808201909152601781527f43535f504552494f445f4455524154494f4e5f5a45524f00000000000000000060208201526001600160401b03881662000223576040517f08c379a00000000000000000000000000000000000000000000000000000000081526020600482018181528351602484015283519092839260449091019190850190808383600083156200011f57818101518382015260200162000105565b5060008054600160a01b600160e01b031916740100000000000000000000000000000000000000006001600160401b038a16021790556200026b86620002f3602090811b901c565b6200027c856200042760201b60201c565b6200028d846200050760201b60201c565b6200029e826200068d60201b60201c565b620002af816200072e60201b60201c565b620002c0836200088760201b60201c565b505050505050505062000be5565b60006001600160a01b038216620002e857506000620002ee565b50803b15155b919050565b6200030481620002ce60201b60201c565b6040518060400160405280601981526020017f43535f4645455f544f4b454e5f4e4f545f434f4e54524143540000000000000081525090620003a3576040517f08c379a00000000000000000000000000000000000000000000000000000000081526020600482018181528351602484015283519092839260449091019190850190808383600083156200011f57818101518382015260200162000105565b5060055415620003bd57620003bd6200096f60201b60201c565b600154604080516001600160a01b039283168152918316602083015280517f1080b8de45190ac9d8745f3724225c9b50b849890e73595c4403edd52b9493709281900390910190a1600180546001600160a01b0319166001600160a01b0392909216919091179055565b60408051808201909152601281527f43535f4645455f414d4f554e545f5a45524f0000000000000000000000000000602082015281620004c4576040517f08c379a00000000000000000000000000000000000000000000000000000000081526020600482018181528351602484015283519092839260449091019190850190808383600083156200011f57818101518382015260200162000105565b50600254604080519182526020820183905280517f628999ddb8cc6bb99cec0350ca6e43277be4a15b13e849d3e532cada20effa829281900390910190a1600255565b60408051808201909152601a81527f43535f5052455041594d454e545f504552494f44535f5a45524f000000000000602082015281620005a4576040517f08c379a00000000000000000000000000000000000000000000000000000000081526020600482018181528351602484015283519092839260449091019190850190808383600083156200011f57818101518382015260200162000105565b506004548110156040518060400160405280601e81526020017f43535f524553554d455f5052455f504149445f504552494f44535f4249470000815250906200064a576040517f08c379a00000000000000000000000000000000000000000000000000000000081526020600482018181528351602484015283519092839260449091019190850190808383600083156200011f57818101518382015260200162000105565b50600354604080519182526020820183905280517f4250689f302002c7a5d16d204db28ba5f50190081ed4fa93e6254c1db1ebe1419281900390910190a1600355565b6000546040805161ffff7c010000000000000000000000000000000000000000000000000000000090930483168152918316602083015280517f95b30c5823523338cceacb3f088dd8ddba9e49ecf086cd8311cc9f2a51755e5f9281900390910190a16000805461ffff9092167c010000000000000000000000000000000000000000000000000000000002600160e01b61ffff0219909216919091179055565b620007448162000a8260201b62002e341760201c565b6040518060400160405280601f81526020017f43535f4f56455252415445445f474f5645524e4f525f53484152455f5043540081525090620007e3576040517f08c379a00000000000000000000000000000000000000000000000000000000081526020600482018181528351602484015283519092839260449091019190850190808383600083156200011f57818101518382015260200162000105565b506000546040805161ffff7e0100000000000000000000000000000000000000000000000000000000000090930483168152918316602083015280517f16b68bb17a802748657198a6c1752356706af9761fed9a0aec01e18dbab22e3d9281900390910190a16000805461ffff9092167e01000000000000000000000000000000000000000000000000000000000000026001600160f01b03909216919091179055565b6003548111156040518060400160405280601e81526020017f43535f524553554d455f5052455f504149445f504552494f44535f4249470000815250906200092c576040517f08c379a00000000000000000000000000000000000000000000000000000000081526020600482018181528351602484015283519092839260449091019190850190808383600083156200011f57818101518382015260200162000105565b50600454604080519182526020820183905280517fec8da95e790f837a162434052aacad1a02c3ac922306093a55b37d08bc189d1d9281900390910190a1600455565b6005805460009091556040805182815290517f8d4b456a5bf2af7af0c51b59d87fd03dec21a0d682d194c3181d3597962d2a6d9181900360200190a1620009df620009bf62000a9160201b60201c565b6001546001600160a01b0316908362000b14602090811b62001ba717901c565b6040518060400160405280601881526020017f43535f544f4b454e5f5452414e534645525f4641494c454400000000000000008152509062000a7e576040517f08c379a00000000000000000000000000000000000000000000000000000000081526020600482018181528351602484015283519092839260449091019190850190808383600083156200011f57818101518382015260200162000105565b5050565b61271061ffff82161115919050565b60008060009054906101000a90046001600160a01b03166001600160a01b03166397023f816040518163ffffffff1660e01b815260040160206040518083038186803b15801562000ae157600080fd5b505afa15801562000af6573d6000803e3d6000fd5b505050506040513d602081101562000b0d57600080fd5b5051905090565b604080516001600160a01b03841660248201526044808201849052825180830390910181526064909101909152602081810180516001600160e01b03167fa9059cbb000000000000000000000000000000000000000000000000000000001790526000919062000b8c908690839062000b95811b901c565b95945050505050565b6000806040516020818551602087016000895af1801562000bdb573d801562000bc7576020811462000bd15762000bd9565b6001935062000bd9565b600183511493505b505b5090949350505050565b6131138062000bf56000396000f3fe608060405234801561001057600080fd5b506004361061020b5760003560e01c8063831918821161012a578063de974ba4116100bd578063f06392671161008c578063fcdecfd011610071578063fcdecfd014610650578063fd13b07d14610658578063fd8e3934146106755761020b565b8063f063926714610616578063f14faf6f146106335761020b565b8063de974ba41461053e578063ded774291461056a578063e786a53914610587578063e8f45561146105c75761020b565b8063b2eed6dd116100f9578063b2eed6dd146104dd578063b470aade146104e5578063bf416be61461050a578063d49e3c88146105365761020b565b806383191882146104665780638456cb591461048c5780638f904a2114610494578063ac68a748146104c05761020b565b8063396b6247116101a2578063689e770011610171578063689e7700146103df5780636b392680146104005780637b8bc6451461041d578063830257371461045e5761020b565b8063396b624714610343578063414000b51461034b5780635a7dca57146103685780635abf3838146103875761020b565b80632d725d06116101de5780632d725d06146102f55780632db9d4f41461030f5780633018205f1461031757806338ca029a1461033b5761020b565b8063086146d2146102105780630a771c251461025657806324ae6a27146102a457806329577d51146102d4575b600080fd5b61021861069b565b604080516001600160a01b039096168652602086019490945267ffffffffffffffff9092168484015260608401526080830152519081900360a00190f35b61027c6004803603602081101561026c57600080fd5b50356001600160a01b03166106fd565b604080516001600160a01b039094168452602084019290925282820152519081900360600190f35b6102d2600480360360408110156102ba57600080fd5b506001600160a01b038135811691602001351661078f565b005b6102d2600480360360208110156102ea57600080fd5b503561ffff16610ad9565b6102fd610b87565b60408051918252519081900360200190f35b6102fd610b8d565b61031f610b93565b604080516001600160a01b039092168252519081900360200190f35b6102fd610ba2565b6102fd610ba8565b6102d26004803603602081101561036157600080fd5b5035610bb7565b610370610c8e565b6040805161ffff9092168252519081900360200190f35b6103ad6004803603602081101561039d57600080fd5b50356001600160a01b0316610c9f565b604080519415158552921515602085015267ffffffffffffffff91821684840152166060830152519081900360800190f35b6102d2600480360360208110156103f557600080fd5b503561ffff16610ceb565b6102d26004803603602081101561041657600080fd5b5035610d96565b61043a6004803603602081101561043357600080fd5b5035610e41565b6040805167ffffffffffffffff909316835260208301919091528051918290030190f35b6102fd610e57565b6102fd6004803603602081101561047c57600080fd5b50356001600160a01b0316610e5d565b6102d2610e94565b61027c600480360360408110156104aa57600080fd5b506001600160a01b038135169060200135610fad565b6102d2600480360360208110156104d657600080fd5b503561100d565b61031f6112f1565b6104ed611300565b6040805167ffffffffffffffff9092168252519081900360200190f35b6102d26004803603604081101561052057600080fd5b506001600160a01b038135169060200135611328565b6102d26113e0565b6102d26004803603604081101561055457600080fd5b506001600160a01b038135169060200135611476565b6102d26004803603602081101561058057600080fd5b5035611548565b6105b36004803603604081101561059d57600080fd5b506001600160a01b0381351690602001356115f3565b604080519115158252519081900360200190f35b6105f3600480360360408110156105dd57600080fd5b506001600160a01b038135169060200135611623565b604080516001600160a01b03909316835260208301919091528051918290030190f35b6102d26004803603602081101561062c57600080fd5b5035611687565b6102d26004803603602081101561064957600080fd5b5035611732565b6103706118d5565b61043a6004803603602081101561066e57600080fd5b50356118e6565b6105b36004803603602081101561068b57600080fd5b50356001600160a01b031661190a565b6000806000806000806106ac611965565b60009081526007602052604090208054600182015460028301546003909301546001600160a01b03680100000000000000008404169a91995067ffffffffffffffff90921697509195509350915050565b6001600160a01b03811660009081526006602052604081208190819081610722611965565b905060006107308383611a4e565b60008381526007602052604081209192509061074b90611ad9565b9097509050816107725783546000965062010000900467ffffffffffffffff169450610784565b61077e84838584611b1b565b90965094505b505050509193909250565b6000809054906101000a90046001600160a01b03166001600160a01b0316633c28e88b6040518163ffffffff1660e01b815260040160206040518083038186803b1580156107dc57600080fd5b505afa1580156107f0573d6000803e3d6000fd5b505050506040513d602081101561080657600080fd5b505160408051808201909152601d81527f4354445f53454e4445525f4e4f545f46554e44535f474f5645524e4f520000006020820152906001600160a01b031633146108d357604051600160e51b62461bcd0281526004018080602001828103825283818151815260200191508051906020019080838360005b83811015610898578181015183820152602001610880565b50505050905090810190601f1680156108c55780820380516001836020036101000a031916815260200191505b509250505060405180910390fd5b50604080517f70a0823100000000000000000000000000000000000000000000000000000000815230600482015290516000916001600160a01b038516916370a0823191602480820192602092909190829003018186803b15801561093757600080fd5b505afa15801561094b573d6000803e3d6000fd5b505050506040513d602081101561096157600080fd5b505160408051808201909152601e81527f4354445f494e53554646494349454e545f5245434f5645525f46554e445300006020820152909150816109e957604051600160e51b62461bcd028152602060048201818152835160248401528351909283926044909101919085019080838360008315610898578181015183820152602001610880565b50610a046001600160a01b038416838363ffffffff611ba716565b6040518060400160405280601e81526020017f4354445f5245434f5645525f544f4b454e5f46554e44535f4641494c4544000081525090610a8957604051600160e51b62461bcd028152602060048201818152835160248401528351909283926044909101919085019080838360008315610898578181015183820152602001610880565b50604080516001600160a01b0380861682528416602082015280820183905290517f724139fea3954691c2c1ee02b3be6be1763b32ec84841f1acad6d3a18695ba0d9181900360600190a1505050565b610ae1611c32565b6001600160a01b0316336001600160a01b0316146040518060400160405280601e81526020017f4354445f53454e4445525f4e4f545f434f4e4649475f474f5645524e4f52000081525090610b7a57604051600160e51b62461bcd028152602060048201818152835160248401528351909283926044909101919085019080838360008315610898578181015183820152602001610880565b50610b8481611cb2565b50565b60025481565b60045481565b6000546001600160a01b031690565b60035481565b6000610bb2611965565b905090565b3360009081526006602090815260409182902080548351808501909452601a84527f43535f535542534352495054494f4e5f4e4f545f504155534544000000000000928401929092529190610100900460ff16610c5857604051600160e51b62461bcd028152602060048201818152835160248401528351909283926044909101919085019080838360008315610898578181015183820152602001610880565b50610c6581333385611dc5565b80547fffffffffffffffffffffffffffff0000000000000000ffffffffffffffff00ff16905550565b600054600160e01b900461ffff1681565b6001600160a01b031660009081526006602052604090205460ff8082169261010083049091169167ffffffffffffffff6201000082048116926a01000000000000000000009092041690565b610cf3611c32565b6001600160a01b0316336001600160a01b0316146040518060400160405280601e81526020017f4354445f53454e4445525f4e4f545f434f4e4649475f474f5645524e4f52000081525090610d8c57604051600160e51b62461bcd028152602060048201818152835160248401528351909283926044909101919085019080838360008315610898578181015183820152602001610880565b50610b8481612025565b610d9e611c32565b6001600160a01b0316336001600160a01b0316146040518060400160405280601e81526020017f4354445f53454e4445525f4e4f545f434f4e4649475f474f5645524e4f52000081525090610e3757604051600160e51b62461bcd028152602060048201818152835160248401528351909283926044909101919085019080838360008315610898578181015183820152602001610880565b50610b84816120ab565b600080610e4d83612171565b915091505b915091565b60055481565b6001600160a01b038116600090815260066020526040812081610e7e611965565b9050610e8a8282612330565b925050505b919050565b3360009081526006602090815260409182902080548351808501909452601884527f43535f53454e4445525f4e4f545f53554253435249424544000000000000000092840192909252919060ff16610f3057604051600160e51b62461bcd028152602060048201818152835160248401528351909283926044909101919085019080838360008315610898578181015183820152602001610880565b50610f4281610f3d611965565b612330565b81547fffffffffffffffffffffffffffffffffffffffffffffffffffffffffffff00ff67ffffffffffffffff929092166a0100000000000000000000027fffffffffffffffffffffffffffff0000000000000000ffffffffffffffffffff9091161716610100179055565b6001600160a01b03821660009081526006602052604081208190819081610fd2611965565b600081815260076020526040812091925090610fed90611ad9565b9096509050610ffe83888484611b1b565b96999098509596505050505050565b611015611965565b81106040518060400160405280601281526020017f43535f4e4f4e5f504153545f504552494f4400000000000000000000000000008152509061109c57604051600160e51b62461bcd028152602060048201818152835160248401528351909283926044909101919085019080838360008315610898578181015183820152602001610880565b50600081815260076020908152604080832033845260048101835292819020548151808301909252601d82527f43535f4a55524f525f464545535f414c52454144595f434c41494d4544000000928201929092529060ff161561114357604051600160e51b62461bcd028152602060048201818152835160248401528351909283926044909101919085019080838360008315610898578181015183820152602001610880565b5060008061115184846123a3565b91509150600061116333858585612412565b9050600081116040518060400160405280601981526020017f43535f4a55524f525f4e4f5448494e475f544f5f434c41494d00000000000000815250906111ee57604051600160e51b62461bcd028152602060048201818152835160248401528351909283926044909101919085019080838360008315610898578181015183820152602001610880565b50336000818152600486016020908152604091829020805460ff19166001179055815184815291518893927f1ac537f0ad67b64ac68a04587ff3a4cb6977de22eb2c37ee560897a92c6d07c792908290030190a38354611264906801000000000000000090046001600160a01b03163383611ba7565b6040518060400160405280601881526020017f43535f544f4b454e5f5452414e534645525f4641494c45440000000000000000815250906112e957604051600160e51b62461bcd028152602060048201818152835160248401528351909283926044909101919085019080838360008315610898578181015183820152602001610880565b505050505050565b6001546001600160a01b031681565b60005474010000000000000000000000000000000000000000900467ffffffffffffffff1681565b611330611c32565b6001600160a01b0316336001600160a01b0316146040518060400160405280601e81526020017f4354445f53454e4445525f4e4f545f434f4e4649475f474f5645524e4f520000815250906113c957604051600160e51b62461bcd028152602060048201818152835160248401528351909283926044909101919085019080838360008315610898578181015183820152602001610880565b506113d382612500565b6113dc816120ab565b5050565b6000600554116040518060400160405280601b81526020017f43535f474f5645524e4f525f53484152455f464545535f5a45524f00000000008152509061146b57604051600160e51b62461bcd028152602060048201818152835160248401528351909283926044909101919085019080838360008315610898578181015183820152602001610880565b50611474612621565b565b6001600160a01b03821660009081526006602090815260409182902080548351808501909452601684527f43535f535542534352495054494f4e5f50415553454400000000000000000000928401929092529190610100900460ff161561152157604051600160e51b62461bcd028152602060048201818152835160248401528351909283926044909101919085019080838360008315610898578181015183820152602001610880565b5061152e81338585611dc5565b805460ff1661154357805460ff191660011781555b505050565b611550611c32565b6001600160a01b0316336001600160a01b0316146040518060400160405280601e81526020017f4354445f53454e4445525f4e4f545f434f4e4649475f474f5645524e4f520000815250906115e957604051600160e51b62461bcd028152602060048201818152835160248401528351909283926044909101919085019080838360008315610898578181015183820152602001610880565b50610b8481612706565b60008181526007602090815260408083206001600160a01b038616845260040190915290205460ff165b92915050565b600081815260076020526040812060028101548291908290806116535761164986612171565b9092509050611662565b825467ffffffffffffffff1691505b61166e87848484612412565b935061167983611ad9565b509793965092945050505050565b61168f611c32565b6001600160a01b0316336001600160a01b0316146040518060400160405280601e81526020017f4354445f53454e4445525f4e4f545f434f4e4649475f474f5645524e4f5200008152509061172857604051600160e51b62461bcd028152602060048201818152835160248401528351909283926044909101919085019080838360008315610898578181015183820152602001610880565b50610b8481612858565b60408051808201909152601781527f43535f444f4e4154494f4e5f414d4f554e545f5a45524f0000000000000000006020820152816117b557604051600160e51b62461bcd028152602060048201818152835160248401528351909283926044909101919085019080838360008315610898578181015183820152602001610880565b5060006117c0611965565b60008181526007602052604081209192506117da82612926565b5060038301549091506117f3908563ffffffff61299816565b600383015560408051858152905133917f27ef414ce6fa80a9350ddb76cf40cdd3f926f1d61450480b3cd52e7c889a1f93919081900360200190a26118496001600160a01b03821633308763ffffffff612a2d16565b6040518060400160405280601881526020017f43535f544f4b454e5f5452414e534645525f4641494c45440000000000000000815250906118ce57604051600160e51b62461bcd028152602060048201818152835160248401528351909283926044909101919085019080838360008315610898578181015183820152602001610880565b5050505050565b600054600160f01b900461ffff1681565b6000818152600760205260408120819061190084826123a3565b9250925050915091565b6001600160a01b0381166000908152600660205260408120805460ff16801561193a57508054610100900460ff16155b801561195e5750611949611965565b815462010000900467ffffffffffffffff1610155b9392505050565b600080611970612ac1565b905060008167ffffffffffffffff16116040518060400160405280601881526020017f43535f434f5552545f4841535f4e4f545f53544152544544000000000000000081525090611a0557604051600160e51b62461bcd028152602060048201818152835160248401528351909283926044909101919085019080838360008315610898578181015183820152602001610880565b506000805467ffffffffffffffff7401000000000000000000000000000000000000000090910481169060001984011681611a3c57fe5b0467ffffffffffffffff169392505050565b815460009060ff16611a625750600161161d565b825462010000900467ffffffffffffffff166000611a808585612330565b8554909150610100900460ff168015611a9b57508382600101105b15611abc57600454611ab3908263ffffffff61299816565b9250505061161d565b838210611ace5760009250505061161d565b600101949350505050565b80546801000000000000000090046001600160a01b0316600081611b105750506001546002546001600160a01b0390911690610e52565b506001820154915091565b600080808080611b2c898989612b03565b929650909450925090506000611b5887611b4c868563ffffffff61299816565b9063ffffffff612d1c16565b6000805491925090611b8590600160e01b900461ffff16611b79868b612d1c565b9063ffffffff612dbf16565b9050611b97828263ffffffff61299816565b9650505050505094509492505050565b604080516001600160a01b038416602482015260448082018490528251808303909101815260649091019091526020810180517bffffffffffffffffffffffffffffffffffffffffffffffffffffffff167fa9059cbb00000000000000000000000000000000000000000000000000000000179052600090611c298582612de9565b95945050505050565b60008060009054906101000a90046001600160a01b03166001600160a01b03166397023f816040518163ffffffff1660e01b815260040160206040518083038186803b158015611c8157600080fd5b505afa158015611c95573d6000803e3d6000fd5b505050506040513d6020811015611cab57600080fd5b5051905090565b611cbb81612e34565b6040518060400160405280601f81526020017f43535f4f56455252415445445f474f5645524e4f525f53484152455f5043540081525090611d4057604051600160e51b62461bcd028152602060048201818152835160248401528351909283926044909101919085019080838360008315610898578181015183820152602001610880565b506000546040805161ffff600160f01b90930483168152918316602083015280517f16b68bb17a802748657198a6c1752356706af9761fed9a0aec01e18dbab22e3d9281900390910190a16000805461ffff909216600160f01b027dffffffffffffffffffffffffffffffffffffffffffffffffffffffffffff909216919091179055565b60408051808201909152601681527f43535f504159494e475f5a45524f5f504552494f445300000000000000000000602082015281611e4857604051600160e51b62461bcd028152602060048201818152835160248401528351909283926044909101919085019080838360008315610898578181015183820152602001610880565b506000611e53611965565b600081815260076020526040812091925080611e6e83612926565b91509150600080611e818a888886611b1b565b6000805492945090925090611ea2908490600160f01b900461ffff16612e43565b600554909150611eb8908263ffffffff61299816565b6005556000611ecd848363ffffffff612e5c16565b6003880154909150611ee5908263ffffffff61299816565b60038801558b5467ffffffffffffffff841662010000027fffffffffffffffffffffffffffffffffffffffffffff0000000000000000ffff909116178c55604080518a8152602081018590528082018390526060810184905290516001600160a01b038c16917f490965cdfe01182ccdb9781fc760b4655fbf35e70e531d1572fd0bb96adb92b7919081900360800190a2611f916001600160a01b0387168c308763ffffffff612a2d16565b6040518060400160405280601881526020017f43535f544f4b454e5f5452414e534645525f4641494c454400000000000000008152509061201657604051600160e51b62461bcd028152602060048201818152835160248401528351909283926044909101919085019080838360008315610898578181015183820152602001610880565b50505050505050505050505050565b6000546040805161ffff600160e01b90930483168152918316602083015280517f95b30c5823523338cceacb3f088dd8ddba9e49ecf086cd8311cc9f2a51755e5f9281900390910190a16000805461ffff909216600160e01b027fffff0000ffffffffffffffffffffffffffffffffffffffffffffffffffffffff909216919091179055565b60408051808201909152601281527f43535f4645455f414d4f554e545f5a45524f000000000000000000000000000060208201528161212e57604051600160e51b62461bcd028152602060048201818152835160248401528351909283926044909101919085019080838360008315610898578181015183820152602001610880565b50600254604080519182526020820183905280517f628999ddb8cc6bb99cec0350ca6e43277be4a15b13e849d3e532cada20effa829281900390910190a1600255565b600080600061217f84612eee565b9050600061219c61219786600163ffffffff61299816565b612eee565b905060006121a8610b93565b90506000816001600160a01b03166361f3be6a846040518263ffffffff1660e01b8152600401808267ffffffffffffffff1667ffffffffffffffff16815260200191505060206040518083038186803b15801561220457600080fd5b505afa158015612218573d6000803e3d6000fd5b505050506040513d602081101561222e57600080fd5b5051905080612246576001612241612f39565b034090505b6000612250612f3d565b60005490915061229d9074010000000000000000000000000000000000000000900467ffffffffffffffff16838161228457fe5b67ffffffffffffffff881691900663ffffffff612f8c16565b9650806001600160a01b0316638e127793886040518263ffffffff1660e01b8152600401808267ffffffffffffffff1667ffffffffffffffff16815260200191505060206040518083038186803b1580156122f757600080fd5b505afa15801561230b573d6000803e3d6000fd5b505050506040513d602081101561232157600080fd5b50519698969750505050505050565b815460009060ff166123445750600061161d565b8254610100900460ff1615612373575081546a0100000000000000000000900467ffffffffffffffff1661161d565b825462010000900467ffffffffffffffff1682811061239657600091505061161d565b9091036000190192915050565b6002810154600090806123fc576123b984612171565b84547fffffffffffffffffffffffffffffffffffffffffffffffff00000000000000001667ffffffffffffffff831617855560028501819055909250905061240b565b825467ffffffffffffffff1691505b9250929050565b60008061241d612f3d565b604080517fe9e67d670000000000000000000000000000000000000000000000000000000081526001600160a01b03898116600483015267ffffffffffffffff8816602483015291519293506000929184169163e9e67d6791604480820192602092909190829003018186803b15801561249657600080fd5b505afa1580156124aa573d6000803e3d6000fd5b505050506040513d60208110156124c057600080fd5b50519050806124d4576000925050506124f8565b600386015484906124eb908363ffffffff612d1c16565b816124f257fe5b04925050505b949350505050565b61250981613026565b6040518060400160405280601981526020017f43535f4645455f544f4b454e5f4e4f545f434f4e5452414354000000000000008152509061258e57604051600160e51b62461bcd028152602060048201818152835160248401528351909283926044909101919085019080838360008315610898578181015183820152602001610880565b506005541561259f5761259f612621565b600154604080516001600160a01b039283168152918316602083015280517f1080b8de45190ac9d8745f3724225c9b50b849890e73595c4403edd52b9493709281900390910190a1600180547fffffffffffffffffffffffff0000000000000000000000000000000000000000166001600160a01b0392909216919091179055565b6005805460009091556040805182815290517f8d4b456a5bf2af7af0c51b59d87fd03dec21a0d682d194c3181d3597962d2a6d9181900360200190a1612681612668611c32565b6001546001600160a01b0316908363ffffffff611ba716565b6040518060400160405280601881526020017f43535f544f4b454e5f5452414e534645525f4641494c45440000000000000000815250906113dc57604051600160e51b62461bcd028152602060048201818152835160248401528351909283926044909101919085019080838360008315610898578181015183820152602001610880565b60408051808201909152601a81527f43535f5052455041594d454e545f504552494f44535f5a45524f00000000000060208201528161278957604051600160e51b62461bcd028152602060048201818152835160248401528351909283926044909101919085019080838360008315610898578181015183820152602001610880565b506004548110156040518060400160405280601e81526020017f43535f524553554d455f5052455f504149445f504552494f44535f42494700008152509061281557604051600160e51b62461bcd028152602060048201818152835160248401528351909283926044909101919085019080838360008315610898578181015183820152602001610880565b50600354604080519182526020820183905280517f4250689f302002c7a5d16d204db28ba5f50190081ed4fa93e6254c1db1ebe1419281900390910190a1600355565b6003548111156040518060400160405280601e81526020017f43535f524553554d455f5052455f504149445f504552494f44535f4249470000815250906128e357604051600160e51b62461bcd028152602060048201818152835160248401528351909283926044909101919085019080838360008315610898578181015183820152602001610880565b50600454604080519182526020820183905280517fec8da95e790f837a162434052aacad1a02c3ac922306093a55b37d08bc189d1d9281900390910190a1600455565b80546801000000000000000090046001600160a01b0316600081611b105750506001805482547fffffffff0000000000000000000000000000000000000000ffffffffffffffff166001600160a01b039091166801000000000000000081029190911783556002549290910182905591565b60408051808201909152601181527f4d4154485f4144445f4f564552464c4f5700000000000000000000000000000060208201526000908383019084821015612a2557604051600160e51b62461bcd028152602060048201818152835160248401528351909283926044909101919085019080838360008315610898578181015183820152602001610880565b509392505050565b604080516001600160a01b0385811660248301528416604482015260648082018490528251808303909101815260849091019091526020810180517bffffffffffffffffffffffffffffffffffffffffffffffffffffffff167f23b872dd00000000000000000000000000000000000000000000000000000000179052600090612ab78682612de9565b9695505050505050565b6000612acb610b93565b6001600160a01b03166308135a936040518163ffffffff1660e01b815260040160206040518083038186803b158015611c8157600080fd5b825460009081908190819067ffffffffffffffff620100008204169060ff16612b4a57869350600092508291506001612b42878663ffffffff61299816565b039450612c6f565b6000612b568988612330565b8954909150610100900460ff168015612b7157508682600101105b15612c3a57600454909350915082612b8f838263ffffffff61299816565b8810156040518060400160405280601d81526020017f43535f4c4f575f524553554d455f504552494f44535f5041594d454e5400000081525090612c1757604051600160e51b62461bcd028152602060048201818152835160248401528351909283926044909101919085019080838360008315610898578181015183820152602001610880565b5082880384900394506001612c32888a63ffffffff61299816565b039550612c6d565b60009250612c4e828963ffffffff61299816565b955087811115612c645760009450879350612c6d565b80880394508093505b505b85851115612d1257600354612c8a868863ffffffff612e5c16565b106040518060400160405280601a81526020017f43535f504159494e475f544f4f5f4d414e595f504552494f445300000000000081525090612d1057604051600160e51b62461bcd028152602060048201818152835160248401528351909283926044909101919085019080838360008315610898578181015183820152602001610880565b505b5093509350935093565b600082612d2b5750600061161d565b82820282848281612d3857fe5b04146040518060400160405280601181526020017f4d4154485f4d554c5f4f564552464c4f5700000000000000000000000000000081525090612a2557604051600160e51b62461bcd028152602060048201818152835160248401528351909283926044909101919085019080838360008315610898578181015183820152602001610880565b6000612710612dda8461ffff8516830163ffffffff612d1c16565b81612de157fe5b049392505050565b6000806040516020818551602087016000895af18015612e2a573d8015612e175760208114612e2057612e28565b60019350612e28565b600183511493505b505b5090949350505050565b61271061ffff82161115919050565b6000612710612dda8461ffff851663ffffffff612d1c16565b6000828211156040518060400160405280601281526020017f4d4154485f5355425f554e444552464c4f57000000000000000000000000000081525090612ee757604051600160e51b62461bcd028152602060048201818152835160248401528351909283926044909101919085019080838360008315610898578181015183820152602001610880565b5050900390565b6000805461161d90612f2b9067ffffffffffffffff858116917401000000000000000000000000000000000000000090041663ffffffff61304516565b60019063ffffffff612f8c16565b4390565b60008060009054906101000a90046001600160a01b03166001600160a01b031663953e46a06040518163ffffffff1660e01b815260040160206040518083038186803b158015611c8157600080fd5b60408051808201909152601381527f4d41544836345f4144445f4f564552464c4f570000000000000000000000000060208201526000908383019067ffffffffffffffff8086169083161015612a2557604051600160e51b62461bcd028152602060048201818152835160248401528351909283926044909101919085019080838360008315610898578181015183820152602001610880565b60006001600160a01b03821661303e57506000610e8f565b503b151590565b60408051808201909152601381527f4d41544836345f4d554c5f4f564552464c4f5700000000000000000000000000602082015260009067ffffffffffffffff8481169084160290680100000000000000008210612a2557604051600160e51b62461bcd02815260206004820181815283516024840152835190928392604490910191908501908083836000831561089857818101518382015260200161088056fea165627a7a723058202049900a3c0df9f15164a9d64bde633f0d514eae35a3bd68906f7f4056f8abac0029",
  "source": "pragma solidity ^0.5.8;\n\nimport \"../lib/os/ERC20.sol\";\nimport \"../lib/os/SafeMath.sol\";\nimport \"../lib/os/SafeMath64.sol\";\nimport \"../lib/os/SafeERC20.sol\";\nimport \"../lib/os/TimeHelpers.sol\";\n\nimport \"./ISubscriptions.sol\";\nimport \"../lib/PctHelpers.sol\";\nimport \"../registry/IJurorsRegistry.sol\";\nimport \"../court/controller/Controller.sol\";\nimport \"../court/controller/ControlledRecoverable.sol\";\n\n\ncontract CourtSubscriptions is ControlledRecoverable, TimeHelpers, ISubscriptions {\n    using SafeERC20 for ERC20;\n    using SafeMath for uint256;\n    using SafeMath64 for uint64;\n    using PctHelpers for uint256;\n\n    string private constant ERROR_SENDER_NOT_SUBSCRIBED = \"CS_SENDER_NOT_SUBSCRIBED\";\n    string private constant ERROR_GOVERNOR_SHARE_FEES_ZERO = \"CS_GOVERNOR_SHARE_FEES_ZERO\";\n    string private constant ERROR_TOKEN_TRANSFER_FAILED = \"CS_TOKEN_TRANSFER_FAILED\";\n    string private constant ERROR_PERIOD_DURATION_ZERO = \"CS_PERIOD_DURATION_ZERO\";\n    string private constant ERROR_FEE_AMOUNT_ZERO = \"CS_FEE_AMOUNT_ZERO\";\n    string private constant ERROR_FEE_TOKEN_NOT_CONTRACT = \"CS_FEE_TOKEN_NOT_CONTRACT\";\n    string private constant ERROR_PREPAYMENT_PERIODS_ZERO = \"CS_PREPAYMENT_PERIODS_ZERO\";\n    string private constant ERROR_OVERRATED_GOVERNOR_SHARE_PCT = \"CS_OVERRATED_GOVERNOR_SHARE_PCT\";\n    string private constant ERROR_RESUME_PRE_PAID_PERIODS_TOO_BIG = \"CS_RESUME_PRE_PAID_PERIODS_BIG\";\n    string private constant ERROR_NON_PAST_PERIOD = \"CS_NON_PAST_PERIOD\";\n    string private constant ERROR_JUROR_FEES_ALREADY_CLAIMED = \"CS_JUROR_FEES_ALREADY_CLAIMED\";\n    string private constant ERROR_JUROR_NOTHING_TO_CLAIM = \"CS_JUROR_NOTHING_TO_CLAIM\";\n    string private constant ERROR_PAYING_ZERO_PERIODS = \"CS_PAYING_ZERO_PERIODS\";\n    string private constant ERROR_PAYING_TOO_MANY_PERIODS = \"CS_PAYING_TOO_MANY_PERIODS\";\n    string private constant ERROR_LOW_RESUME_PERIODS_PAYMENT = \"CS_LOW_RESUME_PERIODS_PAYMENT\";\n    string private constant ERROR_DONATION_AMOUNT_ZERO = \"CS_DONATION_AMOUNT_ZERO\";\n    string private constant ERROR_COURT_HAS_NOT_STARTED = \"CS_COURT_HAS_NOT_STARTED\";\n    string private constant ERROR_SUBSCRIPTION_PAUSED = \"CS_SUBSCRIPTION_PAUSED\";\n    string private constant ERROR_SUBSCRIPTION_NOT_PAUSED = \"CS_SUBSCRIPTION_NOT_PAUSED\";\n\n    // Term 0 is for jurors on-boarding\n    uint64 internal constant START_TERM_ID = 1;\n\n    struct Subscriber {\n        bool subscribed;                        // Whether or not a user has been subscribed to the Court\n        bool paused;                            // Whether or not a user has paused the Court subscriptions\n        uint64 lastPaymentPeriodId;             // Identification number of the last period paid by a subscriber\n        uint64 previousDelayedPeriods;          // Number of delayed periods before pausing\n    }\n\n    struct Period {\n        uint64 balanceCheckpoint;               // Court term ID of a period used to fetch the total active balance of the jurors registry\n        ERC20 feeToken;                         // Fee token corresponding to a certain subscription period\n        uint256 feeAmount;                      // Amount of fees paid for a certain subscription period\n        uint256 totalActiveBalance;             // Total amount of juror tokens active in the Court at the corresponding period checkpoint\n        uint256 collectedFees;                  // Total amount of subscription fees collected during a period\n        mapping (address => bool) claimedFees;  // List of jurors that have claimed fees during a period, indexed by juror address\n    }\n\n    // Duration of a subscription period in Court terms\n    uint64 public periodDuration;\n\n    // Permyriad of subscription fees that will be applied as penalty for not paying during proper period ( - 1/10,000)\n    uint16 public latePaymentPenaltyPct;\n\n    // Permyriad of subscription fees that will be allocated to the governor of the Court ( - 1/10,000)\n    uint16 public governorSharePct;\n\n    // ERC20 token used for the subscription fees\n    ERC20 public currentFeeToken;\n\n    // Amount of fees to be paid for each subscription period\n    uint256 public currentFeeAmount;\n\n    // Number of periods that can be paid in advance including the current period. Paying in advance has some drawbacks:\n    // - Fee amount could increase, while pre-payments would be made with the old rate.\n    // - Fees are distributed among jurors when the payment is made, so jurors activating after a pre-payment won't get their share of it.\n    uint256 public prePaymentPeriods;\n\n    // Number of periods a subscriber must pre-pay in order to resume his activity after pausing\n    uint256 public resumePrePaidPeriods;\n\n    // Total amount of fees accumulated for the governor of the Court\n    uint256 public accumulatedGovernorFees;\n\n    // List of subscribers indexed by address\n    mapping (address => Subscriber) internal subscribers;\n\n    // List of periods indexed by ID\n    mapping (uint256 => Period) internal periods;\n\n    event FeesPaid(address indexed subscriber, uint256 periods, uint256 newLastPeriodId, uint256 collectedFees, uint256 governorFee);\n    event FeesDonated(address indexed payer, uint256 amount);\n    event FeesClaimed(address indexed juror, uint256 indexed periodId, uint256 jurorShare);\n    event GovernorFeesTransferred(uint256 amount);\n    event FeeTokenChanged(address previousFeeToken, address currentFeeToken);\n    event FeeAmountChanged(uint256 previousFeeAmount, uint256 currentFeeAmount);\n    event PrePaymentPeriodsChanged(uint256 previousPrePaymentPeriods, uint256 currentPrePaymentPeriods);\n    event GovernorSharePctChanged(uint16 previousGovernorSharePct, uint16 currentGovernorSharePct);\n    event LatePaymentPenaltyPctChanged(uint16 previousLatePaymentPenaltyPct, uint16 currentLatePaymentPenaltyPct);\n    event ResumePenaltiesChanged(uint256 previousResumePrePaidPeriods, uint256 currentResumePrePaidPeriods);\n\n    /**\n    * @dev Initialize court subscriptions\n    * @param _controller Address of the controller\n    * @param _periodDuration Duration of a subscription period in Court terms\n    * @param _feeToken Initial ERC20 token used for the subscription fees\n    * @param _feeAmount Initial amount of fees to be paid for each subscription period\n    * @param _prePaymentPeriods Initial number of periods that can be paid in advance including the current period\n    * @param _resumePrePaidPeriods Initial number of periods a subscriber must pre-pay in order to resume his activity after pausing\n    * @param _latePaymentPenaltyPct Initial permyriad of subscription fees that will be applied as penalty for not paying during proper period ( - 1/10,000)\n    * @param _governorSharePct Initial permyriad of subscription fees that will be allocated to the governor of the Court ( - 1/10,000)\n    */\n    constructor(\n        Controller _controller,\n        uint64 _periodDuration,\n        ERC20 _feeToken,\n        uint256 _feeAmount,\n        uint256 _prePaymentPeriods,\n        uint256 _resumePrePaidPeriods,\n        uint16 _latePaymentPenaltyPct,\n        uint16 _governorSharePct\n    )\n        ControlledRecoverable(_controller)\n        public\n    {\n        // No need to explicitly call `Controlled` constructor since `ControlledRecoverable` is already doing it\n        require(_periodDuration > 0, ERROR_PERIOD_DURATION_ZERO);\n\n        periodDuration = _periodDuration;\n        _setFeeToken(_feeToken);\n        _setFeeAmount(_feeAmount);\n        _setPrePaymentPeriods(_prePaymentPeriods);\n        _setLatePaymentPenaltyPct(_latePaymentPenaltyPct);\n        _setGovernorSharePct(_governorSharePct);\n        _setResumePrePaidPeriods(_resumePrePaidPeriods);\n    }\n\n    /**\n    * @notice Pay fees on behalf of `_to` for `_periods` periods\n    * @param _to Subscriber whose subscription is being paid\n    * @param _periods Number of periods to be paid in total since the last paid period\n    */\n    function payFees(address _to, uint256 _periods) external {\n        Subscriber storage subscriber = subscribers[_to];\n        require(!subscriber.paused, ERROR_SUBSCRIPTION_PAUSED);\n\n        _payFees(subscriber, msg.sender, _to, _periods);\n\n        // Initialize subscription for the requested subscriber if it is the first time paying fees\n        if (!subscriber.subscribed) {\n            subscriber.subscribed = true;\n        }\n    }\n\n    /**\n    * @notice Resume sender's subscription\n    * @param _periods Number of periods to be paid in total\n    */\n    function resume(uint256 _periods) external {\n        Subscriber storage subscriber = subscribers[msg.sender];\n        require(subscriber.paused, ERROR_SUBSCRIPTION_NOT_PAUSED);\n\n        _payFees(subscriber, msg.sender, msg.sender, _periods);\n\n        subscriber.paused = false;\n        subscriber.previousDelayedPeriods = 0;\n    }\n\n    /**\n    * @notice Donate fees to the Court\n    * @param _amount Amount of fee tokens to be donated\n    */\n    function donate(uint256 _amount) external {\n        require(_amount > 0, ERROR_DONATION_AMOUNT_ZERO);\n\n        uint256 currentPeriodId = _getCurrentPeriodId();\n        Period storage period = periods[currentPeriodId];\n        (ERC20 feeToken, ) = _ensurePeriodFeeTokenAndAmount(period);\n\n        period.collectedFees = period.collectedFees.add(_amount);\n\n        // Deposit fee tokens from sender to this contract\n        emit FeesDonated(msg.sender, _amount);\n        require(feeToken.safeTransferFrom(msg.sender, address(this), _amount), ERROR_TOKEN_TRANSFER_FAILED);\n    }\n\n    /**\n    * @notice Claim proportional share fees for period `_periodId` owed to `msg.sender`\n    * @param _periodId Identification number of the period which fees are claimed for\n    */\n    function claimFees(uint256 _periodId) external {\n        // Juror share fees can only be claimed for past periods\n        require(_periodId < _getCurrentPeriodId(), ERROR_NON_PAST_PERIOD);\n        Period storage period = periods[_periodId];\n        require(!period.claimedFees[msg.sender], ERROR_JUROR_FEES_ALREADY_CLAIMED);\n\n        // Check claiming juror has share fees to be transferred\n        (uint64 periodBalanceCheckpoint, uint256 totalActiveBalance) = _ensurePeriodBalanceDetails(_periodId, period);\n        uint256 jurorShare = _getJurorShare(msg.sender, period, periodBalanceCheckpoint, totalActiveBalance);\n        require(jurorShare > 0, ERROR_JUROR_NOTHING_TO_CLAIM);\n\n        // Update juror state and transfer share fees\n        period.claimedFees[msg.sender] = true;\n        emit FeesClaimed(msg.sender, _periodId, jurorShare);\n        require(period.feeToken.safeTransfer(msg.sender, jurorShare), ERROR_TOKEN_TRANSFER_FAILED);\n    }\n\n    /**\n    * @notice Pause sender subscriptions\n    */\n    function pause() external {\n        Subscriber storage subscriber = subscribers[msg.sender];\n        require(subscriber.subscribed, ERROR_SENDER_NOT_SUBSCRIBED);\n\n        subscriber.previousDelayedPeriods = uint64(_getDelayedPeriods(subscriber, _getCurrentPeriodId()));\n        subscriber.paused = true;\n    }\n\n    /**\n    * @notice Transfer owed fees to the governor\n    */\n    function transferFeesToGovernor() external {\n        require(accumulatedGovernorFees > 0, ERROR_GOVERNOR_SHARE_FEES_ZERO);\n        _transferFeesToGovernor();\n    }\n\n    /**\n    * @notice Make sure that the balance details of a certain period have been computed\n    * @param _periodId Identification number of the period being ensured\n    * @return periodBalanceCheckpoint Court term ID used to fetch the total active balance of the jurors registry\n    * @return totalActiveBalance Total amount of juror tokens active in the Court at the corresponding used checkpoint\n    */\n    function ensurePeriodBalanceDetails(uint256 _periodId) external returns (uint64 periodBalanceCheckpoint, uint256 totalActiveBalance) {\n        Period storage period = periods[_periodId];\n        return _ensurePeriodBalanceDetails(_periodId, period);\n    }\n\n    /**\n    * @notice Set new subscriptions fee amount to `_feeAmount`\n    * @param _feeAmount New amount of fees to be paid for each subscription period\n    */\n    function setFeeAmount(uint256 _feeAmount) external onlyConfigGovernor {\n        _setFeeAmount(_feeAmount);\n    }\n\n    /**\n    * @notice Set new subscriptions fee to `@tokenAmount(_feeToken, _feeAmount)`\n    * @dev Accumulated fees owed to governor (if any) will be transferred\n    * @param _feeToken New ERC20 token to be used for the subscription fees\n    * @param _feeAmount New amount of fees to be paid for each subscription period\n    */\n    function setFeeToken(ERC20 _feeToken, uint256 _feeAmount) external onlyConfigGovernor {\n        // The `setFeeToken` function transfers governor's accumulated fees, so must be executed first.\n        _setFeeToken(_feeToken);\n        _setFeeAmount(_feeAmount);\n    }\n\n    /**\n    * @notice Set new number of pre payment to `_prePaymentPeriods` periods\n    * @param _prePaymentPeriods New number of periods that can be paid in advance\n    */\n    function setPrePaymentPeriods(uint256 _prePaymentPeriods) external onlyConfigGovernor {\n        _setPrePaymentPeriods(_prePaymentPeriods);\n    }\n\n    /**\n    * @notice Set new late payment penalty `_latePaymentPenaltyPct` ( - 1/10,000)\n    * @param _latePaymentPenaltyPct New permyriad of subscription fees that will be applied as penalty for not paying during proper period\n    */\n    function setLatePaymentPenaltyPct(uint16 _latePaymentPenaltyPct) external onlyConfigGovernor {\n        _setLatePaymentPenaltyPct(_latePaymentPenaltyPct);\n    }\n\n    /**\n    * @notice Set new governor share to `_governorSharePct` (1/10,000)\n    * @param _governorSharePct New permyriad of subscription fees that will be allocated to the governor of the Court ( - 1/10,000)\n    */\n    function setGovernorSharePct(uint16 _governorSharePct) external onlyConfigGovernor {\n        _setGovernorSharePct(_governorSharePct);\n    }\n\n    /**\n    * @notice Set new resume pre-paid periods to `_resumePrePaidPeriods`\n    * @param _resumePrePaidPeriods New number of periods a subscriber must pre-pay in order to resume his activity after pausing\n    */\n    function setResumePrePaidPeriods(uint256 _resumePrePaidPeriods) external onlyConfigGovernor {\n        _setResumePrePaidPeriods(_resumePrePaidPeriods);\n    }\n\n    /**\n    * @dev Tell whether a certain subscriber has paid all the fees up to current period or not\n    * @param _subscriber Address of subscriber being checked\n    * @return True if subscriber has paid all the fees up to current period, false otherwise\n    */\n    function isUpToDate(address _subscriber) external view returns (bool) {\n        Subscriber storage subscriber = subscribers[_subscriber];\n        return subscriber.subscribed && !subscriber.paused && subscriber.lastPaymentPeriodId >= _getCurrentPeriodId();\n    }\n\n    /**\n    * @dev Tell the identification number of the current period\n    * @return Identification number of the current period\n    */\n    function getCurrentPeriodId() external view returns (uint256) {\n        return _getCurrentPeriodId();\n    }\n\n    /**\n    * @dev Get details of the current period\n    * @return feeToken Fee token corresponding to a certain subscription period\n    * @return feeAmount Amount of fees paid for a certain subscription period\n    * @return balanceCheckpoint Court term ID of a period used to fetch the total active balance of the jurors registry\n    * @return totalActiveBalance Total amount of juror tokens active in the Court at the corresponding period checkpoint\n    * @return collectedFees Total amount of subscription fees collected during a period\n    */\n    function getCurrentPeriod() external view\n        returns (ERC20 feeToken, uint256 feeAmount, uint64 balanceCheckpoint, uint256 totalActiveBalance, uint256 collectedFees)\n    {\n        uint256 currentPeriodId = _getCurrentPeriodId();\n        Period storage period = periods[currentPeriodId];\n\n        feeToken = period.feeToken;\n        feeAmount = period.feeAmount;\n        balanceCheckpoint = period.balanceCheckpoint;\n        totalActiveBalance = period.totalActiveBalance;\n        collectedFees = period.collectedFees;\n    }\n\n    /**\n    * @dev Tell total active balance of the jurors registry at a random term during a certain period\n    * @param _periodId Identification number of the period being queried\n    * @return periodBalanceCheckpoint Court term ID used to fetch the total active balance of the jurors registry\n    * @return totalActiveBalance Total amount of juror tokens active in the Court at the corresponding used checkpoint\n    */\n    function getPeriodBalanceDetails(uint256 _periodId) external view returns (uint64 periodBalanceCheckpoint, uint256 totalActiveBalance) {\n        return _getPeriodBalanceDetails(_periodId);\n    }\n\n    /**\n    * @dev Tell information associated to a subscriber\n    * @param _subscriber Address of the subscriber being queried\n    * @return subscribed True if the given subscriber has already been subscribed to the Court, false otherwise\n    * @return paused True if the given subscriber has paused the Court subscriptions, false otherwise\n    * @return lastPaymentPeriodId Identification number of the last period paid by the given subscriber\n    * @return previousDelayedPeriods Number of delayed periods the subscriber had before pausing\n    */\n    function getSubscriber(address _subscriber) external view\n        returns (bool subscribed, bool paused, uint64 lastPaymentPeriodId, uint64 previousDelayedPeriods)\n    {\n        Subscriber storage subscriber = subscribers[_subscriber];\n        subscribed = subscriber.subscribed;\n        paused = subscriber.paused;\n        lastPaymentPeriodId = subscriber.lastPaymentPeriodId;\n        previousDelayedPeriods = subscriber.previousDelayedPeriods;\n    }\n\n    /**\n    * @dev Tell the number of overdue payments for a given subscriber\n    * @param _subscriber Address of the subscriber being checked\n    * @return Number of overdue payments for the requested subscriber\n    */\n    function getDelayedPeriods(address _subscriber) external view returns (uint256) {\n        Subscriber storage subscriber = subscribers[_subscriber];\n        uint256 currentPeriodId = _getCurrentPeriodId();\n        return _getDelayedPeriods(subscriber, currentPeriodId);\n    }\n\n    /**\n    * @dev Tell the amount to pay and resulting last paid period for a given subscriber paying for a certain number of periods\n    * @param _subscriber Address of the subscriber being queried\n    * @param _periods Number of periods that would be paid\n    * @return feeToken ERC20 token used for the subscription fees\n    * @return amountToPay Amount of subscription fee tokens to be paid\n    * @return newLastPeriodId Identification number of the resulting last paid period\n    */\n    function getPayFeesDetails(address _subscriber, uint256 _periods) external view\n        returns (ERC20 feeToken, uint256 amountToPay, uint256 newLastPeriodId)\n    {\n        Subscriber storage subscriber = subscribers[_subscriber];\n        uint256 currentPeriodId = _getCurrentPeriodId();\n\n        uint256 feeAmount;\n        (feeToken, feeAmount) = _getPeriodFeeTokenAndAmount(periods[currentPeriodId]);\n        (amountToPay, newLastPeriodId) = _getPayFeesDetails(subscriber, _periods, currentPeriodId, feeAmount);\n    }\n\n    /**\n    * @dev Tell the minimum amount of fees to pay and resulting last paid period for a given subscriber in order to be up-to-date\n    * @param _subscriber Address of the subscriber being queried\n    * @return feeToken ERC20 token used for the subscription fees\n    * @return amountToPay Amount of subscription fee tokens to be paid for all the owed periods\n    * @return newLastPeriodId Identification number of the resulting last paid period\n    */\n    function getOwedFeesDetails(address _subscriber) external view returns (ERC20 feeToken, uint256 amountToPay, uint256 newLastPeriodId) {\n        Subscriber storage subscriber = subscribers[_subscriber];\n        uint256 currentPeriodId = _getCurrentPeriodId();\n        uint256 owedPeriods = _getOwedPeriods(subscriber, currentPeriodId);\n\n        uint256 feeAmount;\n        (feeToken, feeAmount) = _getPeriodFeeTokenAndAmount(periods[currentPeriodId]);\n\n        if (owedPeriods == 0) {\n            amountToPay = 0;\n            newLastPeriodId = subscriber.lastPaymentPeriodId;\n        } else {\n            (amountToPay, newLastPeriodId) = _getPayFeesDetails(subscriber, owedPeriods, currentPeriodId, feeAmount);\n        }\n    }\n\n    /**\n    * @dev Tell the share fees corresponding to a juror for a certain period\n    * @param _juror Address of the juror querying the owed shared fees of\n    * @param _periodId Identification number of the period being queried\n    * @return feeToken Address of the token used for the subscription fees\n    * @return jurorShare Amount of share fees owed to the given juror for the requested period\n    */\n    function getJurorShare(address _juror, uint256 _periodId) external view returns (ERC20 feeToken, uint256 jurorShare) {\n        Period storage period = periods[_periodId];\n        uint64 periodBalanceCheckpoint;\n        uint256 totalActiveBalance = period.totalActiveBalance;\n\n        // Compute period balance details if they were not ensured yet\n        if (totalActiveBalance == 0) {\n            (periodBalanceCheckpoint, totalActiveBalance) = _getPeriodBalanceDetails(_periodId);\n        } else {\n            periodBalanceCheckpoint = period.balanceCheckpoint;\n        }\n\n        // Compute juror share fees using the period balance details\n        jurorShare = _getJurorShare(_juror, period, periodBalanceCheckpoint, totalActiveBalance);\n        (feeToken,) = _getPeriodFeeTokenAndAmount(period);\n    }\n\n    /**\n    * @dev Check if a given juror has already claimed the owed share fees for a certain period\n    * @param _juror Address of the juror being queried\n    * @param _periodId Identification number of the period being queried\n    * @return True if the owed share fees have already been claimed, false otherwise\n    */\n    function hasJurorClaimed(address _juror, uint256 _periodId) external view returns (bool) {\n        return periods[_periodId].claimedFees[_juror];\n    }\n\n    /**\n    * @dev Internal function to pay fees for a subscription\n    * @param _subscriber Subscriber whose subscription is being paid\n    * @param _from Address paying for the subscription fees\n    * @param _to Address of the subscriber whose subscription is being paid\n    * @param _periods Number of periods to be paid in total since the last paid period\n    */\n    function _payFees(Subscriber storage _subscriber, address _from, address _to, uint256 _periods) internal {\n        require(_periods > 0, ERROR_PAYING_ZERO_PERIODS);\n\n        // Ensure fee token data for the current period\n        uint256 currentPeriodId = _getCurrentPeriodId();\n        Period storage period = periods[currentPeriodId];\n        (ERC20 feeToken, uint256 feeAmount) = _ensurePeriodFeeTokenAndAmount(period);\n\n        // Compute the total amount to pay by sender including the penalties for delayed periods\n        (uint256 amountToPay, uint256 newLastPeriodId) = _getPayFeesDetails(_subscriber, _periods, currentPeriodId, feeAmount);\n\n        // Compute the portion of the total amount to pay that will be allocated to the governor\n        uint256 governorFee = amountToPay.pct(governorSharePct);\n        accumulatedGovernorFees = accumulatedGovernorFees.add(governorFee);\n\n        // Update collected fees for the jurors\n        uint256 collectedFees = amountToPay.sub(governorFee);\n        period.collectedFees = period.collectedFees.add(collectedFees);\n\n        // Periods are measured in Court terms. Since Court terms are represented in uint64, we are safe to use uint64 for period ids too.\n        _subscriber.lastPaymentPeriodId = uint64(newLastPeriodId);\n\n        // Deposit fee tokens from sender to this contract\n        emit FeesPaid(_to, _periods, newLastPeriodId, collectedFees, governorFee);\n        require(feeToken.safeTransferFrom(_from, address(this), amountToPay), ERROR_TOKEN_TRANSFER_FAILED);\n    }\n\n    /**\n    * @dev Internal function to transfer owed fees to the governor. This function assumes there are some accumulated fees to be transferred.\n    */\n    function _transferFeesToGovernor() internal {\n        uint256 amount = accumulatedGovernorFees;\n        accumulatedGovernorFees = 0;\n        emit GovernorFeesTransferred(amount);\n        require(currentFeeToken.safeTransfer(_configGovernor(), amount), ERROR_TOKEN_TRANSFER_FAILED);\n    }\n\n    /**\n    * @dev Internal function to make sure the fee token address and amount of a certain period have been cached\n    * @param _period Period being ensured to have cached its fee token address and amount\n    * @return feeToken ERC20 token to be used for the subscription fees during the given period\n    * @return feeAmount Amount of fees to be paid during the given period\n    */\n    function _ensurePeriodFeeTokenAndAmount(Period storage _period) internal returns (ERC20 feeToken, uint256 feeAmount) {\n        // Use current fee token address and amount for the given period if these haven't been set yet\n        feeToken = _period.feeToken;\n        if (feeToken == ERC20(0)) {\n            feeToken = currentFeeToken;\n            _period.feeToken = feeToken;\n            _period.feeAmount = currentFeeAmount;\n        }\n        feeAmount = _period.feeAmount;\n    }\n\n    /**\n    * @dev Internal function to make sure that the balance details of a certain period have been computed. This function assumes given ID and\n    *      period correspond to each other.\n    * @param _periodId Identification number of the period being ensured\n    * @param _period Period being ensured\n    * @return periodBalanceCheckpoint Court term ID used to fetch the total active balance of the jurors registry\n    * @return totalActiveBalance Total amount of juror tokens active in the Court at the corresponding used checkpoint\n    */\n    function _ensurePeriodBalanceDetails(uint256 _periodId, Period storage _period) internal\n        returns (uint64 periodBalanceCheckpoint, uint256 totalActiveBalance)\n    {\n        totalActiveBalance = _period.totalActiveBalance;\n\n        // Set balance details for the given period if these haven't been set yet\n        if (totalActiveBalance == 0) {\n            (periodBalanceCheckpoint, totalActiveBalance) = _getPeriodBalanceDetails(_periodId);\n            _period.balanceCheckpoint = periodBalanceCheckpoint;\n            _period.totalActiveBalance = totalActiveBalance;\n        } else {\n            periodBalanceCheckpoint = _period.balanceCheckpoint;\n        }\n    }\n\n    /**\n    * @dev Internal function to set a new amount for the subscription fees\n    * @param _feeAmount New amount of fees to be paid for each subscription period\n    */\n    function _setFeeAmount(uint256 _feeAmount) internal {\n        require(_feeAmount > 0, ERROR_FEE_AMOUNT_ZERO);\n\n        emit FeeAmountChanged(currentFeeAmount, _feeAmount);\n        currentFeeAmount = _feeAmount;\n    }\n\n    /**\n    * @dev Internal function to set a new ERC20 token for the subscription fees\n    * @param _feeToken New ERC20 token to be used for the subscription fees\n    */\n    function _setFeeToken(ERC20 _feeToken) internal {\n        require(isContract(address(_feeToken)), ERROR_FEE_TOKEN_NOT_CONTRACT);\n\n        if (accumulatedGovernorFees > 0) {\n            _transferFeesToGovernor();\n        }\n        emit FeeTokenChanged(address(currentFeeToken), address(_feeToken));\n        currentFeeToken = _feeToken;\n    }\n\n    /**\n    * @dev Internal function to set a new number of pre payment periods\n    * @param _prePaymentPeriods New number of periods that can be paid in advance including the current period\n    */\n    function _setPrePaymentPeriods(uint256 _prePaymentPeriods) internal {\n        // The pre payments period number must contemplate the current period. Thus, it must be greater than zero.\n        require(_prePaymentPeriods > 0, ERROR_PREPAYMENT_PERIODS_ZERO);\n        // It must be also greater than or equal to the number of resume pre-paid periods since these are always paid in advance, and we must\n        // make sure there won't be users covering too many periods in the future to avoid skipping fee changes or excluding many jurors from\n        // their corresponding rewards.\n        require(_prePaymentPeriods >= resumePrePaidPeriods, ERROR_RESUME_PRE_PAID_PERIODS_TOO_BIG);\n\n        emit PrePaymentPeriodsChanged(prePaymentPeriods, _prePaymentPeriods);\n        prePaymentPeriods = _prePaymentPeriods;\n    }\n\n    /**\n    * @dev Internal function to set new late payment penalty `_latePaymentPenaltyPct` (1/10,000)\n    * @param _latePaymentPenaltyPct New permyriad of subscription fees that will be applied as penalty for not paying during proper period\n    */\n    function _setLatePaymentPenaltyPct(uint16 _latePaymentPenaltyPct) internal {\n        emit LatePaymentPenaltyPctChanged(latePaymentPenaltyPct, _latePaymentPenaltyPct);\n        latePaymentPenaltyPct = _latePaymentPenaltyPct;\n    }\n\n    /**\n    * @dev Internal function to set a new governor share value\n    * @param _governorSharePct New permyriad of subscription fees that will be allocated to the governor of the Court ( - 1/10,000)\n    */\n    function _setGovernorSharePct(uint16 _governorSharePct) internal {\n        // Check governor share is not greater than 10,000\n        require(PctHelpers.isValid(_governorSharePct), ERROR_OVERRATED_GOVERNOR_SHARE_PCT);\n\n        emit GovernorSharePctChanged(governorSharePct, _governorSharePct);\n        governorSharePct = _governorSharePct;\n    }\n\n    /**\n    * @dev Internal function to set new number of resume pre-paid periods\n    * @param _resumePrePaidPeriods New number of periods a subscriber must pre-pay in order to resume his activity after pausing\n    */\n    function _setResumePrePaidPeriods(uint256 _resumePrePaidPeriods) internal {\n        // Check resume resume pre-paid periods it not above the number of allowed pre payment periods. Since these periods are always paid in\n        // advance, we must make sure there won't be users covering too many periods in the future to avoid skipping fee changes or\n        // excluding many jurors from their corresponding rewards.\n        require(_resumePrePaidPeriods <= prePaymentPeriods, ERROR_RESUME_PRE_PAID_PERIODS_TOO_BIG);\n\n        emit ResumePenaltiesChanged(resumePrePaidPeriods, _resumePrePaidPeriods);\n        resumePrePaidPeriods = _resumePrePaidPeriods;\n    }\n\n    /**\n    * @dev Internal function to tell the identification number of the current period\n    * @return Identification number of the current period\n    */\n    function _getCurrentPeriodId() internal view returns (uint256) {\n        // Since the Court starts at term #1, and the first subscription period is #0, then subtract one unit to the current term of the Court\n        uint64 termId = _getCurrentTermId();\n        require(termId > 0, ERROR_COURT_HAS_NOT_STARTED);\n\n        // No need for SafeMath: we already checked that the term ID is at least 1\n        uint64 periodId = (termId - START_TERM_ID) / periodDuration;\n        return uint256(periodId);\n    }\n\n    /**\n    * @dev Internal function to get the Court term in which a certain period starts\n    * @param _periodId Identification number of the period querying the start term of\n    * @return Court term where the given period starts\n    */\n    function _getPeriodStartTermId(uint256 _periodId) internal view returns (uint64) {\n        // Periods are measured in Court terms. Since Court terms are represented in uint64, we are safe to use uint64 for period ids too.\n        // We are using SafeMath here because if any user calls `getPeriodBalanceDetails` for a huge period ID,\n        // it would overflow and therefore return wrong information.\n        return START_TERM_ID.add(uint64(_periodId).mul(periodDuration));\n    }\n\n    /**\n    * @dev Internal function to get the fee token address and amount to be used for a certain period\n    * @param _period Period querying the token address and amount of\n    * @return feeToken ERC20 token to be used for the subscription fees during the given period\n    * @return feeAmount Amount of fees to be paid during the given period\n    */\n    function _getPeriodFeeTokenAndAmount(Period storage _period) internal view returns (ERC20 feeToken, uint256 feeAmount) {\n        // Return current fee token address and amount if these haven't been set for the given period yet\n        feeToken = _period.feeToken;\n        if (feeToken == ERC20(0)) {\n            feeToken = currentFeeToken;\n            feeAmount = currentFeeAmount;\n        } else {\n            feeAmount = _period.feeAmount;\n        }\n    }\n\n    /**\n    * @dev Internal function to compute the total amount of fees to be paid for the subscriber based on a requested number of periods\n    * @param _subscriber Subscriber willing to pay\n    * @param _periods Number of periods that would be paid\n    * @param _currentPeriodId Identification number of the current period\n    * @param _feeAmount Amount of fees to be paid for each subscription period\n    * @return amountToPay Amount of subscription fee tokens to be paid\n    * @return newLastPeriodId Identification number of the resulting last paid period\n    */\n    function _getPayFeesDetails(Subscriber storage _subscriber, uint256 _periods, uint256 _currentPeriodId, uint256 _feeAmount) internal view\n        returns (uint256 amountToPay, uint256 newLastPeriodId)\n    {\n        uint256 regularPeriods = 0;\n        uint256 delayedPeriods = 0;\n        uint256 resumePeriods = 0;\n        (newLastPeriodId, regularPeriods, delayedPeriods, resumePeriods) = _getPayingPeriodsDetails(_subscriber, _periods, _currentPeriodId);\n\n        // Regular periods to be paid is equal to `(regularPeriods + resumePeriods) * _feeAmount`\n        uint256 regularPayment = (regularPeriods.add(resumePeriods)).mul(_feeAmount);\n        // Delayed periods to be paid is equal to `delayedPeriods * _feeAmount * (1 + latePaymentPenaltyPct) / PCT_BASE`\n        uint256 delayedPayment = delayedPeriods.mul(_feeAmount).pctIncrease(latePaymentPenaltyPct);\n        // Compute total amount to be paid\n        amountToPay = regularPayment.add(delayedPayment);\n    }\n\n    /**\n    * @dev Internal function to compute the total number of different periods a subscriber has to pay based on a requested number of periods\n    *\n    *    subs      last           paused           current                new last\n    *   +----+----+----+----+----+------+----+----+-------+----+----+----+--------+\n    *                  <--------->                <-----------------><------------>\n    *                    delayed                       regular       resumed\n    *\n    * @param _subscriber Subscriber willing to pay\n    * @param _periods Number of periods that would be paid\n    * @param _currentPeriodId Identification number of the current period\n    * @return newLastPeriodId Identification number of the resulting last paid period\n    * @return regularPeriods Number of periods to be paid without penalties\n    * @return delayedPeriods Number of periods to be paid applying the delayed penalty\n    * @return resumePeriods Number of periods to be paid applying the resume penalty\n    */\n    function _getPayingPeriodsDetails(Subscriber storage _subscriber, uint256 _periods, uint256 _currentPeriodId) internal view\n        returns (uint256 newLastPeriodId, uint256 regularPeriods, uint256 delayedPeriods, uint256 resumePeriods)\n    {\n        uint256 lastPaymentPeriodId = _subscriber.lastPaymentPeriodId;\n\n        // Check if the subscriber has already been subscribed\n        if (!_subscriber.subscribed) {\n            // If the subscriber was not subscribed before, there are no delayed nor resumed periods\n            resumePeriods = 0;\n            delayedPeriods = 0;\n            regularPeriods = _periods;\n            // The number of periods to be paid includes the current period, thus we subtract one unit\n            // No need for SafeMath: the number of periods is at least one\n            newLastPeriodId = _currentPeriodId.add(_periods) - 1;\n        } else {\n            uint256 totalDelayedPeriods = _getDelayedPeriods(_subscriber, _currentPeriodId);\n            // Resume a subscription only if the subscriber was paused and the previous last period is overdue by more than one period\n            if (_subscriber.paused && lastPaymentPeriodId + 1 < _currentPeriodId) {\n                // If the subscriber is resuming his activity he must pay the pre-paid periods penalty and the previous delayed periods\n                resumePeriods = resumePrePaidPeriods;\n                delayedPeriods = totalDelayedPeriods;\n                require(_periods >= resumePeriods.add(delayedPeriods), ERROR_LOW_RESUME_PERIODS_PAYMENT);\n\n                // No need for SafeMath: we already checked the number of given and resume periods above\n                regularPeriods = _periods - resumePeriods - delayedPeriods;\n                // The new last period is computed including the current period\n                // No need for SafeMath: the number of periods is at least one\n                newLastPeriodId = _currentPeriodId.add(_periods) - 1;\n            } else {\n                // If the subscriber does not need to resume his activity, there are no resume periods, last period is simply updated\n                resumePeriods = 0;\n                newLastPeriodId = lastPaymentPeriodId.add(_periods);\n\n                // Compute the number of regular and delayed periods to be paid\n                if (totalDelayedPeriods > _periods) {\n                    // Non regular periods, all periods being paid are delayed ones\n                    regularPeriods = 0;\n                    delayedPeriods = _periods;\n                } else {\n                    // No need for SafeMath: we already checked the total number of delayed periods\n                    regularPeriods = _periods - totalDelayedPeriods;\n                    delayedPeriods = totalDelayedPeriods;\n                }\n            }\n        }\n\n        // If the subscriber is paying some periods in advance, check it doesn't reach the pre-payment limit\n        if (newLastPeriodId > _currentPeriodId) {\n            require(newLastPeriodId.sub(_currentPeriodId) < prePaymentPeriods, ERROR_PAYING_TOO_MANY_PERIODS);\n        }\n    }\n\n    /**\n    * @dev Internal function to tell the number of overdue payments for a given subscriber\n    * @param _subscriber Subscriber querying the delayed periods of\n    * @param _currentPeriodId Identification number of the current period\n    * @return Number of overdue payments for the requested subscriber\n    */\n    function _getDelayedPeriods(Subscriber storage _subscriber, uint256 _currentPeriodId) internal view returns (uint256) {\n        // If the given subscriber was not subscribed yet, there are no pending payments\n        if (!_subscriber.subscribed) {\n            return 0;\n        }\n\n        // If the given subscriber was paused, return the delayed periods before pausing\n        if (_subscriber.paused) {\n            return _subscriber.previousDelayedPeriods;\n        }\n\n        // If the given subscriber is subscribed and not paused but is up-to-date, return 0\n        uint256 lastPaymentPeriodId = _subscriber.lastPaymentPeriodId;\n        if (lastPaymentPeriodId >= _currentPeriodId) {\n            return 0;\n        }\n\n        // If the given subscriber was already subscribed, then the current period is not considered delayed\n        // No need for SafeMath: we already know last payment period is before current period from above\n        return _currentPeriodId - lastPaymentPeriodId - 1;\n    }\n\n    /**\n    * @dev Internal function to tell the number of owed payments for a given subscriber\n    * @param _subscriber Subscriber querying the delayed periods of\n    * @param _currentPeriodId Identification number of the current period\n    * @return Number of owed payments for the requested subscriber\n    */\n    function _getOwedPeriods(Subscriber storage _subscriber, uint256 _currentPeriodId) internal view returns (uint256) {\n        // If the given subscriber was not subscribed yet, they must only pay the current period\n        if (!_subscriber.subscribed) {\n            return 1;\n        }\n\n        uint256 lastPaymentPeriodId = _subscriber.lastPaymentPeriodId;\n        uint256 totalDelayedPeriods = _getDelayedPeriods(_subscriber, _currentPeriodId);\n\n        // If the subscriber was paused and the previous last period is overdue by more than one period,\n        // the subscriber must pay the pre-paid resume penalty and their previous delayed periods\n        if (_subscriber.paused && lastPaymentPeriodId + 1 < _currentPeriodId) {\n            return resumePrePaidPeriods.add(totalDelayedPeriods);\n        }\n\n        // If the subscriber is not paused or the last period is not overdue by more than one period,\n        // check if they have paid in advance some periods\n        if (lastPaymentPeriodId >= _currentPeriodId) {\n            return 0;\n        }\n\n        // Otherwise, they simply need to pay the number of delayed periods and the current period\n        return totalDelayedPeriods + 1;\n    }\n\n    /**\n    * @dev Internal function to get the total active balance of the jurors registry at a random term during a period\n    * @param _periodId Identification number of the period being queried\n    * @return periodBalanceCheckpoint Court term ID used to fetch the total active balance of the jurors registry\n    * @return totalActiveBalance Total amount of juror tokens active in the Court at the corresponding used checkpoint\n    */\n    function _getPeriodBalanceDetails(uint256 _periodId) internal view returns (uint64 periodBalanceCheckpoint, uint256 totalActiveBalance) {\n        uint64 periodStartTermId = _getPeriodStartTermId(_periodId);\n        uint64 nextPeriodStartTermId = _getPeriodStartTermId(_periodId.add(1));\n\n        // Pick a random Court term during the next period of the requested one to get the total amount of juror tokens active in the Court\n        IClock clock = _clock();\n        bytes32 randomness = clock.getTermRandomness(nextPeriodStartTermId);\n\n        // The randomness factor for each Court term is computed using the the hash of a block number set during the initialization of the\n        // term, to ensure it cannot be known beforehand. Note that the hash function being used only works for the 256 most recent block\n        // numbers. Therefore, if that occurs we use the hash of the previous block number. This could be slightly beneficial for the first\n        // juror calling this function, but it's still impossible to predict during the requested period.\n        if (randomness == bytes32(0)) {\n            randomness = blockhash(getBlockNumber() - 1);\n        }\n\n        // Use randomness to choose a Court term of the requested period and query the total amount of juror tokens active at that term\n        IJurorsRegistry jurorsRegistry = _jurorsRegistry();\n        periodBalanceCheckpoint = periodStartTermId.add(uint64(uint256(randomness) % periodDuration));\n        totalActiveBalance = jurorsRegistry.totalActiveBalanceAt(periodBalanceCheckpoint);\n    }\n\n    /**\n    * @dev Internal function to tell the share fees corresponding to a juror for a certain period\n    * @param _juror Address of the juror querying the owed shared fees of\n    * @param _period Period being queried\n    * @param _periodBalanceCheckpoint Court term ID used to fetch the active balance of the juror for the requested period\n    * @param _totalActiveBalance Total amount of juror tokens active in the Court at the corresponding used checkpoint\n    * @return Amount of share fees owed to the given juror for the requested period\n    */\n    function _getJurorShare(address _juror, Period storage _period, uint64 _periodBalanceCheckpoint, uint256 _totalActiveBalance) internal view\n        returns (uint256)\n    {\n        // Fetch juror active balance at the checkpoint used for the requested period\n        IJurorsRegistry jurorsRegistry = _jurorsRegistry();\n        uint256 jurorActiveBalance = jurorsRegistry.activeBalanceOfAt(_juror, _periodBalanceCheckpoint);\n        if (jurorActiveBalance == 0) {\n            return 0;\n        }\n\n        // Note that we already checked the juror active balance is greater than zero, then, the total active balance must be greater than zero.\n        return _period.collectedFees.mul(jurorActiveBalance) / _totalActiveBalance;\n    }\n}\n",
  "sourcePath": "/Users/facu/Documents/work/aragon/dev/aragon-court/contracts/subscriptions/CourtSubscriptions.sol",
  "compiler": {
    "name": "solc",
    "version": "0.5.8+commit.23d335f2.Emscripten.clang"
  },
  "schemaVersion": "3.0.17",
  "updatedAt": "2019-12-13T09:50:40.499Z",
  "devdoc": {
    "methods": {
      "claimFees(uint256)": {
        "params": {
          "_periodId": "Identification number of the period which fees are claimed for"
        }
      },
      "constructor": {
        "details": "Initialize court subscriptions",
        "params": {
          "_controller": "Address of the controller",
          "_feeAmount": "Initial amount of fees to be paid for each subscription period",
          "_feeToken": "Initial ERC20 token used for the subscription fees",
          "_governorSharePct": "Initial permyriad of subscription fees that will be allocated to the governor of the Court ( - 1/10,000)",
          "_latePaymentPenaltyPct": "Initial permyriad of subscription fees that will be applied as penalty for not paying during proper period ( - 1/10,000)",
          "_periodDuration": "Duration of a subscription period in Court terms",
          "_prePaymentPeriods": "Initial number of periods that can be paid in advance including the current period",
          "_resumePrePaidPeriods": "Initial number of periods a subscriber must pre-pay in order to resume his activity after pausing"
        }
      },
      "donate(uint256)": {
        "params": {
          "_amount": "Amount of fee tokens to be donated"
        }
      },
      "ensurePeriodBalanceDetails(uint256)": {
        "params": {
          "_periodId": "Identification number of the period being ensured"
        },
        "return": "periodBalanceCheckpoint Court term ID used to fetch the total active balance of the jurors registrytotalActiveBalance Total amount of juror tokens active in the Court at the corresponding used checkpoint"
      },
      "getController()": {
        "details": "Tell the address of the controller",
        "return": "Address of the controller"
      },
      "getCurrentPeriod()": {
        "details": "Get details of the current period",
        "return": "feeToken Fee token corresponding to a certain subscription periodfeeAmount Amount of fees paid for a certain subscription periodbalanceCheckpoint Court term ID of a period used to fetch the total active balance of the jurors registrytotalActiveBalance Total amount of juror tokens active in the Court at the corresponding period checkpointcollectedFees Total amount of subscription fees collected during a period"
      },
      "getCurrentPeriodId()": {
        "details": "Tell the identification number of the current period",
        "return": "Identification number of the current period"
      },
      "getDelayedPeriods(address)": {
        "details": "Tell the number of overdue payments for a given subscriber",
        "params": {
          "_subscriber": "Address of the subscriber being checked"
        },
        "return": "Number of overdue payments for the requested subscriber"
      },
      "getJurorShare(address,uint256)": {
        "details": "Tell the share fees corresponding to a juror for a certain period",
        "params": {
          "_juror": "Address of the juror querying the owed shared fees of",
          "_periodId": "Identification number of the period being queried"
        },
        "return": "feeToken Address of the token used for the subscription feesjurorShare Amount of share fees owed to the given juror for the requested period"
      },
      "getOwedFeesDetails(address)": {
        "details": "Tell the minimum amount of fees to pay and resulting last paid period for a given subscriber in order to be up-to-date",
        "params": {
          "_subscriber": "Address of the subscriber being queried"
        },
        "return": "feeToken ERC20 token used for the subscription feesamountToPay Amount of subscription fee tokens to be paid for all the owed periodsnewLastPeriodId Identification number of the resulting last paid period"
      },
      "getPayFeesDetails(address,uint256)": {
        "details": "Tell the amount to pay and resulting last paid period for a given subscriber paying for a certain number of periods",
        "params": {
          "_periods": "Number of periods that would be paid",
          "_subscriber": "Address of the subscriber being queried"
        },
        "return": "feeToken ERC20 token used for the subscription feesamountToPay Amount of subscription fee tokens to be paidnewLastPeriodId Identification number of the resulting last paid period"
      },
      "getPeriodBalanceDetails(uint256)": {
        "details": "Tell total active balance of the jurors registry at a random term during a certain period",
        "params": {
          "_periodId": "Identification number of the period being queried"
        },
        "return": "periodBalanceCheckpoint Court term ID used to fetch the total active balance of the jurors registrytotalActiveBalance Total amount of juror tokens active in the Court at the corresponding used checkpoint"
      },
      "getSubscriber(address)": {
        "details": "Tell information associated to a subscriber",
        "params": {
          "_subscriber": "Address of the subscriber being queried"
        },
        "return": "subscribed True if the given subscriber has already been subscribed to the Court, false otherwisepaused True if the given subscriber has paused the Court subscriptions, false otherwiselastPaymentPeriodId Identification number of the last period paid by the given subscriberpreviousDelayedPeriods Number of delayed periods the subscriber had before pausing"
      },
      "hasJurorClaimed(address,uint256)": {
        "details": "Check if a given juror has already claimed the owed share fees for a certain period",
        "params": {
          "_juror": "Address of the juror being queried",
          "_periodId": "Identification number of the period being queried"
        },
        "return": "True if the owed share fees have already been claimed, false otherwise"
      },
      "isUpToDate(address)": {
        "details": "Tell whether a certain subscriber has paid all the fees up to current period or not",
        "params": {
          "_subscriber": "Address of subscriber being checked"
        },
        "return": "True if subscriber has paid all the fees up to current period, false otherwise"
      },
      "payFees(address,uint256)": {
        "params": {
          "_periods": "Number of periods to be paid in total since the last paid period",
          "_to": "Subscriber whose subscription is being paid"
        }
      },
      "recoverFunds(address,address)": {
        "params": {
          "_to": "Address of the recipient that will be receive all the funds of the requested token",
          "_token": "ERC20 token to be recovered"
        }
      },
      "resume(uint256)": {
        "params": {
          "_periods": "Number of periods to be paid in total"
        }
      },
      "setFeeAmount(uint256)": {
        "params": {
          "_feeAmount": "New amount of fees to be paid for each subscription period"
        }
      },
      "setFeeToken(address,uint256)": {
        "details": "Accumulated fees owed to governor (if any) will be transferred",
        "params": {
          "_feeAmount": "New amount of fees to be paid for each subscription period",
          "_feeToken": "New ERC20 token to be used for the subscription fees"
        }
      },
      "setGovernorSharePct(uint16)": {
        "params": {
          "_governorSharePct": "New permyriad of subscription fees that will be allocated to the governor of the Court ( - 1/10,000)"
        }
      },
      "setLatePaymentPenaltyPct(uint16)": {
        "params": {
          "_latePaymentPenaltyPct": "New permyriad of subscription fees that will be applied as penalty for not paying during proper period"
        }
      },
      "setPrePaymentPeriods(uint256)": {
        "params": {
          "_prePaymentPeriods": "New number of periods that can be paid in advance"
        }
      },
      "setResumePrePaidPeriods(uint256)": {
        "params": {
          "_resumePrePaidPeriods": "New number of periods a subscriber must pre-pay in order to resume his activity after pausing"
        }
      }
    }
  },
  "userdoc": {
    "methods": {
      "claimFees(uint256)": {
        "notice": "Claim proportional share fees for period `_periodId` owed to `msg.sender`"
      },
      "donate(uint256)": {
        "notice": "Donate fees to the Court"
      },
      "ensurePeriodBalanceDetails(uint256)": {
        "notice": "Make sure that the balance details of a certain period have been computed"
      },
      "pause()": {
        "notice": "Pause sender subscriptions"
      },
      "payFees(address,uint256)": {
        "notice": "Pay fees on behalf of `_to` for `_periods` periods"
      },
      "recoverFunds(address,address)": {
        "notice": "Transfer all `_token` tokens to `_to`"
      },
      "resume(uint256)": {
        "notice": "Resume sender's subscription"
      },
      "setFeeAmount(uint256)": {
        "notice": "Set new subscriptions fee amount to `_feeAmount`"
      },
      "setFeeToken(address,uint256)": {
        "notice": "Set new subscriptions fee to `@tokenAmount(_feeToken, _feeAmount)`"
      },
      "setGovernorSharePct(uint16)": {
        "notice": "Set new governor share to `_governorSharePct` (1/10,000)"
      },
      "setLatePaymentPenaltyPct(uint16)": {
        "notice": "Set new late payment penalty `_latePaymentPenaltyPct` ( - 1/10,000)"
      },
      "setPrePaymentPeriods(uint256)": {
        "notice": "Set new number of pre payment to `_prePaymentPeriods` periods"
      },
      "setResumePrePaidPeriods(uint256)": {
        "notice": "Set new resume pre-paid periods to `_resumePrePaidPeriods`"
      },
      "transferFeesToGovernor()": {
        "notice": "Transfer owed fees to the governor"
      }
    }
  }
}